{
  "_format": "hh-sol-artifact-1",
  "contractName": "Marketplace",
  "sourceName": "src/solidity/contracts/Marketplace.sol",
  "abi": [
    {
      "inputs": [
        {
          "internalType": "uint256",
          "name": "_feePercent",
          "type": "uint256"
        },
        {
          "internalType": "uint256",
          "name": "_feeCollectionPercent",
          "type": "uint256"
        },
        {
          "internalType": "uint256",
          "name": "_feeRoyaltiesPercent",
          "type": "uint256"
        }
      ],
      "stateMutability": "nonpayable",
      "type": "constructor"
    },
    {
      "anonymous": false,
      "inputs": [
        {
          "indexed": true,
          "internalType": "uint256",
          "name": "tokenId",
          "type": "uint256"
        },
        {
          "indexed": false,
          "internalType": "address",
          "name": "nft",
          "type": "address"
        },
        {
          "indexed": false,
          "internalType": "uint256",
          "name": "price",
          "type": "uint256"
        },
        {
          "indexed": false,
          "internalType": "uint256",
          "name": "totalPrice",
          "type": "uint256"
        },
        {
          "indexed": true,
          "internalType": "address",
          "name": "seller",
          "type": "address"
        },
        {
          "indexed": true,
          "internalType": "address",
          "name": "buyer",
          "type": "address"
        }
      ],
      "name": "Bought",
      "type": "event"
    },
    {
      "anonymous": false,
      "inputs": [
        {
          "indexed": false,
          "internalType": "uint256",
          "name": "itemId",
          "type": "uint256"
        },
        {
          "indexed": false,
          "internalType": "uint256",
          "name": "tokenId",
          "type": "uint256"
        },
        {
          "indexed": false,
          "internalType": "uint256",
          "name": "price",
          "type": "uint256"
        },
        {
          "indexed": true,
          "internalType": "address",
          "name": "seller",
          "type": "address"
        }
      ],
      "name": "ItemOnSale",
      "type": "event"
    },
    {
      "anonymous": false,
      "inputs": [
        {
          "indexed": false,
          "internalType": "uint256",
          "name": "tokenId",
          "type": "uint256"
        },
        {
          "indexed": true,
          "internalType": "address",
          "name": "nft",
          "type": "address"
        },
        {
          "indexed": false,
          "internalType": "uint256",
          "name": "price",
          "type": "uint256"
        },
        {
          "indexed": true,
          "internalType": "address",
          "name": "seller",
          "type": "address"
        }
      ],
      "name": "Offered",
      "type": "event"
    },
    {
      "inputs": [],
      "name": "feeAccount",
      "outputs": [
        {
          "internalType": "address payable",
          "name": "",
          "type": "address"
        }
      ],
      "stateMutability": "view",
      "type": "function"
    },
    {
      "inputs": [],
      "name": "feeCollectionPercent",
      "outputs": [
        {
          "internalType": "uint256",
          "name": "",
          "type": "uint256"
        }
      ],
      "stateMutability": "view",
      "type": "function"
    },
    {
      "inputs": [],
      "name": "feePercent",
      "outputs": [
        {
          "internalType": "uint256",
          "name": "",
          "type": "uint256"
        }
      ],
      "stateMutability": "view",
      "type": "function"
    },
    {
      "inputs": [],
      "name": "feeRoyaltiesPercent",
      "outputs": [
        {
          "internalType": "uint256",
          "name": "",
          "type": "uint256"
        }
      ],
      "stateMutability": "view",
      "type": "function"
    },
    {
      "inputs": [],
      "name": "getContractOwner",
      "outputs": [
        {
          "internalType": "address",
          "name": "",
          "type": "address"
        }
      ],
      "stateMutability": "view",
      "type": "function"
    },
    {
      "inputs": [
        {
          "internalType": "uint256",
          "name": "_tokenId",
          "type": "uint256"
        }
      ],
      "name": "getTotalFeeAccount",
      "outputs": [
        {
          "internalType": "uint256",
          "name": "",
          "type": "uint256"
        }
      ],
      "stateMutability": "view",
      "type": "function"
    },
    {
      "inputs": [
        {
          "internalType": "uint256",
          "name": "_tokenId",
          "type": "uint256"
        }
      ],
      "name": "getTotalFeeCollection",
      "outputs": [
        {
          "internalType": "uint256",
          "name": "",
          "type": "uint256"
        }
      ],
      "stateMutability": "view",
      "type": "function"
    },
    {
      "inputs": [
        {
          "internalType": "uint256",
          "name": "_tokenId",
          "type": "uint256"
        }
      ],
      "name": "getTotalFeeRoyalties",
      "outputs": [
        {
          "internalType": "uint256",
          "name": "",
          "type": "uint256"
        }
      ],
      "stateMutability": "view",
      "type": "function"
    },
    {
      "inputs": [
        {
          "internalType": "uint256",
          "name": "_tokenId",
          "type": "uint256"
        }
      ],
      "name": "getTotalPrice",
      "outputs": [
        {
          "internalType": "uint256",
          "name": "",
          "type": "uint256"
        }
      ],
      "stateMutability": "view",
      "type": "function"
    },
    {
      "inputs": [],
      "name": "itemCount",
      "outputs": [
        {
          "internalType": "uint256",
          "name": "",
          "type": "uint256"
        }
      ],
      "stateMutability": "view",
      "type": "function"
    },
    {
      "inputs": [
        {
          "internalType": "uint256",
          "name": "",
          "type": "uint256"
        }
      ],
      "name": "items",
      "outputs": [
        {
          "internalType": "uint256",
          "name": "tokenId",
          "type": "uint256"
        },
        {
          "internalType": "contract IERC721Extend",
          "name": "nft",
          "type": "address"
        },
        {
          "internalType": "uint256",
          "name": "price",
          "type": "uint256"
        },
        {
          "internalType": "uint256",
          "name": "latestPrice",
          "type": "uint256"
        },
        {
          "internalType": "address payable",
          "name": "seller",
          "type": "address"
        },
        {
          "internalType": "bool",
          "name": "onSale",
          "type": "bool"
        }
      ],
      "stateMutability": "view",
      "type": "function"
    },
    {
      "inputs": [
        {
          "internalType": "string[]",
          "name": "_tokenURIs",
          "type": "string[]"
        },
        {
          "internalType": "address payable",
          "name": "_collectionOwner",
          "type": "address"
        },
        {
          "internalType": "contract INFT",
          "name": "_nft",
          "type": "address"
        },
        {
          "internalType": "contract IERC721Extend",
          "name": "_erc721",
          "type": "address"
        },
        {
          "internalType": "uint256[]",
          "name": "_prices",
          "type": "uint256[]"
        }
      ],
      "name": "mintAndMakeCollection",
      "outputs": [],
      "stateMutability": "nonpayable",
      "type": "function"
    },
    {
      "inputs": [
        {
          "internalType": "uint256",
          "name": "_tokenId",
          "type": "uint256"
        }
      ],
      "name": "purchaseItem",
      "outputs": [],
      "stateMutability": "payable",
      "type": "function"
    },
    {
      "inputs": [
        {
          "internalType": "uint256",
          "name": "_tokenId",
          "type": "uint256"
        },
        {
          "internalType": "uint256",
          "name": "_price",
          "type": "uint256"
        }
      ],
      "name": "setItemOnSale",
      "outputs": [],
      "stateMutability": "nonpayable",
      "type": "function"
    }
  ],
  "bytecode": "0x6101006040523480156200001257600080fd5b5060405162002fe338038062002fe38339818101604052810190620000389190620000f0565b600160008190555033600160006101000a81548173ffffffffffffffffffffffffffffffffffffffff021916908373ffffffffffffffffffffffffffffffffffffffff1602179055503373ffffffffffffffffffffffffffffffffffffffff1660808173ffffffffffffffffffffffffffffffffffffffff1660601b815250508260a081815250508160c081815250508060e081815250505050506200016a565b600081519050620000ea8162000150565b92915050565b6000806000606084860312156200010657600080fd5b60006200011686828701620000d9565b93505060206200012986828701620000d9565b92505060406200013c86828701620000d9565b9150509250925092565b6000819050919050565b6200015b8162000146565b81146200016757600080fd5b50565b60805160601c60a05160c05160e051612e04620001df6000396000818161038a015281816113110152611d2e0152600081816105b0015281816107db01526111cd015260008181610695015281816107b7015261108a0152600081816106400152818161078d01526115310152612e046000f3fe6080604052600436106100dd5760003560e01c80638a14d4e41161007f578063ca7dd37511610059578063ca7dd375146102c9578063d38ea5bf14610306578063e08ce3be14610322578063edc5fec41461035f576100dd565b80638a14d4e414610233578063b3cffa021461025e578063bfb231d214610287576100dd565b8063442890d5116100bb578063442890d51461018757806365e17c9d146101b25780636bfb0d01146101dd5780637fd6f15c14610208576100dd565b806327542547146100e2578063354095501461010d5780633939a77d1461014a575b600080fd5b3480156100ee57600080fd5b506100f7610388565b60405161010491906126b1565b60405180910390f35b34801561011957600080fd5b50610134600480360381019061012f91906122a2565b6103ac565b60405161014191906126b1565b60405180910390f35b34801561015657600080fd5b50610171600480360381019061016c91906122a2565b61061f565b60405161017e91906126b1565b60405180910390f35b34801561019357600080fd5b5061019c610701565b6040516101a991906124b8565b60405180910390f35b3480156101be57600080fd5b506101c761078b565b6040516101d491906124d3565b60405180910390f35b3480156101e957600080fd5b506101f26107af565b6040516101ff91906126b1565b60405180910390f35b34801561021457600080fd5b5061021d6107b5565b60405161022a91906126b1565b60405180910390f35b34801561023f57600080fd5b506102486107d9565b60405161025591906126b1565b60405180910390f35b34801561026a57600080fd5b50610285600480360381019061028091906121fb565b6107fd565b005b34801561029357600080fd5b506102ae60048036038101906102a991906122a2565b610ec1565b6040516102c09695949392919061271e565b60405180910390f35b3480156102d557600080fd5b506102f060048036038101906102eb91906122a2565b610f4a565b6040516102fd91906126b1565b60405180910390f35b610320600480360381019061031b91906122a2565b6113ba565b005b34801561032e57600080fd5b50610349600480360381019061034491906122a2565b611b2a565b60405161035691906126b1565b60405180910390f35b34801561036b57600080fd5b50610386600480360381019061038191906122f4565b611d9d565b005b7f000000000000000000000000000000000000000000000000000000000000000081565b600080600360008481526020019081526020016000206040518060c0016040529081600082015481526020016001820160009054906101000a900473ffffffffffffffffffffffffffffffffffffffff1673ffffffffffffffffffffffffffffffffffffffff1673ffffffffffffffffffffffffffffffffffffffff16815260200160028201548152602001600382015481526020016004820160009054906101000a900473ffffffffffffffffffffffffffffffffffffffff1673ffffffffffffffffffffffffffffffffffffffff1673ffffffffffffffffffffffffffffffffffffffff1681526020016004820160149054906101000a900460ff1615151515815250509050600060036000858152602001908152602001600020600001549050600080836020015173ffffffffffffffffffffffffffffffffffffffff1663394120c0846040518263ffffffff1660e01b815260040161050f91906126b1565b60206040518083038186803b15801561052757600080fd5b505afa15801561053b573d6000803e3d6000fd5b505050506040513d601f19601f8201168201806040525081019061055f91906121d2565b9050600073ffffffffffffffffffffffffffffffffffffffff168173ffffffffffffffffffffffffffffffffffffffff161461061357600360008781526020019081526020016000206002015460647f000000000000000000000000000000000000000000000000000000000000000060646105db91906128a9565b600360008a8152602001908152602001600020600201546105fc9190612930565b61060691906128ff565b610610919061298a565b91505b81945050505050919050565b60008060009050600073ffffffffffffffffffffffffffffffffffffffff167f000000000000000000000000000000000000000000000000000000000000000073ffffffffffffffffffffffffffffffffffffffff16146106f857600360008481526020019081526020016000206002015460647f000000000000000000000000000000000000000000000000000000000000000060646106c091906128a9565b60036000878152602001908152602001600020600201546106e19190612930565b6106eb91906128ff565b6106f5919061298a565b90505b80915050919050565b6000600160009054906101000a900473ffffffffffffffffffffffffffffffffffffffff1673ffffffffffffffffffffffffffffffffffffffff163373ffffffffffffffffffffffffffffffffffffffff16141561078357600160009054906101000a900473ffffffffffffffffffffffffffffffffffffffff169050610788565b600090505b90565b7f000000000000000000000000000000000000000000000000000000000000000081565b60025481565b7f000000000000000000000000000000000000000000000000000000000000000081565b7f000000000000000000000000000000000000000000000000000000000000000081565b60026000541415610843576040517f08c379a000000000000000000000000000000000000000000000000000000000815260040161083a90612691565b60405180910390fd5b6002600081905550600160009054906101000a900473ffffffffffffffffffffffffffffffffffffffff1673ffffffffffffffffffffffffffffffffffffffff163373ffffffffffffffffffffffffffffffffffffffff16146108db576040517f08c379a00000000000000000000000000000000000000000000000000000000081526004016108d290612651565b60405180910390fd5b60005b815181101561097d576000828281518110610922577f4e487b7100000000000000000000000000000000000000000000000000000000600052603260045260246000fd5b60200260200101511161096a576040517f08c379a000000000000000000000000000000000000000000000000000000000815260040161096190612631565b60405180910390fd5b808061097590612b09565b9150506108de565b5060008151116109c2576040517f08c379a00000000000000000000000000000000000000000000000000000000081526004016109b990612671565b60405180910390fd5b6000805b8651811015610ad5578473ffffffffffffffffffffffffffffffffffffffff16637e6d945e888381518110610a24577f4e487b7100000000000000000000000000000000000000000000000000000000600052603260045260246000fd5b602002602001015130600160009054906101000a900473ffffffffffffffffffffffffffffffffffffffff166040518463ffffffff1660e01b8152600401610a6e93929190612593565b602060405180830381600087803b158015610a8857600080fd5b505af1158015610a9c573d6000803e3d6000fd5b505050506040513d601f19601f82011682018060405250810190610ac091906122cb565b91508080610acd90612b09565b9150506109c6565b50600073ffffffffffffffffffffffffffffffffffffffff168573ffffffffffffffffffffffffffffffffffffffff1614610bbb5760005b8651811015610bb9578373ffffffffffffffffffffffffffffffffffffffff1663020cb1d36001838a5186610b42919061298a565b610b4c91906128a9565b610b5691906128a9565b886040518363ffffffff1660e01b8152600401610b749291906126f5565b600060405180830381600087803b158015610b8e57600080fd5b505af1158015610ba2573d6000803e3d6000fd5b505050508080610bb190612b09565b915050610b0d565b505b60005b8251811015610eb05760026000815480929190610bda90612b09565b91905055508373ffffffffffffffffffffffffffffffffffffffff166323b872dd3033600185885188610c0d919061298a565b610c1791906128a9565b610c2191906128a9565b6040518463ffffffff1660e01b8152600401610c3f93929190612525565b600060405180830381600087803b158015610c5957600080fd5b505af1158015610c6d573d6000803e3d6000fd5b505050506040518060c0016040528060025481526020018573ffffffffffffffffffffffffffffffffffffffff168152602001848381518110610cd9577f4e487b7100000000000000000000000000000000000000000000000000000000600052603260045260246000fd5b60200260200101518152602001600081526020013373ffffffffffffffffffffffffffffffffffffffff168152602001600115158152506003600060025481526020019081526020016000206000820151816000015560208201518160010160006101000a81548173ffffffffffffffffffffffffffffffffffffffff021916908373ffffffffffffffffffffffffffffffffffffffff160217905550604082015181600201556060820151816003015560808201518160040160006101000a81548173ffffffffffffffffffffffffffffffffffffffff021916908373ffffffffffffffffffffffffffffffffffffffff16021790555060a08201518160040160146101000a81548160ff0219169083151502179055509050503373ffffffffffffffffffffffffffffffffffffffff168573ffffffffffffffffffffffffffffffffffffffff167f10f1b72b2e817956e912bed19a620c275e526fc6088975d0c498d788277facef600254868581518110610e7f577f4e487b7100000000000000000000000000000000000000000000000000000000600052603260045260246000fd5b6020026020010151604051610e9592919061277f565b60405180910390a38080610ea890612b09565b915050610bbe565b505060016000819055505050505050565b60036020528060005260406000206000915090508060000154908060010160009054906101000a900473ffffffffffffffffffffffffffffffffffffffff16908060020154908060030154908060040160009054906101000a900473ffffffffffffffffffffffffffffffffffffffff16908060040160149054906101000a900460ff16905086565b600080600360008481526020019081526020016000206040518060c0016040529081600082015481526020016001820160009054906101000a900473ffffffffffffffffffffffffffffffffffffffff1673ffffffffffffffffffffffffffffffffffffffff1673ffffffffffffffffffffffffffffffffffffffff16815260200160028201548152602001600382015481526020016004820160009054906101000a900473ffffffffffffffffffffffffffffffffffffffff1673ffffffffffffffffffffffffffffffffffffffff1673ffffffffffffffffffffffffffffffffffffffff1681526020016004820160149054906101000a900460ff16151515158152505090506000600360008581526020019081526020016000206000015490506000600360008681526020019081526020016000206002015460647f000000000000000000000000000000000000000000000000000000000000000060646110b591906128a9565b60036000898152602001908152602001600020600201546110d69190612930565b6110e091906128ff565b6110ea919061298a565b9050600080846020015173ffffffffffffffffffffffffffffffffffffffff1663394120c0856040518263ffffffff1660e01b815260040161112c91906126b1565b60206040518083038186803b15801561114457600080fd5b505afa158015611158573d6000803e3d6000fd5b505050506040513d601f19601f8201168201806040525081019061117c91906121d2565b9050600073ffffffffffffffffffffffffffffffffffffffff168173ffffffffffffffffffffffffffffffffffffffff161461123057600360008881526020019081526020016000206002015460647f000000000000000000000000000000000000000000000000000000000000000060646111f891906128a9565b600360008b8152602001908152602001600020600201546112199190612930565b61122391906128ff565b61122d919061298a565b91505b600080866020015173ffffffffffffffffffffffffffffffffffffffff16634567c4ff876040518263ffffffff1660e01b815260040161127091906126b1565b60206040518083038186803b15801561128857600080fd5b505afa15801561129c573d6000803e3d6000fd5b505050506040513d601f19601f820116820180604052508101906112c091906121d2565b9050600073ffffffffffffffffffffffffffffffffffffffff168173ffffffffffffffffffffffffffffffffffffffff161461137457600360008a81526020019081526020016000206002015460647f0000000000000000000000000000000000000000000000000000000000000000606461133c91906128a9565b600360008d81526020019081526020016000206002015461135d9190612930565b61136791906128ff565b611371919061298a565b91505b818486600360008d81526020019081526020016000206002015461139891906128a9565b6113a291906128a9565b6113ac91906128a9565b975050505050505050919050565b60026000541415611400576040517f08c379a00000000000000000000000000000000000000000000000000000000081526004016113f790612691565b60405180910390fd5b600260008190555060008111801561141a57506002548111155b611459576040517f08c379a000000000000000000000000000000000000000000000000000000000815260040161145090612611565b60405180910390fd5b600061146482610f4a565b90506000600360008481526020019081526020016000209050813410156114c0576040517f08c379a00000000000000000000000000000000000000000000000000000000081526004016114b7906125f1565b60405180910390fd5b8060040160009054906101000a900473ffffffffffffffffffffffffffffffffffffffff1673ffffffffffffffffffffffffffffffffffffffff166108fc82600201549081150290604051600060405180830381858888f1935050505015801561152e573d6000803e3d6000fd5b507f000000000000000000000000000000000000000000000000000000000000000073ffffffffffffffffffffffffffffffffffffffff166108fc6115728561061f565b9081150290604051600060405180830381858888f1935050505015801561159d573d6000803e3d6000fd5b506115a783610f4a565b600360008581526020019081526020016000206003018190555060006115cc846103ac565b905060006003600086815260200190815260200160002060010160009054906101000a900473ffffffffffffffffffffffffffffffffffffffff1673ffffffffffffffffffffffffffffffffffffffff1663394120c084600001546040518263ffffffff1660e01b815260040161164391906126b1565b60206040518083038186803b15801561165b57600080fd5b505afa15801561166f573d6000803e3d6000fd5b505050506040513d601f19601f8201168201806040525081019061169391906121d2565b90506000821180156116d25750600073ffffffffffffffffffffffffffffffffffffffff168173ffffffffffffffffffffffffffffffffffffffff1614155b15611727578073ffffffffffffffffffffffffffffffffffffffff166108fc6116fa876103ac565b9081150290604051600060405180830381858888f19350505050158015611725573d6000803e3d6000fd5b505b60008360010160009054906101000a900473ffffffffffffffffffffffffffffffffffffffff1673ffffffffffffffffffffffffffffffffffffffff16634567c4ff85600001546040518263ffffffff1660e01b815260040161178a91906126b1565b60206040518083038186803b1580156117a257600080fd5b505afa1580156117b6573d6000803e3d6000fd5b505050506040513d601f19601f820116820180604052508101906117da91906121d2565b905060006117e787611b2a565b9050600073ffffffffffffffffffffffffffffffffffffffff168273ffffffffffffffffffffffffffffffffffffffff1614156118ca576003600088815260200190815260200160002060010160009054906101000a900473ffffffffffffffffffffffffffffffffffffffff1673ffffffffffffffffffffffffffffffffffffffff1663b192a7968660000154336040518363ffffffff1660e01b81526004016118939291906126cc565b600060405180830381600087803b1580156118ad57600080fd5b505af11580156118c1573d6000803e3d6000fd5b5050505061191c565b600081111561191b578173ffffffffffffffffffffffffffffffffffffffff166108fc829081150290604051600060405180830381858888f19350505050158015611919573d6000803e3d6000fd5b505b5b8460010160009054906101000a900473ffffffffffffffffffffffffffffffffffffffff1673ffffffffffffffffffffffffffffffffffffffff166323b872dd8660040160009054906101000a900473ffffffffffffffffffffffffffffffffffffffff163388600001546040518463ffffffff1660e01b81526004016119a5939291906124ee565b600060405180830381600087803b1580156119bf57600080fd5b505af11580156119d3573d6000803e3d6000fd5b505050503373ffffffffffffffffffffffffffffffffffffffff168560040160009054906101000a900473ffffffffffffffffffffffffffffffffffffffff1673ffffffffffffffffffffffffffffffffffffffff16887f8b4c9c8a607d67b321582dd8461041b1dc2ceeca70c8b7f37f8e02095cf2e76d8860010160009054906101000a900473ffffffffffffffffffffffffffffffffffffffff168960020154611a7e8d610f4a565b604051611a8d9392919061255c565b60405180910390a4336003600089815260200190815260200160002060040160006101000a81548173ffffffffffffffffffffffffffffffffffffffff021916908373ffffffffffffffffffffffffffffffffffffffff16021790555060006003600089815260200190815260200160002060040160146101000a81548160ff021916908315150217905550505050505050600160008190555050565b600080600360008481526020019081526020016000206040518060c0016040529081600082015481526020016001820160009054906101000a900473ffffffffffffffffffffffffffffffffffffffff1673ffffffffffffffffffffffffffffffffffffffff1673ffffffffffffffffffffffffffffffffffffffff16815260200160028201548152602001600382015481526020016004820160009054906101000a900473ffffffffffffffffffffffffffffffffffffffff1673ffffffffffffffffffffffffffffffffffffffff1673ffffffffffffffffffffffffffffffffffffffff1681526020016004820160149054906101000a900460ff1615151515815250509050600060036000858152602001908152602001600020600001549050600080836020015173ffffffffffffffffffffffffffffffffffffffff16634567c4ff846040518263ffffffff1660e01b8152600401611c8d91906126b1565b60206040518083038186803b158015611ca557600080fd5b505afa158015611cb9573d6000803e3d6000fd5b505050506040513d601f19601f82011682018060405250810190611cdd91906121d2565b9050600073ffffffffffffffffffffffffffffffffffffffff168173ffffffffffffffffffffffffffffffffffffffff1614611d9157600360008781526020019081526020016000206002015460647f00000000000000000000000000000000000000000000000000000000000000006064611d5991906128a9565b600360008a815260200190815260200160002060020154611d7a9190612930565b611d8491906128ff565b611d8e919061298a565b91505b81945050505050919050565b60026000541415611de3576040517f08c379a0000000000000000000000000000000000000000000000000000000008152600401611dda90612691565b60405180910390fd5b60026000819055503373ffffffffffffffffffffffffffffffffffffffff166003600084815260200190815260200160002060040160009054906101000a900473ffffffffffffffffffffffffffffffffffffffff1673ffffffffffffffffffffffffffffffffffffffff1614611e8f576040517f08c379a0000000000000000000000000000000000000000000000000000000008152600401611e86906125d1565b60405180910390fd5b60008111611ed2576040517f08c379a0000000000000000000000000000000000000000000000000000000008152600401611ec990612631565b60405180910390fd5b80600360008481526020019081526020016000206002018190555060016003600084815260200190815260200160002060040160146101000a81548160ff0219169083151502179055503373ffffffffffffffffffffffffffffffffffffffff167ff26537a6e5a17eabfee9773407055c5ce0cd8b36ad2f658f5e819a1f556d51508360036000868152602001908152602001600020600001546003600087815260200190815260200160002060020154604051611f92939291906127a8565b60405180910390a260016000819055505050565b6000611fb9611fb484612804565b6127df565b90508083825260208201905082856020860282011115611fd857600080fd5b60005b8581101561202257813567ffffffffffffffff811115611ffa57600080fd5b808601612007898261217e565b85526020850194506020840193505050600181019050611fdb565b5050509392505050565b600061203f61203a84612830565b6127df565b9050808382526020820190508285602086028201111561205e57600080fd5b60005b8581101561208e578161207488826121a8565b845260208401935060208301925050600181019050612061565b5050509392505050565b60006120ab6120a68461285c565b6127df565b9050828152602081018484840111156120c357600080fd5b6120ce848285612a96565b509392505050565b6000815190506120e581612d5b565b92915050565b6000813590506120fa81612d72565b92915050565b600082601f83011261211157600080fd5b8135612121848260208601611fa6565b91505092915050565b600082601f83011261213b57600080fd5b813561214b84826020860161202c565b91505092915050565b60008135905061216381612d89565b92915050565b60008135905061217881612da0565b92915050565b600082601f83011261218f57600080fd5b813561219f848260208601612098565b91505092915050565b6000813590506121b781612db7565b92915050565b6000815190506121cc81612db7565b92915050565b6000602082840312156121e457600080fd5b60006121f2848285016120d6565b91505092915050565b600080600080600060a0868803121561221357600080fd5b600086013567ffffffffffffffff81111561222d57600080fd5b61223988828901612100565b955050602061224a888289016120eb565b945050604061225b88828901612169565b935050606061226c88828901612154565b925050608086013567ffffffffffffffff81111561228957600080fd5b6122958882890161212a565b9150509295509295909350565b6000602082840312156122b457600080fd5b60006122c2848285016121a8565b91505092915050565b6000602082840312156122dd57600080fd5b60006122eb848285016121bd565b91505092915050565b6000806040838503121561230757600080fd5b6000612315858286016121a8565b9250506020612326858286016121a8565b9150509250929050565b61233981612a3c565b82525050565b612348816129d0565b82525050565b612357816129be565b82525050565b612366816129e2565b82525050565b61237581612a4e565b82525050565b60006123868261288d565b6123908185612898565b93506123a0818560208601612aa5565b6123a981612bdf565b840191505092915050565b60006123c1602d83612898565b91506123cc82612bf0565b604082019050919050565b60006123e4603383612898565b91506123ef82612c3f565b604082019050919050565b6000612407601383612898565b915061241282612c8e565b602082019050919050565b600061242a601f83612898565b915061243582612cb7565b602082019050919050565b600061244d601583612898565b915061245882612ce0565b602082019050919050565b6000612470600d83612898565b915061247b82612d09565b602082019050919050565b6000612493601f83612898565b915061249e82612d32565b602082019050919050565b6124b281612a32565b82525050565b60006020820190506124cd600083018461234e565b92915050565b60006020820190506124e8600083018461233f565b92915050565b60006060820190506125036000830186612330565b612510602083018561234e565b61251d60408301846124a9565b949350505050565b600060608201905061253a600083018661234e565b612547602083018561234e565b61255460408301846124a9565b949350505050565b6000606082019050612571600083018661234e565b61257e60208301856124a9565b61258b60408301846124a9565b949350505050565b600060608201905081810360008301526125ad818661237b565b90506125bc602083018561234e565b6125c9604083018461234e565b949350505050565b600060208201905081810360008301526125ea816123b4565b9050919050565b6000602082019050818103600083015261260a816123d7565b9050919050565b6000602082019050818103600083015261262a816123fa565b9050919050565b6000602082019050818103600083015261264a8161241d565b9050919050565b6000602082019050818103600083015261266a81612440565b9050919050565b6000602082019050818103600083015261268a81612463565b9050919050565b600060208201905081810360008301526126aa81612486565b9050919050565b60006020820190506126c660008301846124a9565b92915050565b60006040820190506126e160008301856124a9565b6126ee602083018461234e565b9392505050565b600060408201905061270a60008301856124a9565b6127176020830184612330565b9392505050565b600060c08201905061273360008301896124a9565b612740602083018861236c565b61274d60408301876124a9565b61275a60608301866124a9565b612767608083018561233f565b61277460a083018461235d565b979650505050505050565b600060408201905061279460008301856124a9565b6127a160208301846124a9565b9392505050565b60006060820190506127bd60008301866124a9565b6127ca60208301856124a9565b6127d760408301846124a9565b949350505050565b60006127e96127fa565b90506127f58282612ad8565b919050565b6000604051905090565b600067ffffffffffffffff82111561281f5761281e612bb0565b5b602082029050602081019050919050565b600067ffffffffffffffff82111561284b5761284a612bb0565b5b602082029050602081019050919050565b600067ffffffffffffffff82111561287757612876612bb0565b5b61288082612bdf565b9050602081019050919050565b600081519050919050565b600082825260208201905092915050565b60006128b482612a32565b91506128bf83612a32565b9250827fffffffffffffffffffffffffffffffffffffffffffffffffffffffffffffffff038211156128f4576128f3612b52565b5b828201905092915050565b600061290a82612a32565b915061291583612a32565b92508261292557612924612b81565b5b828204905092915050565b600061293b82612a32565b915061294683612a32565b9250817fffffffffffffffffffffffffffffffffffffffffffffffffffffffffffffffff048311821515161561297f5761297e612b52565b5b828202905092915050565b600061299582612a32565b91506129a083612a32565b9250828210156129b3576129b2612b52565b5b828203905092915050565b60006129c982612a12565b9050919050565b60006129db82612a12565b9050919050565b60008115159050919050565b60006129f9826129be565b9050919050565b6000612a0b826129be565b9050919050565b600073ffffffffffffffffffffffffffffffffffffffff82169050919050565b6000819050919050565b6000612a4782612a72565b9050919050565b6000612a5982612a60565b9050919050565b6000612a6b82612a12565b9050919050565b6000612a7d82612a84565b9050919050565b6000612a8f82612a12565b9050919050565b82818337600083830152505050565b60005b83811015612ac3578082015181840152602081019050612aa8565b83811115612ad2576000848401525b50505050565b612ae182612bdf565b810181811067ffffffffffffffff82111715612b0057612aff612bb0565b5b80604052505050565b6000612b1482612a32565b91507fffffffffffffffffffffffffffffffffffffffffffffffffffffffffffffffff821415612b4757612b46612b52565b5b600182019050919050565b7f4e487b7100000000000000000000000000000000000000000000000000000000600052601160045260246000fd5b7f4e487b7100000000000000000000000000000000000000000000000000000000600052601260045260246000fd5b7f4e487b7100000000000000000000000000000000000000000000000000000000600052604160045260246000fd5b6000601f19601f8301169050919050565b7f796f752063616e277420736574206f6e2073616c65206974656d73206f66206160008201527f6e6f74686572206f776e65727300000000000000000000000000000000000000602082015250565b7f6e6f7420656e6f676820657468657220746f20636f766572206974656d20707260008201527f69636520616e64206d61726b6574206665657300000000000000000000000000602082015250565b7f6974656d20646f65736e27742065786973747300000000000000000000000000600082015250565b7f5072696365206d7573742062652067726561746572207468616e207a65726f00600082015250565b7f596f7520617265206e6f7420746865206f776e65720000000000000000000000600082015250565b7f507269636573206e656564656400000000000000000000000000000000000000600082015250565b7f5265656e7472616e637947756172643a207265656e7472616e742063616c6c00600082015250565b612d64816129be565b8114612d6f57600080fd5b50565b612d7b816129d0565b8114612d8657600080fd5b50565b612d92816129ee565b8114612d9d57600080fd5b50565b612da981612a00565b8114612db457600080fd5b50565b612dc081612a32565b8114612dcb57600080fd5b5056fea2646970667358221220f3f74f213f62c34243edcbc32589d00b4509237b5bdd6427e294130b9d80d8c664736f6c63430008040033",
  "linkReferences": {},
  "deployedLinkReferences": {}
}