{
  "_format": "hh-sol-artifact-1",
  "contractName": "Marketplace",
  "sourceName": "src/solidity/contracts/Marketplace.sol",
  "abi": [
    {
      "inputs": [
        {
          "internalType": "uint256",
          "name": "_feePercent",
          "type": "uint256"
        },
        {
          "internalType": "uint256",
          "name": "_feeCollectionPercent",
          "type": "uint256"
        },
        {
          "internalType": "uint256",
          "name": "_feeRoyaltiesPercent",
          "type": "uint256"
        }
      ],
      "stateMutability": "nonpayable",
      "type": "constructor"
    },
    {
      "anonymous": false,
      "inputs": [
        {
          "indexed": false,
          "internalType": "uint256",
          "name": "itemId",
          "type": "uint256"
        },
        {
          "indexed": true,
          "internalType": "address",
          "name": "nft",
          "type": "address"
        },
        {
          "indexed": false,
          "internalType": "uint256",
          "name": "tokenId",
          "type": "uint256"
        },
        {
          "indexed": false,
          "internalType": "uint256",
          "name": "price",
          "type": "uint256"
        },
        {
          "indexed": true,
          "internalType": "address",
          "name": "seller",
          "type": "address"
        },
        {
          "indexed": true,
          "internalType": "address",
          "name": "buyer",
          "type": "address"
        }
      ],
      "name": "Bought",
      "type": "event"
    },
    {
      "anonymous": false,
      "inputs": [
        {
          "indexed": false,
          "internalType": "uint256",
          "name": "itemId",
          "type": "uint256"
        },
        {
          "indexed": false,
          "internalType": "uint256",
          "name": "tokenId",
          "type": "uint256"
        },
        {
          "indexed": false,
          "internalType": "uint256",
          "name": "price",
          "type": "uint256"
        },
        {
          "indexed": true,
          "internalType": "address",
          "name": "seller",
          "type": "address"
        }
      ],
      "name": "ItemOnSale",
      "type": "event"
    },
    {
      "anonymous": false,
      "inputs": [
        {
          "indexed": false,
          "internalType": "uint256",
          "name": "itemId",
          "type": "uint256"
        },
        {
          "indexed": true,
          "internalType": "address",
          "name": "nft",
          "type": "address"
        },
        {
          "indexed": false,
          "internalType": "uint256",
          "name": "tokenId",
          "type": "uint256"
        },
        {
          "indexed": false,
          "internalType": "uint256",
          "name": "price",
          "type": "uint256"
        },
        {
          "indexed": true,
          "internalType": "address",
          "name": "seller",
          "type": "address"
        }
      ],
      "name": "Offered",
      "type": "event"
    },
    {
      "inputs": [],
      "name": "feeAccount",
      "outputs": [
        {
          "internalType": "address payable",
          "name": "",
          "type": "address"
        }
      ],
      "stateMutability": "view",
      "type": "function"
    },
    {
      "inputs": [],
      "name": "feeCollectionPercent",
      "outputs": [
        {
          "internalType": "uint256",
          "name": "",
          "type": "uint256"
        }
      ],
      "stateMutability": "view",
      "type": "function"
    },
    {
      "inputs": [],
      "name": "feePercent",
      "outputs": [
        {
          "internalType": "uint256",
          "name": "",
          "type": "uint256"
        }
      ],
      "stateMutability": "view",
      "type": "function"
    },
    {
      "inputs": [],
      "name": "feeRoyaltiesPercent",
      "outputs": [
        {
          "internalType": "uint256",
          "name": "",
          "type": "uint256"
        }
      ],
      "stateMutability": "view",
      "type": "function"
    },
    {
      "inputs": [],
      "name": "getContractOwner",
      "outputs": [
        {
          "internalType": "address",
          "name": "",
          "type": "address"
        }
      ],
      "stateMutability": "view",
      "type": "function"
    },
    {
      "inputs": [
        {
          "internalType": "uint256",
          "name": "_itemId",
          "type": "uint256"
        }
      ],
      "name": "getTotalFeeAccount",
      "outputs": [
        {
          "internalType": "uint256",
          "name": "",
          "type": "uint256"
        }
      ],
      "stateMutability": "view",
      "type": "function"
    },
    {
      "inputs": [
        {
          "internalType": "uint256",
          "name": "_itemId",
          "type": "uint256"
        }
      ],
      "name": "getTotalFeeCollection",
      "outputs": [
        {
          "internalType": "uint256",
          "name": "",
          "type": "uint256"
        }
      ],
      "stateMutability": "view",
      "type": "function"
    },
    {
      "inputs": [
        {
          "internalType": "uint256",
          "name": "_itemId",
          "type": "uint256"
        }
      ],
      "name": "getTotalFeeRoyalties",
      "outputs": [
        {
          "internalType": "uint256",
          "name": "",
          "type": "uint256"
        }
      ],
      "stateMutability": "view",
      "type": "function"
    },
    {
      "inputs": [
        {
          "internalType": "uint256",
          "name": "_itemId",
          "type": "uint256"
        }
      ],
      "name": "getTotalPrice",
      "outputs": [
        {
          "internalType": "uint256",
          "name": "",
          "type": "uint256"
        }
      ],
      "stateMutability": "view",
      "type": "function"
    },
    {
      "inputs": [],
      "name": "itemCount",
      "outputs": [
        {
          "internalType": "uint256",
          "name": "",
          "type": "uint256"
        }
      ],
      "stateMutability": "view",
      "type": "function"
    },
    {
      "inputs": [
        {
          "internalType": "uint256",
          "name": "",
          "type": "uint256"
        }
      ],
      "name": "items",
      "outputs": [
        {
          "internalType": "uint256",
          "name": "itemId",
          "type": "uint256"
        },
        {
          "internalType": "contract IERC721Extend",
          "name": "nft",
          "type": "address"
        },
        {
          "internalType": "uint256",
          "name": "tokenId",
          "type": "uint256"
        },
        {
          "internalType": "uint256",
          "name": "price",
          "type": "uint256"
        },
        {
          "internalType": "uint256",
          "name": "latestPrice",
          "type": "uint256"
        },
        {
          "internalType": "address payable",
          "name": "seller",
          "type": "address"
        },
        {
          "internalType": "bool",
          "name": "onSale",
          "type": "bool"
        }
      ],
      "stateMutability": "view",
      "type": "function"
    },
    {
      "inputs": [
        {
          "internalType": "string[]",
          "name": "_tokenURIs",
          "type": "string[]"
        },
        {
          "internalType": "address payable",
          "name": "_collectionOwner",
          "type": "address"
        },
        {
          "internalType": "contract INFT",
          "name": "_nft",
          "type": "address"
        },
        {
          "internalType": "contract IERC721Extend",
          "name": "_erc721",
          "type": "address"
        },
        {
          "internalType": "uint256[]",
          "name": "_prices",
          "type": "uint256[]"
        }
      ],
      "name": "mintAndMakeCollection",
      "outputs": [],
      "stateMutability": "nonpayable",
      "type": "function"
    },
    {
      "inputs": [
        {
          "internalType": "uint256",
          "name": "_itemId",
          "type": "uint256"
        }
      ],
      "name": "purchaseItem",
      "outputs": [],
      "stateMutability": "payable",
      "type": "function"
    },
    {
      "inputs": [
        {
          "internalType": "uint256",
          "name": "_itemId",
          "type": "uint256"
        },
        {
          "internalType": "uint256",
          "name": "_price",
          "type": "uint256"
        }
      ],
      "name": "setItemOnSale",
      "outputs": [],
      "stateMutability": "nonpayable",
      "type": "function"
    }
  ],
  "bytecode": "0x6101006040523480156200001257600080fd5b5060405162003020380380620030208339818101604052810190620000389190620000f0565b600160008190555033600160006101000a81548173ffffffffffffffffffffffffffffffffffffffff021916908373ffffffffffffffffffffffffffffffffffffffff1602179055503373ffffffffffffffffffffffffffffffffffffffff1660808173ffffffffffffffffffffffffffffffffffffffff1660601b815250508260a081815250508160c081815250508060e081815250505050506200016a565b600081519050620000ea8162000150565b92915050565b6000806000606084860312156200010657600080fd5b60006200011686828701620000d9565b93505060206200012986828701620000d9565b92505060406200013c86828701620000d9565b9150509250925092565b6000819050919050565b6200015b8162000146565b81146200016757600080fd5b50565b60805160601c60a05160c05160e051612e41620001df6000396000818161038b015281816113840152611dbd0152600081816105bb015281816107e601526112400152600081816106a0015281816107c201526110fd01526000818161064b0152818161079801526115a40152612e416000f3fe6080604052600436106100dd5760003560e01c80638a14d4e41161007f578063ca7dd37511610059578063ca7dd375146102ca578063d38ea5bf14610307578063e08ce3be14610323578063edc5fec414610360576100dd565b80638a14d4e414610233578063b3cffa021461025e578063bfb231d214610287576100dd565b8063442890d5116100bb578063442890d51461018757806365e17c9d146101b25780636bfb0d01146101dd5780637fd6f15c14610208576100dd565b806327542547146100e2578063354095501461010d5780633939a77d1461014a575b600080fd5b3480156100ee57600080fd5b506100f7610389565b6040516101049190612709565b60405180910390f35b34801561011957600080fd5b50610134600480360381019061012f9190612331565b6103ad565b6040516101419190612709565b60405180910390f35b34801561015657600080fd5b50610171600480360381019061016c9190612331565b61062a565b60405161017e9190612709565b60405180910390f35b34801561019357600080fd5b5061019c61070c565b6040516101a99190612547565b60405180910390f35b3480156101be57600080fd5b506101c7610796565b6040516101d49190612562565b60405180910390f35b3480156101e957600080fd5b506101f26107ba565b6040516101ff9190612709565b60405180910390f35b34801561021457600080fd5b5061021d6107c0565b60405161022a9190612709565b60405180910390f35b34801561023f57600080fd5b506102486107e4565b6040516102559190612709565b60405180910390f35b34801561026a57600080fd5b506102856004803603810190610280919061228a565b610808565b005b34801561029357600080fd5b506102ae60048036038101906102a99190612331565b610f24565b6040516102c19796959493929190612776565b60405180910390f35b3480156102d657600080fd5b506102f160048036038101906102ec9190612331565b610fb3565b6040516102fe9190612709565b60405180910390f35b610321600480360381019061031c9190612331565b61142d565b005b34801561032f57600080fd5b5061034a60048036038101906103459190612331565b611baf565b6040516103579190612709565b60405180910390f35b34801561036c57600080fd5b5061038760048036038101906103829190612383565b611e2c565b005b7f000000000000000000000000000000000000000000000000000000000000000081565b600080600360008481526020019081526020016000206040518060e0016040529081600082015481526020016001820160009054906101000a900473ffffffffffffffffffffffffffffffffffffffff1673ffffffffffffffffffffffffffffffffffffffff1673ffffffffffffffffffffffffffffffffffffffff1681526020016002820154815260200160038201548152602001600482015481526020016005820160009054906101000a900473ffffffffffffffffffffffffffffffffffffffff1673ffffffffffffffffffffffffffffffffffffffff1673ffffffffffffffffffffffffffffffffffffffff1681526020016005820160149054906101000a900460ff1615151515815250509050600060036000858152602001908152602001600020600201549050600080836020015173ffffffffffffffffffffffffffffffffffffffff1663394120c0846040518263ffffffff1660e01b815260040161051a9190612709565b60206040518083038186803b15801561053257600080fd5b505afa158015610546573d6000803e3d6000fd5b505050506040513d601f19601f8201168201806040525081019061056a9190612261565b9050600073ffffffffffffffffffffffffffffffffffffffff168173ffffffffffffffffffffffffffffffffffffffff161461061e57600360008781526020019081526020016000206003015460647f000000000000000000000000000000000000000000000000000000000000000060646105e691906128e6565b600360008a815260200190815260200160002060030154610607919061296d565b610611919061293c565b61061b91906129c7565b91505b81945050505050919050565b60008060009050600073ffffffffffffffffffffffffffffffffffffffff167f000000000000000000000000000000000000000000000000000000000000000073ffffffffffffffffffffffffffffffffffffffff161461070357600360008481526020019081526020016000206003015460647f000000000000000000000000000000000000000000000000000000000000000060646106cb91906128e6565b60036000878152602001908152602001600020600301546106ec919061296d565b6106f6919061293c565b61070091906129c7565b90505b80915050919050565b6000600160009054906101000a900473ffffffffffffffffffffffffffffffffffffffff1673ffffffffffffffffffffffffffffffffffffffff163373ffffffffffffffffffffffffffffffffffffffff16141561078e57600160009054906101000a900473ffffffffffffffffffffffffffffffffffffffff169050610793565b600090505b90565b7f000000000000000000000000000000000000000000000000000000000000000081565b60025481565b7f000000000000000000000000000000000000000000000000000000000000000081565b7f000000000000000000000000000000000000000000000000000000000000000081565b6002600054141561084e576040517f08c379a0000000000000000000000000000000000000000000000000000000008152600401610845906126e9565b60405180910390fd5b6002600081905550600160009054906101000a900473ffffffffffffffffffffffffffffffffffffffff1673ffffffffffffffffffffffffffffffffffffffff163373ffffffffffffffffffffffffffffffffffffffff16146108e6576040517f08c379a00000000000000000000000000000000000000000000000000000000081526004016108dd906126a9565b60405180910390fd5b60005b815181101561098857600082828151811061092d577f4e487b7100000000000000000000000000000000000000000000000000000000600052603260045260246000fd5b602002602001015111610975576040517f08c379a000000000000000000000000000000000000000000000000000000000815260040161096c90612689565b60405180910390fd5b808061098090612b46565b9150506108e9565b5060008151116109cd576040517f08c379a00000000000000000000000000000000000000000000000000000000081526004016109c4906126c9565b60405180910390fd5b6000805b8651811015610ae0578473ffffffffffffffffffffffffffffffffffffffff16637e6d945e888381518110610a2f577f4e487b7100000000000000000000000000000000000000000000000000000000600052603260045260246000fd5b602002602001015130600160009054906101000a900473ffffffffffffffffffffffffffffffffffffffff166040518463ffffffff1660e01b8152600401610a79939291906125eb565b602060405180830381600087803b158015610a9357600080fd5b505af1158015610aa7573d6000803e3d6000fd5b505050506040513d601f19601f82011682018060405250810190610acb919061235a565b91508080610ad890612b46565b9150506109d1565b50600073ffffffffffffffffffffffffffffffffffffffff168573ffffffffffffffffffffffffffffffffffffffff1614610bc65760005b8651811015610bc4578373ffffffffffffffffffffffffffffffffffffffff1663020cb1d36001838a5186610b4d91906129c7565b610b5791906128e6565b610b6191906128e6565b886040518363ffffffff1660e01b8152600401610b7f92919061274d565b600060405180830381600087803b158015610b9957600080fd5b505af1158015610bad573d6000803e3d6000fd5b505050508080610bbc90612b46565b915050610b18565b505b60005b8251811015610f135760026000815480929190610be590612b46565b91905055508373ffffffffffffffffffffffffffffffffffffffff166323b872dd3033600185885188610c1891906129c7565b610c2291906128e6565b610c2c91906128e6565b6040518463ffffffff1660e01b8152600401610c4a939291906125b4565b600060405180830381600087803b158015610c6457600080fd5b505af1158015610c78573d6000803e3d6000fd5b505050506040518060e0016040528060025481526020018573ffffffffffffffffffffffffffffffffffffffff168152602001600183865186610cbb91906129c7565b610cc591906128e6565b610ccf91906128e6565b8152602001848381518110610d0d577f4e487b7100000000000000000000000000000000000000000000000000000000600052603260045260246000fd5b60200260200101518152602001600081526020013373ffffffffffffffffffffffffffffffffffffffff168152602001600115158152506003600060025481526020019081526020016000206000820151816000015560208201518160010160006101000a81548173ffffffffffffffffffffffffffffffffffffffff021916908373ffffffffffffffffffffffffffffffffffffffff16021790555060408201518160020155606082015181600301556080820151816004015560a08201518160050160006101000a81548173ffffffffffffffffffffffffffffffffffffffff021916908373ffffffffffffffffffffffffffffffffffffffff16021790555060c08201518160050160146101000a81548160ff0219169083151502179055509050503373ffffffffffffffffffffffffffffffffffffffff168573ffffffffffffffffffffffffffffffffffffffff167f655a0cf9c8db81512be9a76dc1c5ae5380b8816ce6ad659cd61b715e2999d59a600254600185885188610e9491906129c7565b610e9e91906128e6565b610ea891906128e6565b878681518110610ee1577f4e487b7100000000000000000000000000000000000000000000000000000000600052603260045260246000fd5b6020026020010151604051610ef8939291906127e5565b60405180910390a38080610f0b90612b46565b915050610bc9565b505060016000819055505050505050565b60036020528060005260406000206000915090508060000154908060010160009054906101000a900473ffffffffffffffffffffffffffffffffffffffff16908060020154908060030154908060040154908060050160009054906101000a900473ffffffffffffffffffffffffffffffffffffffff16908060050160149054906101000a900460ff16905087565b600080600360008481526020019081526020016000206040518060e0016040529081600082015481526020016001820160009054906101000a900473ffffffffffffffffffffffffffffffffffffffff1673ffffffffffffffffffffffffffffffffffffffff1673ffffffffffffffffffffffffffffffffffffffff1681526020016002820154815260200160038201548152602001600482015481526020016005820160009054906101000a900473ffffffffffffffffffffffffffffffffffffffff1673ffffffffffffffffffffffffffffffffffffffff1673ffffffffffffffffffffffffffffffffffffffff1681526020016005820160149054906101000a900460ff16151515158152505090506000600360008581526020019081526020016000206002015490506000600360008681526020019081526020016000206003015460647f0000000000000000000000000000000000000000000000000000000000000000606461112891906128e6565b6003600089815260200190815260200160002060030154611149919061296d565b611153919061293c565b61115d91906129c7565b9050600080846020015173ffffffffffffffffffffffffffffffffffffffff1663394120c0856040518263ffffffff1660e01b815260040161119f9190612709565b60206040518083038186803b1580156111b757600080fd5b505afa1580156111cb573d6000803e3d6000fd5b505050506040513d601f19601f820116820180604052508101906111ef9190612261565b9050600073ffffffffffffffffffffffffffffffffffffffff168173ffffffffffffffffffffffffffffffffffffffff16146112a357600360008881526020019081526020016000206003015460647f0000000000000000000000000000000000000000000000000000000000000000606461126b91906128e6565b600360008b81526020019081526020016000206003015461128c919061296d565b611296919061293c565b6112a091906129c7565b91505b600080866020015173ffffffffffffffffffffffffffffffffffffffff16634567c4ff876040518263ffffffff1660e01b81526004016112e39190612709565b60206040518083038186803b1580156112fb57600080fd5b505afa15801561130f573d6000803e3d6000fd5b505050506040513d601f19601f820116820180604052508101906113339190612261565b9050600073ffffffffffffffffffffffffffffffffffffffff168173ffffffffffffffffffffffffffffffffffffffff16146113e757600360008a81526020019081526020016000206003015460647f000000000000000000000000000000000000000000000000000000000000000060646113af91906128e6565b600360008d8152602001908152602001600020600301546113d0919061296d565b6113da919061293c565b6113e491906129c7565b91505b818486600360008d81526020019081526020016000206003015461140b91906128e6565b61141591906128e6565b61141f91906128e6565b975050505050505050919050565b60026000541415611473576040517f08c379a000000000000000000000000000000000000000000000000000000000815260040161146a906126e9565b60405180910390fd5b600260008190555060008111801561148d57506002548111155b6114cc576040517f08c379a00000000000000000000000000000000000000000000000000000000081526004016114c390612669565b60405180910390fd5b60006114d782610fb3565b9050600060036000848152602001908152602001600020905081341015611533576040517f08c379a000000000000000000000000000000000000000000000000000000000815260040161152a90612649565b60405180910390fd5b8060050160009054906101000a900473ffffffffffffffffffffffffffffffffffffffff1673ffffffffffffffffffffffffffffffffffffffff166108fc82600301549081150290604051600060405180830381858888f193505050501580156115a1573d6000803e3d6000fd5b507f000000000000000000000000000000000000000000000000000000000000000073ffffffffffffffffffffffffffffffffffffffff166108fc6115e58561062a565b9081150290604051600060405180830381858888f19350505050158015611610573d6000803e3d6000fd5b5061161a83610fb3565b6003600085815260200190815260200160002060040181905550600061163f846103ad565b905060006003600086815260200190815260200160002060010160009054906101000a900473ffffffffffffffffffffffffffffffffffffffff1673ffffffffffffffffffffffffffffffffffffffff1663394120c084600201546040518263ffffffff1660e01b81526004016116b69190612709565b60206040518083038186803b1580156116ce57600080fd5b505afa1580156116e2573d6000803e3d6000fd5b505050506040513d601f19601f820116820180604052508101906117069190612261565b90506000821180156117455750600073ffffffffffffffffffffffffffffffffffffffff168173ffffffffffffffffffffffffffffffffffffffff1614155b1561179a578073ffffffffffffffffffffffffffffffffffffffff166108fc61176d876103ad565b9081150290604051600060405180830381858888f19350505050158015611798573d6000803e3d6000fd5b505b60008360010160009054906101000a900473ffffffffffffffffffffffffffffffffffffffff1673ffffffffffffffffffffffffffffffffffffffff16634567c4ff85600201546040518263ffffffff1660e01b81526004016117fd9190612709565b60206040518083038186803b15801561181557600080fd5b505afa158015611829573d6000803e3d6000fd5b505050506040513d601f19601f8201168201806040525081019061184d9190612261565b9050600061185a87611baf565b9050600073ffffffffffffffffffffffffffffffffffffffff168273ffffffffffffffffffffffffffffffffffffffff16141561193d576003600088815260200190815260200160002060010160009054906101000a900473ffffffffffffffffffffffffffffffffffffffff1673ffffffffffffffffffffffffffffffffffffffff1663b192a7968660020154336040518363ffffffff1660e01b8152600401611906929190612724565b600060405180830381600087803b15801561192057600080fd5b505af1158015611934573d6000803e3d6000fd5b5050505061198f565b600081111561198e578173ffffffffffffffffffffffffffffffffffffffff166108fc829081150290604051600060405180830381858888f1935050505015801561198c573d6000803e3d6000fd5b505b5b8460010160009054906101000a900473ffffffffffffffffffffffffffffffffffffffff1673ffffffffffffffffffffffffffffffffffffffff166323b872dd8660050160009054906101000a900473ffffffffffffffffffffffffffffffffffffffff163388600201546040518463ffffffff1660e01b8152600401611a189392919061257d565b600060405180830381600087803b158015611a3257600080fd5b505af1158015611a46573d6000803e3d6000fd5b505050503373ffffffffffffffffffffffffffffffffffffffff168560050160009054906101000a900473ffffffffffffffffffffffffffffffffffffffff1673ffffffffffffffffffffffffffffffffffffffff168660010160009054906101000a900473ffffffffffffffffffffffffffffffffffffffff1673ffffffffffffffffffffffffffffffffffffffff167f8b4c9c8a607d67b321582dd8461041b1dc2ceeca70c8b7f37f8e02095cf2e76d8a89600201548a60030154604051611b12939291906127e5565b60405180910390a4336003600089815260200190815260200160002060050160006101000a81548173ffffffffffffffffffffffffffffffffffffffff021916908373ffffffffffffffffffffffffffffffffffffffff16021790555060006003600089815260200190815260200160002060050160146101000a81548160ff021916908315150217905550505050505050600160008190555050565b600080600360008481526020019081526020016000206040518060e0016040529081600082015481526020016001820160009054906101000a900473ffffffffffffffffffffffffffffffffffffffff1673ffffffffffffffffffffffffffffffffffffffff1673ffffffffffffffffffffffffffffffffffffffff1681526020016002820154815260200160038201548152602001600482015481526020016005820160009054906101000a900473ffffffffffffffffffffffffffffffffffffffff1673ffffffffffffffffffffffffffffffffffffffff1673ffffffffffffffffffffffffffffffffffffffff1681526020016005820160149054906101000a900460ff1615151515815250509050600060036000858152602001908152602001600020600201549050600080836020015173ffffffffffffffffffffffffffffffffffffffff16634567c4ff846040518263ffffffff1660e01b8152600401611d1c9190612709565b60206040518083038186803b158015611d3457600080fd5b505afa158015611d48573d6000803e3d6000fd5b505050506040513d601f19601f82011682018060405250810190611d6c9190612261565b9050600073ffffffffffffffffffffffffffffffffffffffff168173ffffffffffffffffffffffffffffffffffffffff1614611e2057600360008781526020019081526020016000206003015460647f00000000000000000000000000000000000000000000000000000000000000006064611de891906128e6565b600360008a815260200190815260200160002060030154611e09919061296d565b611e13919061293c565b611e1d91906129c7565b91505b81945050505050919050565b60026000541415611e72576040517f08c379a0000000000000000000000000000000000000000000000000000000008152600401611e69906126e9565b60405180910390fd5b60026000819055503373ffffffffffffffffffffffffffffffffffffffff166003600084815260200190815260200160002060050160009054906101000a900473ffffffffffffffffffffffffffffffffffffffff1673ffffffffffffffffffffffffffffffffffffffff1614611f1e576040517f08c379a0000000000000000000000000000000000000000000000000000000008152600401611f1590612629565b60405180910390fd5b60008111611f61576040517f08c379a0000000000000000000000000000000000000000000000000000000008152600401611f5890612689565b60405180910390fd5b80600360008481526020019081526020016000206003018190555060016003600084815260200190815260200160002060050160146101000a81548160ff0219169083151502179055503373ffffffffffffffffffffffffffffffffffffffff167ff26537a6e5a17eabfee9773407055c5ce0cd8b36ad2f658f5e819a1f556d51508360036000868152602001908152602001600020600201546003600087815260200190815260200160002060030154604051612021939291906127e5565b60405180910390a260016000819055505050565b600061204861204384612841565b61281c565b9050808382526020820190508285602086028201111561206757600080fd5b60005b858110156120b157813567ffffffffffffffff81111561208957600080fd5b808601612096898261220d565b8552602085019450602084019350505060018101905061206a565b5050509392505050565b60006120ce6120c98461286d565b61281c565b905080838252602082019050828560208602820111156120ed57600080fd5b60005b8581101561211d57816121038882612237565b8452602084019350602083019250506001810190506120f0565b5050509392505050565b600061213a61213584612899565b61281c565b90508281526020810184848401111561215257600080fd5b61215d848285612ad3565b509392505050565b60008151905061217481612d98565b92915050565b60008135905061218981612daf565b92915050565b600082601f8301126121a057600080fd5b81356121b0848260208601612035565b91505092915050565b600082601f8301126121ca57600080fd5b81356121da8482602086016120bb565b91505092915050565b6000813590506121f281612dc6565b92915050565b60008135905061220781612ddd565b92915050565b600082601f83011261221e57600080fd5b813561222e848260208601612127565b91505092915050565b60008135905061224681612df4565b92915050565b60008151905061225b81612df4565b92915050565b60006020828403121561227357600080fd5b600061228184828501612165565b91505092915050565b600080600080600060a086880312156122a257600080fd5b600086013567ffffffffffffffff8111156122bc57600080fd5b6122c88882890161218f565b95505060206122d98882890161217a565b94505060406122ea888289016121f8565b93505060606122fb888289016121e3565b925050608086013567ffffffffffffffff81111561231857600080fd5b612324888289016121b9565b9150509295509295909350565b60006020828403121561234357600080fd5b600061235184828501612237565b91505092915050565b60006020828403121561236c57600080fd5b600061237a8482850161224c565b91505092915050565b6000806040838503121561239657600080fd5b60006123a485828601612237565b92505060206123b585828601612237565b9150509250929050565b6123c881612a79565b82525050565b6123d781612a0d565b82525050565b6123e6816129fb565b82525050565b6123f581612a1f565b82525050565b61240481612a8b565b82525050565b6000612415826128ca565b61241f81856128d5565b935061242f818560208601612ae2565b61243881612c1c565b840191505092915050565b6000612450602d836128d5565b915061245b82612c2d565b604082019050919050565b60006124736033836128d5565b915061247e82612c7c565b604082019050919050565b60006124966013836128d5565b91506124a182612ccb565b602082019050919050565b60006124b9601f836128d5565b91506124c482612cf4565b602082019050919050565b60006124dc6015836128d5565b91506124e782612d1d565b602082019050919050565b60006124ff600d836128d5565b915061250a82612d46565b602082019050919050565b6000612522601f836128d5565b915061252d82612d6f565b602082019050919050565b61254181612a6f565b82525050565b600060208201905061255c60008301846123dd565b92915050565b600060208201905061257760008301846123ce565b92915050565b600060608201905061259260008301866123bf565b61259f60208301856123dd565b6125ac6040830184612538565b949350505050565b60006060820190506125c960008301866123dd565b6125d660208301856123dd565b6125e36040830184612538565b949350505050565b60006060820190508181036000830152612605818661240a565b905061261460208301856123dd565b61262160408301846123dd565b949350505050565b6000602082019050818103600083015261264281612443565b9050919050565b6000602082019050818103600083015261266281612466565b9050919050565b6000602082019050818103600083015261268281612489565b9050919050565b600060208201905081810360008301526126a2816124ac565b9050919050565b600060208201905081810360008301526126c2816124cf565b9050919050565b600060208201905081810360008301526126e2816124f2565b9050919050565b6000602082019050818103600083015261270281612515565b9050919050565b600060208201905061271e6000830184612538565b92915050565b60006040820190506127396000830185612538565b61274660208301846123dd565b9392505050565b60006040820190506127626000830185612538565b61276f60208301846123bf565b9392505050565b600060e08201905061278b600083018a612538565b61279860208301896123fb565b6127a56040830188612538565b6127b26060830187612538565b6127bf6080830186612538565b6127cc60a08301856123ce565b6127d960c08301846123ec565b98975050505050505050565b60006060820190506127fa6000830186612538565b6128076020830185612538565b6128146040830184612538565b949350505050565b6000612826612837565b90506128328282612b15565b919050565b6000604051905090565b600067ffffffffffffffff82111561285c5761285b612bed565b5b602082029050602081019050919050565b600067ffffffffffffffff82111561288857612887612bed565b5b602082029050602081019050919050565b600067ffffffffffffffff8211156128b4576128b3612bed565b5b6128bd82612c1c565b9050602081019050919050565b600081519050919050565b600082825260208201905092915050565b60006128f182612a6f565b91506128fc83612a6f565b9250827fffffffffffffffffffffffffffffffffffffffffffffffffffffffffffffffff0382111561293157612930612b8f565b5b828201905092915050565b600061294782612a6f565b915061295283612a6f565b92508261296257612961612bbe565b5b828204905092915050565b600061297882612a6f565b915061298383612a6f565b9250817fffffffffffffffffffffffffffffffffffffffffffffffffffffffffffffffff04831182151516156129bc576129bb612b8f565b5b828202905092915050565b60006129d282612a6f565b91506129dd83612a6f565b9250828210156129f0576129ef612b8f565b5b828203905092915050565b6000612a0682612a4f565b9050919050565b6000612a1882612a4f565b9050919050565b60008115159050919050565b6000612a36826129fb565b9050919050565b6000612a48826129fb565b9050919050565b600073ffffffffffffffffffffffffffffffffffffffff82169050919050565b6000819050919050565b6000612a8482612aaf565b9050919050565b6000612a9682612a9d565b9050919050565b6000612aa882612a4f565b9050919050565b6000612aba82612ac1565b9050919050565b6000612acc82612a4f565b9050919050565b82818337600083830152505050565b60005b83811015612b00578082015181840152602081019050612ae5565b83811115612b0f576000848401525b50505050565b612b1e82612c1c565b810181811067ffffffffffffffff82111715612b3d57612b3c612bed565b5b80604052505050565b6000612b5182612a6f565b91507fffffffffffffffffffffffffffffffffffffffffffffffffffffffffffffffff821415612b8457612b83612b8f565b5b600182019050919050565b7f4e487b7100000000000000000000000000000000000000000000000000000000600052601160045260246000fd5b7f4e487b7100000000000000000000000000000000000000000000000000000000600052601260045260246000fd5b7f4e487b7100000000000000000000000000000000000000000000000000000000600052604160045260246000fd5b6000601f19601f8301169050919050565b7f796f752063616e277420736574206f6e2073616c65206974656d73206f66206160008201527f6e6f74686572206f776e65727300000000000000000000000000000000000000602082015250565b7f6e6f7420656e6f676820657468657220746f20636f766572206974656d20707260008201527f69636520616e64206d61726b6574206665657300000000000000000000000000602082015250565b7f6974656d20646f65736e27742065786973747300000000000000000000000000600082015250565b7f5072696365206d7573742062652067726561746572207468616e207a65726f00600082015250565b7f596f7520617265206e6f7420746865206f776e65720000000000000000000000600082015250565b7f507269636573206e656564656400000000000000000000000000000000000000600082015250565b7f5265656e7472616e637947756172643a207265656e7472616e742063616c6c00600082015250565b612da1816129fb565b8114612dac57600080fd5b50565b612db881612a0d565b8114612dc357600080fd5b50565b612dcf81612a2b565b8114612dda57600080fd5b50565b612de681612a3d565b8114612df157600080fd5b50565b612dfd81612a6f565b8114612e0857600080fd5b5056fea2646970667358221220072fc60788b93e7ad5e4c586798a33797cf7d8083cd9624b0d7f062d5e48f83564736f6c63430008040033",
  "linkReferences": {},
  "deployedLinkReferences": {}
}