{
  "_format": "hh-sol-artifact-1",
  "contractName": "NFT",
  "sourceName": "src/solidity/contracts/NFT.sol",
  "abi": [
    {
      "inputs": [],
      "stateMutability": "nonpayable",
      "type": "constructor"
    },
    {
      "anonymous": false,
      "inputs": [
        {
          "indexed": true,
          "internalType": "address",
          "name": "owner",
          "type": "address"
        },
        {
          "indexed": true,
          "internalType": "address",
          "name": "approved",
          "type": "address"
        },
        {
          "indexed": true,
          "internalType": "uint256",
          "name": "tokenId",
          "type": "uint256"
        }
      ],
      "name": "Approval",
      "type": "event"
    },
    {
      "anonymous": false,
      "inputs": [
        {
          "indexed": true,
          "internalType": "address",
          "name": "owner",
          "type": "address"
        },
        {
          "indexed": true,
          "internalType": "address",
          "name": "operator",
          "type": "address"
        },
        {
          "indexed": false,
          "internalType": "bool",
          "name": "approved",
          "type": "bool"
        }
      ],
      "name": "ApprovalForAll",
      "type": "event"
    },
    {
      "anonymous": false,
      "inputs": [
        {
          "indexed": true,
          "internalType": "address",
          "name": "from",
          "type": "address"
        },
        {
          "indexed": true,
          "internalType": "address",
          "name": "to",
          "type": "address"
        },
        {
          "indexed": true,
          "internalType": "uint256",
          "name": "tokenId",
          "type": "uint256"
        }
      ],
      "name": "Transfer",
      "type": "event"
    },
    {
      "inputs": [
        {
          "internalType": "address",
          "name": "to",
          "type": "address"
        },
        {
          "internalType": "uint256",
          "name": "tokenId",
          "type": "uint256"
        }
      ],
      "name": "approve",
      "outputs": [],
      "stateMutability": "nonpayable",
      "type": "function"
    },
    {
      "inputs": [
        {
          "internalType": "address",
          "name": "owner",
          "type": "address"
        }
      ],
      "name": "balanceOf",
      "outputs": [
        {
          "internalType": "uint256",
          "name": "",
          "type": "uint256"
        }
      ],
      "stateMutability": "view",
      "type": "function"
    },
    {
      "inputs": [
        {
          "internalType": "uint256",
          "name": "tokenId",
          "type": "uint256"
        }
      ],
      "name": "getApproved",
      "outputs": [
        {
          "internalType": "address",
          "name": "",
          "type": "address"
        }
      ],
      "stateMutability": "view",
      "type": "function"
    },
    {
      "inputs": [
        {
          "internalType": "uint256",
          "name": "_tokenId",
          "type": "uint256"
        }
      ],
      "name": "getCollectionOwner",
      "outputs": [
        {
          "internalType": "address",
          "name": "",
          "type": "address"
        }
      ],
      "stateMutability": "view",
      "type": "function"
    },
    {
      "inputs": [
        {
          "internalType": "uint256",
          "name": "_tokenId",
          "type": "uint256"
        }
      ],
      "name": "getRoyaltiesBeneficiary",
      "outputs": [
        {
          "internalType": "address",
          "name": "",
          "type": "address"
        }
      ],
      "stateMutability": "view",
      "type": "function"
    },
    {
      "inputs": [
        {
          "internalType": "address",
          "name": "owner",
          "type": "address"
        },
        {
          "internalType": "address",
          "name": "operator",
          "type": "address"
        }
      ],
      "name": "isApprovedForAll",
      "outputs": [
        {
          "internalType": "bool",
          "name": "",
          "type": "bool"
        }
      ],
      "stateMutability": "view",
      "type": "function"
    },
    {
      "inputs": [
        {
          "internalType": "string",
          "name": "_tokenURI",
          "type": "string"
        },
        {
          "internalType": "address",
          "name": "from",
          "type": "address"
        },
        {
          "internalType": "address",
          "name": "minter",
          "type": "address"
        }
      ],
      "name": "mint",
      "outputs": [
        {
          "internalType": "uint256",
          "name": "",
          "type": "uint256"
        }
      ],
      "stateMutability": "nonpayable",
      "type": "function"
    },
    {
      "inputs": [],
      "name": "name",
      "outputs": [
        {
          "internalType": "string",
          "name": "",
          "type": "string"
        }
      ],
      "stateMutability": "view",
      "type": "function"
    },
    {
      "inputs": [
        {
          "internalType": "uint256",
          "name": "tokenId",
          "type": "uint256"
        }
      ],
      "name": "ownerOf",
      "outputs": [
        {
          "internalType": "address",
          "name": "",
          "type": "address"
        }
      ],
      "stateMutability": "view",
      "type": "function"
    },
    {
      "inputs": [
        {
          "internalType": "address",
          "name": "from",
          "type": "address"
        },
        {
          "internalType": "address",
          "name": "to",
          "type": "address"
        },
        {
          "internalType": "uint256",
          "name": "tokenId",
          "type": "uint256"
        }
      ],
      "name": "safeTransferFrom",
      "outputs": [],
      "stateMutability": "nonpayable",
      "type": "function"
    },
    {
      "inputs": [
        {
          "internalType": "address",
          "name": "from",
          "type": "address"
        },
        {
          "internalType": "address",
          "name": "to",
          "type": "address"
        },
        {
          "internalType": "uint256",
          "name": "tokenId",
          "type": "uint256"
        },
        {
          "internalType": "bytes",
          "name": "_data",
          "type": "bytes"
        }
      ],
      "name": "safeTransferFrom",
      "outputs": [],
      "stateMutability": "nonpayable",
      "type": "function"
    },
    {
      "inputs": [
        {
          "internalType": "address",
          "name": "operator",
          "type": "address"
        },
        {
          "internalType": "bool",
          "name": "approved",
          "type": "bool"
        }
      ],
      "name": "setApprovalForAll",
      "outputs": [],
      "stateMutability": "nonpayable",
      "type": "function"
    },
    {
      "inputs": [
        {
          "internalType": "uint256",
          "name": "_tokenId",
          "type": "uint256"
        },
        {
          "internalType": "address",
          "name": "_collectionOwner",
          "type": "address"
        }
      ],
      "name": "setCollectionOwner",
      "outputs": [],
      "stateMutability": "nonpayable",
      "type": "function"
    },
    {
      "inputs": [
        {
          "internalType": "uint256",
          "name": "_tokenId",
          "type": "uint256"
        },
        {
          "internalType": "address",
          "name": "to",
          "type": "address"
        }
      ],
      "name": "setRoyaltiesBeneficiary",
      "outputs": [],
      "stateMutability": "nonpayable",
      "type": "function"
    },
    {
      "inputs": [
        {
          "internalType": "bytes4",
          "name": "interfaceId",
          "type": "bytes4"
        }
      ],
      "name": "supportsInterface",
      "outputs": [
        {
          "internalType": "bool",
          "name": "",
          "type": "bool"
        }
      ],
      "stateMutability": "view",
      "type": "function"
    },
    {
      "inputs": [],
      "name": "symbol",
      "outputs": [
        {
          "internalType": "string",
          "name": "",
          "type": "string"
        }
      ],
      "stateMutability": "view",
      "type": "function"
    },
    {
      "inputs": [],
      "name": "tokenCount",
      "outputs": [
        {
          "internalType": "uint256",
          "name": "",
          "type": "uint256"
        }
      ],
      "stateMutability": "view",
      "type": "function"
    },
    {
      "inputs": [
        {
          "internalType": "uint256",
          "name": "tokenId",
          "type": "uint256"
        }
      ],
      "name": "tokenURI",
      "outputs": [
        {
          "internalType": "string",
          "name": "",
          "type": "string"
        }
      ],
      "stateMutability": "view",
      "type": "function"
    },
    {
      "inputs": [
        {
          "internalType": "address",
          "name": "from",
          "type": "address"
        },
        {
          "internalType": "address",
          "name": "to",
          "type": "address"
        },
        {
          "internalType": "uint256",
          "name": "tokenId",
          "type": "uint256"
        }
      ],
      "name": "transferFrom",
      "outputs": [],
      "stateMutability": "nonpayable",
      "type": "function"
    }
  ],
  "bytecode": "0x60806040523480156200001157600080fd5b506040518060400160405280600881526020017f44417070204e46540000000000000000000000000000000000000000000000008152506040518060400160405280600481526020017f4441505000000000000000000000000000000000000000000000000000000000815250816000908051906020019062000096929190620000f9565b508060019080519060200190620000af929190620000f9565b50505033600a60006101000a81548173ffffffffffffffffffffffffffffffffffffffff021916908373ffffffffffffffffffffffffffffffffffffffff1602179055506200020e565b8280546200010790620001a9565b90600052602060002090601f0160209004810192826200012b576000855562000177565b82601f106200014657805160ff191683800117855562000177565b8280016001018555821562000177579182015b828111156200017657825182559160200191906001019062000159565b5b5090506200018691906200018a565b5090565b5b80821115620001a55760008160009055506001016200018b565b5090565b60006002820490506001821680620001c257607f821691505b60208210811415620001d957620001d8620001df565b5b50919050565b7f4e487b7100000000000000000000000000000000000000000000000000000000600052602260045260246000fd5b613125806200021e6000396000f3fe608060405234801561001057600080fd5b50600436106101215760003560e01c80636352211e116100ad578063a22cb46511610071578063a22cb46514610340578063b192a7961461035c578063b88d4fde14610378578063c87b56dd14610394578063e985e9c5146103c457610121565b80636352211e1461027457806370a08231146102a45780637e6d945e146102d457806395d89b41146103045780639f181b5e1461032257610121565b8063095ea7b3116100f4578063095ea7b3146101c057806323b872dd146101dc578063394120c0146101f857806342842e0e146102285780634567c4ff1461024457610121565b806301ffc9a714610126578063020cb1d31461015657806306fdde0314610172578063081812fc14610190575b600080fd5b610140600480360381019061013b9190611f9f565b6103f4565b60405161014d91906124b1565b60405180910390f35b610170600480360381019061016b9190612081565b6104d6565b005b61017a6105ce565b60405161018791906124cc565b60405180910390f35b6101aa60048036038101906101a59190612058565b610660565b6040516101b7919061244a565b60405180910390f35b6101da60048036038101906101d59190611f63565b6106e5565b005b6101f660048036038101906101f19190611e5d565b6107fd565b005b610212600480360381019061020d9190612058565b61080d565b60405161021f919061244a565b60405180910390f35b610242600480360381019061023d9190611e5d565b61084a565b005b61025e60048036038101906102599190612058565b61086a565b60405161026b919061244a565b60405180910390f35b61028e60048036038101906102899190612058565b6108a7565b60405161029b919061244a565b60405180910390f35b6102be60048036038101906102b99190611df8565b610959565b6040516102cb919061274e565b60405180910390f35b6102ee60048036038101906102e99190611ff1565b610a11565b6040516102fb919061274e565b60405180910390f35b61030c610adf565b60405161031991906124cc565b60405180910390f35b61032a610b71565b604051610337919061274e565b60405180910390f35b61035a60048036038101906103559190611f27565b610b77565b005b61037660048036038101906103719190612081565b610b8d565b005b610392600480360381019061038d9190611eac565b610c85565b005b6103ae60048036038101906103a99190612058565b610ce7565b6040516103bb91906124cc565b60405180910390f35b6103de60048036038101906103d99190611e21565b610e39565b6040516103eb91906124b1565b60405180910390f35b60007f80ac58cd000000000000000000000000000000000000000000000000000000007bffffffffffffffffffffffffffffffffffffffffffffffffffffffff1916827bffffffffffffffffffffffffffffffffffffffffffffffffffffffff191614806104bf57507f5b5e139f000000000000000000000000000000000000000000000000000000007bffffffffffffffffffffffffffffffffffffffffffffffffffffffff1916827bffffffffffffffffffffffffffffffffffffffffffffffffffffffff1916145b806104cf57506104ce82610ecd565b5b9050919050565b600073ffffffffffffffffffffffffffffffffffffffff166007600084815260200190815260200160002060009054906101000a900473ffffffffffffffffffffffffffffffffffffffff1673ffffffffffffffffffffffffffffffffffffffff1614610578576040517f08c379a000000000000000000000000000000000000000000000000000000000815260040161056f906126ee565b60405180910390fd5b806006600084815260200190815260200160002060006101000a81548173ffffffffffffffffffffffffffffffffffffffff021916908373ffffffffffffffffffffffffffffffffffffffff1602179055505050565b6060600080546105dd906129a4565b80601f0160208091040260200160405190810160405280929190818152602001828054610609906129a4565b80156106565780601f1061062b57610100808354040283529160200191610656565b820191906000526020600020905b81548152906001019060200180831161063957829003601f168201915b5050505050905090565b600061066b82610f37565b6106aa576040517f08c379a00000000000000000000000000000000000000000000000000000000081526004016106a19061266e565b60405180910390fd5b6004600083815260200190815260200160002060009054906101000a900473ffffffffffffffffffffffffffffffffffffffff169050919050565b60006106f0826108a7565b90508073ffffffffffffffffffffffffffffffffffffffff168373ffffffffffffffffffffffffffffffffffffffff161415610761576040517f08c379a0000000000000000000000000000000000000000000000000000000008152600401610758906126ce565b60405180910390fd5b8073ffffffffffffffffffffffffffffffffffffffff16610780610fa3565b73ffffffffffffffffffffffffffffffffffffffff1614806107af57506107ae816107a9610fa3565b610e39565b5b6107ee576040517f08c379a00000000000000000000000000000000000000000000000000000000081526004016107e5906125ae565b60405180910390fd5b6107f88383610fab565b505050565b610808838383611064565b505050565b60006006600083815260200190815260200160002060009054906101000a900473ffffffffffffffffffffffffffffffffffffffff169050919050565b61086583838360405180602001604052806000815250610c85565b505050565b60006007600083815260200190815260200160002060009054906101000a900473ffffffffffffffffffffffffffffffffffffffff169050919050565b6000806002600084815260200190815260200160002060009054906101000a900473ffffffffffffffffffffffffffffffffffffffff169050600073ffffffffffffffffffffffffffffffffffffffff168173ffffffffffffffffffffffffffffffffffffffff161415610950576040517f08c379a0000000000000000000000000000000000000000000000000000000008152600401610947906125ee565b60405180910390fd5b80915050919050565b60008073ffffffffffffffffffffffffffffffffffffffff168273ffffffffffffffffffffffffffffffffffffffff1614156109ca576040517f08c379a00000000000000000000000000000000000000000000000000000000081526004016109c1906125ce565b60405180910390fd5b600360008373ffffffffffffffffffffffffffffffffffffffff1673ffffffffffffffffffffffffffffffffffffffff168152602001908152602001600020549050919050565b6000600a60009054906101000a900473ffffffffffffffffffffffffffffffffffffffff1673ffffffffffffffffffffffffffffffffffffffff168273ffffffffffffffffffffffffffffffffffffffff1614610aa3576040517f08c379a0000000000000000000000000000000000000000000000000000000008152600401610a9a9061272e565b60405180910390fd5b60096000815480929190610ab690612a07565b9190505550610ac7836009546112cb565b610ad3600954856112e9565b60095490509392505050565b606060018054610aee906129a4565b80601f0160208091040260200160405190810160405280929190818152602001828054610b1a906129a4565b8015610b675780601f10610b3c57610100808354040283529160200191610b67565b820191906000526020600020905b815481529060010190602001808311610b4a57829003601f168201915b5050505050905090565b60095481565b610b89610b82610fa3565b838361135d565b5050565b600073ffffffffffffffffffffffffffffffffffffffff166007600084815260200190815260200160002060009054906101000a900473ffffffffffffffffffffffffffffffffffffffff1673ffffffffffffffffffffffffffffffffffffffff1614610c2f576040517f08c379a0000000000000000000000000000000000000000000000000000000008152600401610c269061268e565b60405180910390fd5b806007600084815260200190815260200160002060006101000a81548173ffffffffffffffffffffffffffffffffffffffff021916908373ffffffffffffffffffffffffffffffffffffffff1602179055505050565b610c96610c90610fa3565b836114ca565b610cd5576040517f08c379a0000000000000000000000000000000000000000000000000000000008152600401610ccc9061270e565b60405180910390fd5b610ce1848484846115a8565b50505050565b6060610cf282610f37565b610d31576040517f08c379a0000000000000000000000000000000000000000000000000000000008152600401610d289061264e565b60405180910390fd5b6000600860008481526020019081526020016000208054610d51906129a4565b80601f0160208091040260200160405190810160405280929190818152602001828054610d7d906129a4565b8015610dca5780601f10610d9f57610100808354040283529160200191610dca565b820191906000526020600020905b815481529060010190602001808311610dad57829003601f168201915b505050505090506000610ddb611604565b9050600081511415610df1578192505050610e34565b600082511115610e26578082604051602001610e0e929190612426565b60405160208183030381529060405292505050610e34565b610e2f8461161b565b925050505b919050565b6000600560008473ffffffffffffffffffffffffffffffffffffffff1673ffffffffffffffffffffffffffffffffffffffff16815260200190815260200160002060008373ffffffffffffffffffffffffffffffffffffffff1673ffffffffffffffffffffffffffffffffffffffff16815260200190815260200160002060009054906101000a900460ff16905092915050565b60007f01ffc9a7000000000000000000000000000000000000000000000000000000007bffffffffffffffffffffffffffffffffffffffffffffffffffffffff1916827bffffffffffffffffffffffffffffffffffffffffffffffffffffffff1916149050919050565b60008073ffffffffffffffffffffffffffffffffffffffff166002600084815260200190815260200160002060009054906101000a900473ffffffffffffffffffffffffffffffffffffffff1673ffffffffffffffffffffffffffffffffffffffff1614159050919050565b600033905090565b816004600083815260200190815260200160002060006101000a81548173ffffffffffffffffffffffffffffffffffffffff021916908373ffffffffffffffffffffffffffffffffffffffff160217905550808273ffffffffffffffffffffffffffffffffffffffff1661101e836108a7565b73ffffffffffffffffffffffffffffffffffffffff167f8c5be1e5ebec7d5bd14f71427d1e84f3dd0314c0f7b2291e5b200ac8c7c3b92560405160405180910390a45050565b8273ffffffffffffffffffffffffffffffffffffffff16611084826108a7565b73ffffffffffffffffffffffffffffffffffffffff16146110da576040517f08c379a00000000000000000000000000000000000000000000000000000000081526004016110d19061250e565b60405180910390fd5b600073ffffffffffffffffffffffffffffffffffffffff168273ffffffffffffffffffffffffffffffffffffffff16141561114a576040517f08c379a00000000000000000000000000000000000000000000000000000000081526004016111419061254e565b60405180910390fd5b6111558383836116c2565b611160600082610fab565b6001600360008573ffffffffffffffffffffffffffffffffffffffff1673ffffffffffffffffffffffffffffffffffffffff16815260200190815260200160002060008282546111b091906128ba565b925050819055506001600360008473ffffffffffffffffffffffffffffffffffffffff1673ffffffffffffffffffffffffffffffffffffffff16815260200190815260200160002060008282546112079190612833565b92505081905550816002600083815260200190815260200160002060006101000a81548173ffffffffffffffffffffffffffffffffffffffff021916908373ffffffffffffffffffffffffffffffffffffffff160217905550808273ffffffffffffffffffffffffffffffffffffffff168473ffffffffffffffffffffffffffffffffffffffff167fddf252ad1be2c89b69c2b068fc378daa952ba7f163c4a11628f55a4df523b3ef60405160405180910390a46112c68383836116c7565b505050565b6112e58282604051806020016040528060008152506116cc565b5050565b6112f282610f37565b611331576040517f08c379a00000000000000000000000000000000000000000000000000000000081526004016113289061260e565b60405180910390fd5b80600860008481526020019081526020016000209080519060200190611358929190611c1c565b505050565b8173ffffffffffffffffffffffffffffffffffffffff168373ffffffffffffffffffffffffffffffffffffffff1614156113cc576040517f08c379a00000000000000000000000000000000000000000000000000000000081526004016113c39061256e565b60405180910390fd5b80600560008573ffffffffffffffffffffffffffffffffffffffff1673ffffffffffffffffffffffffffffffffffffffff16815260200190815260200160002060008473ffffffffffffffffffffffffffffffffffffffff1673ffffffffffffffffffffffffffffffffffffffff16815260200190815260200160002060006101000a81548160ff0219169083151502179055508173ffffffffffffffffffffffffffffffffffffffff168373ffffffffffffffffffffffffffffffffffffffff167f17307eab39ab6107e8899845ad3d59bd9653f200f220920489ca2b5937696c31836040516114bd91906124b1565b60405180910390a3505050565b60006114d582610f37565b611514576040517f08c379a000000000000000000000000000000000000000000000000000000000815260040161150b9061258e565b60405180910390fd5b600061151f836108a7565b90508073ffffffffffffffffffffffffffffffffffffffff168473ffffffffffffffffffffffffffffffffffffffff16148061156157506115608185610e39565b5b8061159f57508373ffffffffffffffffffffffffffffffffffffffff1661158784610660565b73ffffffffffffffffffffffffffffffffffffffff16145b91505092915050565b6115b3848484611064565b6115bf848484846116db565b6115fe576040517f08c379a00000000000000000000000000000000000000000000000000000000081526004016115f5906124ee565b60405180910390fd5b50505050565b606060405180602001604052806000815250905090565b606061162682610f37565b611665576040517f08c379a000000000000000000000000000000000000000000000000000000000815260040161165c906126ae565b60405180910390fd5b600061166f611604565b9050600081511161168f57604051806020016040528060008152506116ba565b8061169984611872565b6040516020016116aa929190612426565b6040516020818303038152906040525b915050919050565b505050565b505050565b6116d68383611a1f565b505050565b60006116fc8473ffffffffffffffffffffffffffffffffffffffff16611bf9565b15611865578373ffffffffffffffffffffffffffffffffffffffff1663150b7a02611725610fa3565b8786866040518563ffffffff1660e01b81526004016117479493929190612465565b602060405180830381600087803b15801561176157600080fd5b505af192505050801561179257506040513d601f19601f8201168201806040525081019061178f9190611fc8565b60015b611815573d80600081146117c2576040519150601f19603f3d011682016040523d82523d6000602084013e6117c7565b606091505b5060008151141561180d576040517f08c379a0000000000000000000000000000000000000000000000000000000008152600401611804906124ee565b60405180910390fd5b805181602001fd5b63150b7a0260e01b7bffffffffffffffffffffffffffffffffffffffffffffffffffffffff1916817bffffffffffffffffffffffffffffffffffffffffffffffffffffffff19161491505061186a565b600190505b949350505050565b606060008214156118ba576040518060400160405280600181526020017f30000000000000000000000000000000000000000000000000000000000000008152509050611a1a565b600082905060005b600082146118ec5780806118d590612a07565b915050600a826118e59190612889565b91506118c2565b60008167ffffffffffffffff81111561192e577f4e487b7100000000000000000000000000000000000000000000000000000000600052604160045260246000fd5b6040519080825280601f01601f1916602001820160405280156119605781602001600182028036833780820191505090505b5090505b60008514611a135760018261197991906128ba565b9150600a856119889190612a50565b60306119949190612833565b60f81b8183815181106119d0577f4e487b7100000000000000000000000000000000000000000000000000000000600052603260045260246000fd5b60200101907effffffffffffffffffffffffffffffffffffffffffffffffffffffffffffff1916908160001a905350600a85611a0c9190612889565b9450611964565b8093505050505b919050565b600073ffffffffffffffffffffffffffffffffffffffff168273ffffffffffffffffffffffffffffffffffffffff161415611a8f576040517f08c379a0000000000000000000000000000000000000000000000000000000008152600401611a869061262e565b60405180910390fd5b611a9881610f37565b15611ad8576040517f08c379a0000000000000000000000000000000000000000000000000000000008152600401611acf9061252e565b60405180910390fd5b611ae4600083836116c2565b6001600360008473ffffffffffffffffffffffffffffffffffffffff1673ffffffffffffffffffffffffffffffffffffffff1681526020019081526020016000206000828254611b349190612833565b92505081905550816002600083815260200190815260200160002060006101000a81548173ffffffffffffffffffffffffffffffffffffffff021916908373ffffffffffffffffffffffffffffffffffffffff160217905550808273ffffffffffffffffffffffffffffffffffffffff16600073ffffffffffffffffffffffffffffffffffffffff167fddf252ad1be2c89b69c2b068fc378daa952ba7f163c4a11628f55a4df523b3ef60405160405180910390a4611bf5600083836116c7565b5050565b6000808273ffffffffffffffffffffffffffffffffffffffff163b119050919050565b828054611c28906129a4565b90600052602060002090601f016020900481019282611c4a5760008555611c91565b82601f10611c6357805160ff1916838001178555611c91565b82800160010185558215611c91579182015b82811115611c90578251825591602001919060010190611c75565b5b509050611c9e9190611ca2565b5090565b5b80821115611cbb576000816000905550600101611ca3565b5090565b6000611cd2611ccd8461278e565b612769565b905082815260208101848484011115611cea57600080fd5b611cf5848285612962565b509392505050565b6000611d10611d0b846127bf565b612769565b905082815260208101848484011115611d2857600080fd5b611d33848285612962565b509392505050565b600081359050611d4a81613093565b92915050565b600081359050611d5f816130aa565b92915050565b600081359050611d74816130c1565b92915050565b600081519050611d89816130c1565b92915050565b600082601f830112611da057600080fd5b8135611db0848260208601611cbf565b91505092915050565b600082601f830112611dca57600080fd5b8135611dda848260208601611cfd565b91505092915050565b600081359050611df2816130d8565b92915050565b600060208284031215611e0a57600080fd5b6000611e1884828501611d3b565b91505092915050565b60008060408385031215611e3457600080fd5b6000611e4285828601611d3b565b9250506020611e5385828601611d3b565b9150509250929050565b600080600060608486031215611e7257600080fd5b6000611e8086828701611d3b565b9350506020611e9186828701611d3b565b9250506040611ea286828701611de3565b9150509250925092565b60008060008060808587031215611ec257600080fd5b6000611ed087828801611d3b565b9450506020611ee187828801611d3b565b9350506040611ef287828801611de3565b925050606085013567ffffffffffffffff811115611f0f57600080fd5b611f1b87828801611d8f565b91505092959194509250565b60008060408385031215611f3a57600080fd5b6000611f4885828601611d3b565b9250506020611f5985828601611d50565b9150509250929050565b60008060408385031215611f7657600080fd5b6000611f8485828601611d3b565b9250506020611f9585828601611de3565b9150509250929050565b600060208284031215611fb157600080fd5b6000611fbf84828501611d65565b91505092915050565b600060208284031215611fda57600080fd5b6000611fe884828501611d7a565b91505092915050565b60008060006060848603121561200657600080fd5b600084013567ffffffffffffffff81111561202057600080fd5b61202c86828701611db9565b935050602061203d86828701611d3b565b925050604061204e86828701611d3b565b9150509250925092565b60006020828403121561206a57600080fd5b600061207884828501611de3565b91505092915050565b6000806040838503121561209457600080fd5b60006120a285828601611de3565b92505060206120b385828601611d3b565b9150509250929050565b6120c6816128ee565b82525050565b6120d581612900565b82525050565b60006120e6826127f0565b6120f08185612806565b9350612100818560208601612971565b61210981612b3d565b840191505092915050565b600061211f826127fb565b6121298185612817565b9350612139818560208601612971565b61214281612b3d565b840191505092915050565b6000612158826127fb565b6121628185612828565b9350612172818560208601612971565b80840191505092915050565b600061218b603283612817565b915061219682612b4e565b604082019050919050565b60006121ae602583612817565b91506121b982612b9d565b604082019050919050565b60006121d1601c83612817565b91506121dc82612bec565b602082019050919050565b60006121f4602483612817565b91506121ff82612c15565b604082019050919050565b6000612217601983612817565b915061222282612c64565b602082019050919050565b600061223a602c83612817565b915061224582612c8d565b604082019050919050565b600061225d603883612817565b915061226882612cdc565b604082019050919050565b6000612280602a83612817565b915061228b82612d2b565b604082019050919050565b60006122a3602983612817565b91506122ae82612d7a565b604082019050919050565b60006122c6602e83612817565b91506122d182612dc9565b604082019050919050565b60006122e9602083612817565b91506122f482612e18565b602082019050919050565b600061230c603183612817565b915061231782612e41565b604082019050919050565b600061232f602c83612817565b915061233a82612e90565b604082019050919050565b6000612352602383612817565b915061235d82612edf565b604082019050919050565b6000612375602f83612817565b915061238082612f2e565b604082019050919050565b6000612398602183612817565b91506123a382612f7d565b604082019050919050565b60006123bb602483612817565b91506123c682612fcc565b604082019050919050565b60006123de603183612817565b91506123e98261301b565b604082019050919050565b6000612401601683612817565b915061240c8261306a565b602082019050919050565b61242081612958565b82525050565b6000612432828561214d565b915061243e828461214d565b91508190509392505050565b600060208201905061245f60008301846120bd565b92915050565b600060808201905061247a60008301876120bd565b61248760208301866120bd565b6124946040830185612417565b81810360608301526124a681846120db565b905095945050505050565b60006020820190506124c660008301846120cc565b92915050565b600060208201905081810360008301526124e68184612114565b905092915050565b600060208201905081810360008301526125078161217e565b9050919050565b60006020820190508181036000830152612527816121a1565b9050919050565b60006020820190508181036000830152612547816121c4565b9050919050565b60006020820190508181036000830152612567816121e7565b9050919050565b600060208201905081810360008301526125878161220a565b9050919050565b600060208201905081810360008301526125a78161222d565b9050919050565b600060208201905081810360008301526125c781612250565b9050919050565b600060208201905081810360008301526125e781612273565b9050919050565b6000602082019050818103600083015261260781612296565b9050919050565b60006020820190508181036000830152612627816122b9565b9050919050565b60006020820190508181036000830152612647816122dc565b9050919050565b60006020820190508181036000830152612667816122ff565b9050919050565b6000602082019050818103600083015261268781612322565b9050919050565b600060208201905081810360008301526126a781612345565b9050919050565b600060208201905081810360008301526126c781612368565b9050919050565b600060208201905081810360008301526126e78161238b565b9050919050565b60006020820190508181036000830152612707816123ae565b9050919050565b60006020820190508181036000830152612727816123d1565b9050919050565b60006020820190508181036000830152612747816123f4565b9050919050565b60006020820190506127636000830184612417565b92915050565b6000612773612784565b905061277f82826129d6565b919050565b6000604051905090565b600067ffffffffffffffff8211156127a9576127a8612b0e565b5b6127b282612b3d565b9050602081019050919050565b600067ffffffffffffffff8211156127da576127d9612b0e565b5b6127e382612b3d565b9050602081019050919050565b600081519050919050565b600081519050919050565b600082825260208201905092915050565b600082825260208201905092915050565b600081905092915050565b600061283e82612958565b915061284983612958565b9250827fffffffffffffffffffffffffffffffffffffffffffffffffffffffffffffffff0382111561287e5761287d612a81565b5b828201905092915050565b600061289482612958565b915061289f83612958565b9250826128af576128ae612ab0565b5b828204905092915050565b60006128c582612958565b91506128d083612958565b9250828210156128e3576128e2612a81565b5b828203905092915050565b60006128f982612938565b9050919050565b60008115159050919050565b60007fffffffff0000000000000000000000000000000000000000000000000000000082169050919050565b600073ffffffffffffffffffffffffffffffffffffffff82169050919050565b6000819050919050565b82818337600083830152505050565b60005b8381101561298f578082015181840152602081019050612974565b8381111561299e576000848401525b50505050565b600060028204905060018216806129bc57607f821691505b602082108114156129d0576129cf612adf565b5b50919050565b6129df82612b3d565b810181811067ffffffffffffffff821117156129fe576129fd612b0e565b5b80604052505050565b6000612a1282612958565b91507fffffffffffffffffffffffffffffffffffffffffffffffffffffffffffffffff821415612a4557612a44612a81565b5b600182019050919050565b6000612a5b82612958565b9150612a6683612958565b925082612a7657612a75612ab0565b5b828206905092915050565b7f4e487b7100000000000000000000000000000000000000000000000000000000600052601160045260246000fd5b7f4e487b7100000000000000000000000000000000000000000000000000000000600052601260045260246000fd5b7f4e487b7100000000000000000000000000000000000000000000000000000000600052602260045260246000fd5b7f4e487b7100000000000000000000000000000000000000000000000000000000600052604160045260246000fd5b6000601f19601f8301169050919050565b7f4552433732313a207472616e7366657220746f206e6f6e20455243373231526560008201527f63656976657220696d706c656d656e7465720000000000000000000000000000602082015250565b7f4552433732313a207472616e736665722066726f6d20696e636f72726563742060008201527f6f776e6572000000000000000000000000000000000000000000000000000000602082015250565b7f4552433732313a20746f6b656e20616c7265616479206d696e74656400000000600082015250565b7f4552433732313a207472616e7366657220746f20746865207a65726f2061646460008201527f7265737300000000000000000000000000000000000000000000000000000000602082015250565b7f4552433732313a20617070726f766520746f2063616c6c657200000000000000600082015250565b7f4552433732313a206f70657261746f7220717565727920666f72206e6f6e657860008201527f697374656e7420746f6b656e0000000000000000000000000000000000000000602082015250565b7f4552433732313a20617070726f76652063616c6c6572206973206e6f74206f7760008201527f6e6572206e6f7220617070726f76656420666f7220616c6c0000000000000000602082015250565b7f4552433732313a2062616c616e636520717565727920666f7220746865207a6560008201527f726f206164647265737300000000000000000000000000000000000000000000602082015250565b7f4552433732313a206f776e657220717565727920666f72206e6f6e657869737460008201527f656e7420746f6b656e0000000000000000000000000000000000000000000000602082015250565b7f45524337323155524953746f726167653a2055524920736574206f66206e6f6e60008201527f6578697374656e7420746f6b656e000000000000000000000000000000000000602082015250565b7f4552433732313a206d696e7420746f20746865207a65726f2061646472657373600082015250565b7f45524337323155524953746f726167653a2055524920717565727920666f722060008201527f6e6f6e6578697374656e7420746f6b656e000000000000000000000000000000602082015250565b7f4552433732313a20617070726f76656420717565727920666f72206e6f6e657860008201527f697374656e7420746f6b656e0000000000000000000000000000000000000000602082015250565b7f546f6b656e20616c726561647920686173206120726f79616c74696573206f7760008201527f6e65720000000000000000000000000000000000000000000000000000000000602082015250565b7f4552433732314d657461646174613a2055524920717565727920666f72206e6f60008201527f6e6578697374656e7420746f6b656e0000000000000000000000000000000000602082015250565b7f4552433732313a20617070726f76616c20746f2063757272656e74206f776e6560008201527f7200000000000000000000000000000000000000000000000000000000000000602082015250565b7f546f6b656e20616c726561647920686173206120636f6c6c656374696f6e206f60008201527f776e657200000000000000000000000000000000000000000000000000000000602082015250565b7f4552433732313a207472616e736665722063616c6c6572206973206e6f74206f60008201527f776e6572206e6f7220617070726f766564000000000000000000000000000000602082015250565b7f596f7520617265206e6f7420746865206f776e65722e00000000000000000000600082015250565b61309c816128ee565b81146130a757600080fd5b50565b6130b381612900565b81146130be57600080fd5b50565b6130ca8161290c565b81146130d557600080fd5b50565b6130e181612958565b81146130ec57600080fd5b5056fea2646970667358221220df02425265b37131ff673264982cef61e23e75e94590b09f83fbaaead4bf8dd664736f6c63430008040033",
  "linkReferences": {},
  "deployedLinkReferences": {}
}