{
  "_format": "hh-sol-artifact-1",
  "contractName": "NFT",
  "sourceName": "src/solidity/contracts/NFT.sol",
  "abi": [
    {
      "inputs": [],
      "stateMutability": "nonpayable",
      "type": "constructor"
    },
    {
      "anonymous": false,
      "inputs": [
        {
          "indexed": true,
          "internalType": "address",
          "name": "owner",
          "type": "address"
        },
        {
          "indexed": true,
          "internalType": "address",
          "name": "approved",
          "type": "address"
        },
        {
          "indexed": true,
          "internalType": "uint256",
          "name": "tokenId",
          "type": "uint256"
        }
      ],
      "name": "Approval",
      "type": "event"
    },
    {
      "anonymous": false,
      "inputs": [
        {
          "indexed": true,
          "internalType": "address",
          "name": "owner",
          "type": "address"
        },
        {
          "indexed": true,
          "internalType": "address",
          "name": "operator",
          "type": "address"
        },
        {
          "indexed": false,
          "internalType": "bool",
          "name": "approved",
          "type": "bool"
        }
      ],
      "name": "ApprovalForAll",
      "type": "event"
    },
    {
      "anonymous": false,
      "inputs": [
        {
          "indexed": true,
          "internalType": "address",
          "name": "from",
          "type": "address"
        },
        {
          "indexed": true,
          "internalType": "address",
          "name": "to",
          "type": "address"
        },
        {
          "indexed": true,
          "internalType": "uint256",
          "name": "tokenId",
          "type": "uint256"
        }
      ],
      "name": "Transfer",
      "type": "event"
    },
    {
      "inputs": [
        {
          "internalType": "address",
          "name": "to",
          "type": "address"
        },
        {
          "internalType": "uint256",
          "name": "tokenId",
          "type": "uint256"
        }
      ],
      "name": "approve",
      "outputs": [],
      "stateMutability": "nonpayable",
      "type": "function"
    },
    {
      "inputs": [
        {
          "internalType": "address",
          "name": "owner",
          "type": "address"
        }
      ],
      "name": "balanceOf",
      "outputs": [
        {
          "internalType": "uint256",
          "name": "",
          "type": "uint256"
        }
      ],
      "stateMutability": "view",
      "type": "function"
    },
    {
      "inputs": [
        {
          "internalType": "uint256",
          "name": "tokenId",
          "type": "uint256"
        }
      ],
      "name": "getApproved",
      "outputs": [
        {
          "internalType": "address",
          "name": "",
          "type": "address"
        }
      ],
      "stateMutability": "view",
      "type": "function"
    },
    {
      "inputs": [
        {
          "internalType": "uint256",
          "name": "_tokenId",
          "type": "uint256"
        }
      ],
      "name": "getCollectionOwner",
      "outputs": [
        {
          "internalType": "address",
          "name": "",
          "type": "address"
        }
      ],
      "stateMutability": "view",
      "type": "function"
    },
    {
      "inputs": [
        {
          "internalType": "uint256",
          "name": "_tokenId",
          "type": "uint256"
        }
      ],
      "name": "getRoyaltiesBeneficiary",
      "outputs": [
        {
          "internalType": "address",
          "name": "",
          "type": "address"
        }
      ],
      "stateMutability": "view",
      "type": "function"
    },
    {
      "inputs": [
        {
          "internalType": "address",
          "name": "owner",
          "type": "address"
        },
        {
          "internalType": "address",
          "name": "operator",
          "type": "address"
        }
      ],
      "name": "isApprovedForAll",
      "outputs": [
        {
          "internalType": "bool",
          "name": "",
          "type": "bool"
        }
      ],
      "stateMutability": "view",
      "type": "function"
    },
    {
      "inputs": [
        {
          "internalType": "string",
          "name": "_tokenURI",
          "type": "string"
        },
        {
          "internalType": "address",
          "name": "from",
          "type": "address"
        }
      ],
      "name": "mint",
      "outputs": [
        {
          "internalType": "uint256",
          "name": "",
          "type": "uint256"
        }
      ],
      "stateMutability": "nonpayable",
      "type": "function"
    },
    {
      "inputs": [],
      "name": "name",
      "outputs": [
        {
          "internalType": "string",
          "name": "",
          "type": "string"
        }
      ],
      "stateMutability": "view",
      "type": "function"
    },
    {
      "inputs": [
        {
          "internalType": "uint256",
          "name": "tokenId",
          "type": "uint256"
        }
      ],
      "name": "ownerOf",
      "outputs": [
        {
          "internalType": "address",
          "name": "",
          "type": "address"
        }
      ],
      "stateMutability": "view",
      "type": "function"
    },
    {
      "inputs": [
        {
          "internalType": "address",
          "name": "from",
          "type": "address"
        },
        {
          "internalType": "address",
          "name": "to",
          "type": "address"
        },
        {
          "internalType": "uint256",
          "name": "tokenId",
          "type": "uint256"
        }
      ],
      "name": "safeTransferFrom",
      "outputs": [],
      "stateMutability": "nonpayable",
      "type": "function"
    },
    {
      "inputs": [
        {
          "internalType": "address",
          "name": "from",
          "type": "address"
        },
        {
          "internalType": "address",
          "name": "to",
          "type": "address"
        },
        {
          "internalType": "uint256",
          "name": "tokenId",
          "type": "uint256"
        },
        {
          "internalType": "bytes",
          "name": "_data",
          "type": "bytes"
        }
      ],
      "name": "safeTransferFrom",
      "outputs": [],
      "stateMutability": "nonpayable",
      "type": "function"
    },
    {
      "inputs": [
        {
          "internalType": "address",
          "name": "operator",
          "type": "address"
        },
        {
          "internalType": "bool",
          "name": "approved",
          "type": "bool"
        }
      ],
      "name": "setApprovalForAll",
      "outputs": [],
      "stateMutability": "nonpayable",
      "type": "function"
    },
    {
      "inputs": [
        {
          "internalType": "uint256",
          "name": "_tokenId",
          "type": "uint256"
        },
        {
          "internalType": "address",
          "name": "_collectionOwner",
          "type": "address"
        }
      ],
      "name": "setCollectionOwner",
      "outputs": [],
      "stateMutability": "nonpayable",
      "type": "function"
    },
    {
      "inputs": [
        {
          "internalType": "uint256",
          "name": "_tokenId",
          "type": "uint256"
        },
        {
          "internalType": "address",
          "name": "to",
          "type": "address"
        }
      ],
      "name": "setRoyaltiesBeneficiary",
      "outputs": [],
      "stateMutability": "nonpayable",
      "type": "function"
    },
    {
      "inputs": [
        {
          "internalType": "bytes4",
          "name": "interfaceId",
          "type": "bytes4"
        }
      ],
      "name": "supportsInterface",
      "outputs": [
        {
          "internalType": "bool",
          "name": "",
          "type": "bool"
        }
      ],
      "stateMutability": "view",
      "type": "function"
    },
    {
      "inputs": [],
      "name": "symbol",
      "outputs": [
        {
          "internalType": "string",
          "name": "",
          "type": "string"
        }
      ],
      "stateMutability": "view",
      "type": "function"
    },
    {
      "inputs": [],
      "name": "tokenCount",
      "outputs": [
        {
          "internalType": "uint256",
          "name": "",
          "type": "uint256"
        }
      ],
      "stateMutability": "view",
      "type": "function"
    },
    {
      "inputs": [
        {
          "internalType": "uint256",
          "name": "tokenId",
          "type": "uint256"
        }
      ],
      "name": "tokenURI",
      "outputs": [
        {
          "internalType": "string",
          "name": "",
          "type": "string"
        }
      ],
      "stateMutability": "view",
      "type": "function"
    },
    {
      "inputs": [
        {
          "internalType": "address",
          "name": "from",
          "type": "address"
        },
        {
          "internalType": "address",
          "name": "to",
          "type": "address"
        },
        {
          "internalType": "uint256",
          "name": "tokenId",
          "type": "uint256"
        }
      ],
      "name": "transferFrom",
      "outputs": [],
      "stateMutability": "nonpayable",
      "type": "function"
    }
  ],
  "bytecode": "0x60806040523480156200001157600080fd5b506040518060400160405280600881526020017f44417070204e46540000000000000000000000000000000000000000000000008152506040518060400160405280600481526020017f4441505000000000000000000000000000000000000000000000000000000000815250816000908051906020019062000096929190620000b8565b508060019080519060200190620000af929190620000b8565b505050620001cd565b828054620000c69062000168565b90600052602060002090601f016020900481019282620000ea576000855562000136565b82601f106200010557805160ff191683800117855562000136565b8280016001018555821562000136579182015b828111156200013557825182559160200191906001019062000118565b5b50905062000145919062000149565b5090565b5b80821115620001645760008160009055506001016200014a565b5090565b600060028204905060018216806200018157607f821691505b602082108114156200019857620001976200019e565b5b50919050565b7f4e487b7100000000000000000000000000000000000000000000000000000000600052602260045260246000fd5b61301580620001dd6000396000f3fe608060405234801561001057600080fd5b50600436106101215760003560e01c80634567c4ff116100ad578063a22cb46511610071578063a22cb46514610340578063b192a7961461035c578063b88d4fde14610378578063c87b56dd14610394578063e985e9c5146103c457610121565b80634567c4ff146102745780636352211e146102a457806370a08231146102d457806395d89b41146103045780639f181b5e1461032257610121565b8063095ea7b3116100f4578063095ea7b3146101c05780631c351a9d146101dc57806323b872dd1461020c578063394120c01461022857806342842e0e1461025857610121565b806301ffc9a714610126578063020cb1d31461015657806306fdde0314610172578063081812fc14610190575b600080fd5b610140600480360381019061013b9190611f0e565b6103f4565b60405161014d91906123ea565b60405180910390f35b610170600480360381019061016b9190611fdd565b6104d6565b005b61017a6105ce565b6040516101879190612405565b60405180910390f35b6101aa60048036038101906101a59190611fb4565b610660565b6040516101b79190612383565b60405180910390f35b6101da60048036038101906101d59190611ed2565b6106e5565b005b6101f660048036038101906101f19190611f60565b6107fd565b6040516102039190612667565b60405180910390f35b61022660048036038101906102219190611dcc565b61083a565b005b610242600480360381019061023d9190611fb4565b61084a565b60405161024f9190612383565b60405180910390f35b610272600480360381019061026d9190611dcc565b610887565b005b61028e60048036038101906102899190611fb4565b6108a7565b60405161029b9190612383565b60405180910390f35b6102be60048036038101906102b99190611fb4565b6108e4565b6040516102cb9190612383565b60405180910390f35b6102ee60048036038101906102e99190611d67565b610996565b6040516102fb9190612667565b60405180910390f35b61030c610a4e565b6040516103199190612405565b60405180910390f35b61032a610ae0565b6040516103379190612667565b60405180910390f35b61035a60048036038101906103559190611e96565b610ae6565b005b61037660048036038101906103719190611fdd565b610afc565b005b610392600480360381019061038d9190611e1b565b610bf4565b005b6103ae60048036038101906103a99190611fb4565b610c56565b6040516103bb9190612405565b60405180910390f35b6103de60048036038101906103d99190611d90565b610da8565b6040516103eb91906123ea565b60405180910390f35b60007f80ac58cd000000000000000000000000000000000000000000000000000000007bffffffffffffffffffffffffffffffffffffffffffffffffffffffff1916827bffffffffffffffffffffffffffffffffffffffffffffffffffffffff191614806104bf57507f5b5e139f000000000000000000000000000000000000000000000000000000007bffffffffffffffffffffffffffffffffffffffffffffffffffffffff1916827bffffffffffffffffffffffffffffffffffffffffffffffffffffffff1916145b806104cf57506104ce82610e3c565b5b9050919050565b600073ffffffffffffffffffffffffffffffffffffffff166007600084815260200190815260200160002060009054906101000a900473ffffffffffffffffffffffffffffffffffffffff1673ffffffffffffffffffffffffffffffffffffffff1614610578576040517f08c379a000000000000000000000000000000000000000000000000000000000815260040161056f90612627565b60405180910390fd5b806006600084815260200190815260200160002060006101000a81548173ffffffffffffffffffffffffffffffffffffffff021916908373ffffffffffffffffffffffffffffffffffffffff1602179055505050565b6060600080546105dd906128bd565b80601f0160208091040260200160405190810160405280929190818152602001828054610609906128bd565b80156106565780601f1061062b57610100808354040283529160200191610656565b820191906000526020600020905b81548152906001019060200180831161063957829003601f168201915b5050505050905090565b600061066b82610ea6565b6106aa576040517f08c379a00000000000000000000000000000000000000000000000000000000081526004016106a1906125a7565b60405180910390fd5b6004600083815260200190815260200160002060009054906101000a900473ffffffffffffffffffffffffffffffffffffffff169050919050565b60006106f0826108e4565b90508073ffffffffffffffffffffffffffffffffffffffff168373ffffffffffffffffffffffffffffffffffffffff161415610761576040517f08c379a000000000000000000000000000000000000000000000000000000000815260040161075890612607565b60405180910390fd5b8073ffffffffffffffffffffffffffffffffffffffff16610780610f12565b73ffffffffffffffffffffffffffffffffffffffff1614806107af57506107ae816107a9610f12565b610da8565b5b6107ee576040517f08c379a00000000000000000000000000000000000000000000000000000000081526004016107e5906124e7565b60405180910390fd5b6107f88383610f1a565b505050565b60006009600081548092919061081290612920565b919050555061082382600954610fd3565b61082f60095484610ff1565b600954905092915050565b610845838383611065565b505050565b60006006600083815260200190815260200160002060009054906101000a900473ffffffffffffffffffffffffffffffffffffffff169050919050565b6108a283838360405180602001604052806000815250610bf4565b505050565b60006007600083815260200190815260200160002060009054906101000a900473ffffffffffffffffffffffffffffffffffffffff169050919050565b6000806002600084815260200190815260200160002060009054906101000a900473ffffffffffffffffffffffffffffffffffffffff169050600073ffffffffffffffffffffffffffffffffffffffff168173ffffffffffffffffffffffffffffffffffffffff16141561098d576040517f08c379a000000000000000000000000000000000000000000000000000000000815260040161098490612527565b60405180910390fd5b80915050919050565b60008073ffffffffffffffffffffffffffffffffffffffff168273ffffffffffffffffffffffffffffffffffffffff161415610a07576040517f08c379a00000000000000000000000000000000000000000000000000000000081526004016109fe90612507565b60405180910390fd5b600360008373ffffffffffffffffffffffffffffffffffffffff1673ffffffffffffffffffffffffffffffffffffffff168152602001908152602001600020549050919050565b606060018054610a5d906128bd565b80601f0160208091040260200160405190810160405280929190818152602001828054610a89906128bd565b8015610ad65780601f10610aab57610100808354040283529160200191610ad6565b820191906000526020600020905b815481529060010190602001808311610ab957829003601f168201915b5050505050905090565b60095481565b610af8610af1610f12565b83836112cc565b5050565b600073ffffffffffffffffffffffffffffffffffffffff166007600084815260200190815260200160002060009054906101000a900473ffffffffffffffffffffffffffffffffffffffff1673ffffffffffffffffffffffffffffffffffffffff1614610b9e576040517f08c379a0000000000000000000000000000000000000000000000000000000008152600401610b95906125c7565b60405180910390fd5b806007600084815260200190815260200160002060006101000a81548173ffffffffffffffffffffffffffffffffffffffff021916908373ffffffffffffffffffffffffffffffffffffffff1602179055505050565b610c05610bff610f12565b83611439565b610c44576040517f08c379a0000000000000000000000000000000000000000000000000000000008152600401610c3b90612647565b60405180910390fd5b610c5084848484611517565b50505050565b6060610c6182610ea6565b610ca0576040517f08c379a0000000000000000000000000000000000000000000000000000000008152600401610c9790612587565b60405180910390fd5b6000600860008481526020019081526020016000208054610cc0906128bd565b80601f0160208091040260200160405190810160405280929190818152602001828054610cec906128bd565b8015610d395780601f10610d0e57610100808354040283529160200191610d39565b820191906000526020600020905b815481529060010190602001808311610d1c57829003601f168201915b505050505090506000610d4a611573565b9050600081511415610d60578192505050610da3565b600082511115610d95578082604051602001610d7d92919061235f565b60405160208183030381529060405292505050610da3565b610d9e8461158a565b925050505b919050565b6000600560008473ffffffffffffffffffffffffffffffffffffffff1673ffffffffffffffffffffffffffffffffffffffff16815260200190815260200160002060008373ffffffffffffffffffffffffffffffffffffffff1673ffffffffffffffffffffffffffffffffffffffff16815260200190815260200160002060009054906101000a900460ff16905092915050565b60007f01ffc9a7000000000000000000000000000000000000000000000000000000007bffffffffffffffffffffffffffffffffffffffffffffffffffffffff1916827bffffffffffffffffffffffffffffffffffffffffffffffffffffffff1916149050919050565b60008073ffffffffffffffffffffffffffffffffffffffff166002600084815260200190815260200160002060009054906101000a900473ffffffffffffffffffffffffffffffffffffffff1673ffffffffffffffffffffffffffffffffffffffff1614159050919050565b600033905090565b816004600083815260200190815260200160002060006101000a81548173ffffffffffffffffffffffffffffffffffffffff021916908373ffffffffffffffffffffffffffffffffffffffff160217905550808273ffffffffffffffffffffffffffffffffffffffff16610f8d836108e4565b73ffffffffffffffffffffffffffffffffffffffff167f8c5be1e5ebec7d5bd14f71427d1e84f3dd0314c0f7b2291e5b200ac8c7c3b92560405160405180910390a45050565b610fed828260405180602001604052806000815250611631565b5050565b610ffa82610ea6565b611039576040517f08c379a000000000000000000000000000000000000000000000000000000000815260040161103090612547565b60405180910390fd5b80600860008481526020019081526020016000209080519060200190611060929190611b8b565b505050565b8273ffffffffffffffffffffffffffffffffffffffff16611085826108e4565b73ffffffffffffffffffffffffffffffffffffffff16146110db576040517f08c379a00000000000000000000000000000000000000000000000000000000081526004016110d290612447565b60405180910390fd5b600073ffffffffffffffffffffffffffffffffffffffff168273ffffffffffffffffffffffffffffffffffffffff16141561114b576040517f08c379a000000000000000000000000000000000000000000000000000000000815260040161114290612487565b60405180910390fd5b611156838383611640565b611161600082610f1a565b6001600360008573ffffffffffffffffffffffffffffffffffffffff1673ffffffffffffffffffffffffffffffffffffffff16815260200190815260200160002060008282546111b191906127d3565b925050819055506001600360008473ffffffffffffffffffffffffffffffffffffffff1673ffffffffffffffffffffffffffffffffffffffff1681526020019081526020016000206000828254611208919061274c565b92505081905550816002600083815260200190815260200160002060006101000a81548173ffffffffffffffffffffffffffffffffffffffff021916908373ffffffffffffffffffffffffffffffffffffffff160217905550808273ffffffffffffffffffffffffffffffffffffffff168473ffffffffffffffffffffffffffffffffffffffff167fddf252ad1be2c89b69c2b068fc378daa952ba7f163c4a11628f55a4df523b3ef60405160405180910390a46112c7838383611645565b505050565b8173ffffffffffffffffffffffffffffffffffffffff168373ffffffffffffffffffffffffffffffffffffffff16141561133b576040517f08c379a0000000000000000000000000000000000000000000000000000000008152600401611332906124a7565b60405180910390fd5b80600560008573ffffffffffffffffffffffffffffffffffffffff1673ffffffffffffffffffffffffffffffffffffffff16815260200190815260200160002060008473ffffffffffffffffffffffffffffffffffffffff1673ffffffffffffffffffffffffffffffffffffffff16815260200190815260200160002060006101000a81548160ff0219169083151502179055508173ffffffffffffffffffffffffffffffffffffffff168373ffffffffffffffffffffffffffffffffffffffff167f17307eab39ab6107e8899845ad3d59bd9653f200f220920489ca2b5937696c318360405161142c91906123ea565b60405180910390a3505050565b600061144482610ea6565b611483576040517f08c379a000000000000000000000000000000000000000000000000000000000815260040161147a906124c7565b60405180910390fd5b600061148e836108e4565b90508073ffffffffffffffffffffffffffffffffffffffff168473ffffffffffffffffffffffffffffffffffffffff1614806114d057506114cf8185610da8565b5b8061150e57508373ffffffffffffffffffffffffffffffffffffffff166114f684610660565b73ffffffffffffffffffffffffffffffffffffffff16145b91505092915050565b611522848484611065565b61152e8484848461164a565b61156d576040517f08c379a000000000000000000000000000000000000000000000000000000000815260040161156490612427565b60405180910390fd5b50505050565b606060405180602001604052806000815250905090565b606061159582610ea6565b6115d4576040517f08c379a00000000000000000000000000000000000000000000000000000000081526004016115cb906125e7565b60405180910390fd5b60006115de611573565b905060008151116115fe5760405180602001604052806000815250611629565b80611608846117e1565b60405160200161161992919061235f565b6040516020818303038152906040525b915050919050565b61163b838361198e565b505050565b505050565b505050565b600061166b8473ffffffffffffffffffffffffffffffffffffffff16611b68565b156117d4578373ffffffffffffffffffffffffffffffffffffffff1663150b7a02611694610f12565b8786866040518563ffffffff1660e01b81526004016116b6949392919061239e565b602060405180830381600087803b1580156116d057600080fd5b505af192505050801561170157506040513d601f19601f820116820180604052508101906116fe9190611f37565b60015b611784573d8060008114611731576040519150601f19603f3d011682016040523d82523d6000602084013e611736565b606091505b5060008151141561177c576040517f08c379a000000000000000000000000000000000000000000000000000000000815260040161177390612427565b60405180910390fd5b805181602001fd5b63150b7a0260e01b7bffffffffffffffffffffffffffffffffffffffffffffffffffffffff1916817bffffffffffffffffffffffffffffffffffffffffffffffffffffffff1916149150506117d9565b600190505b949350505050565b60606000821415611829576040518060400160405280600181526020017f30000000000000000000000000000000000000000000000000000000000000008152509050611989565b600082905060005b6000821461185b57808061184490612920565b915050600a8261185491906127a2565b9150611831565b60008167ffffffffffffffff81111561189d577f4e487b7100000000000000000000000000000000000000000000000000000000600052604160045260246000fd5b6040519080825280601f01601f1916602001820160405280156118cf5781602001600182028036833780820191505090505b5090505b60008514611982576001826118e891906127d3565b9150600a856118f79190612969565b6030611903919061274c565b60f81b81838151811061193f577f4e487b7100000000000000000000000000000000000000000000000000000000600052603260045260246000fd5b60200101907effffffffffffffffffffffffffffffffffffffffffffffffffffffffffffff1916908160001a905350600a8561197b91906127a2565b94506118d3565b8093505050505b919050565b600073ffffffffffffffffffffffffffffffffffffffff168273ffffffffffffffffffffffffffffffffffffffff1614156119fe576040517f08c379a00000000000000000000000000000000000000000000000000000000081526004016119f590612567565b60405180910390fd5b611a0781610ea6565b15611a47576040517f08c379a0000000000000000000000000000000000000000000000000000000008152600401611a3e90612467565b60405180910390fd5b611a5360008383611640565b6001600360008473ffffffffffffffffffffffffffffffffffffffff1673ffffffffffffffffffffffffffffffffffffffff1681526020019081526020016000206000828254611aa3919061274c565b92505081905550816002600083815260200190815260200160002060006101000a81548173ffffffffffffffffffffffffffffffffffffffff021916908373ffffffffffffffffffffffffffffffffffffffff160217905550808273ffffffffffffffffffffffffffffffffffffffff16600073ffffffffffffffffffffffffffffffffffffffff167fddf252ad1be2c89b69c2b068fc378daa952ba7f163c4a11628f55a4df523b3ef60405160405180910390a4611b6460008383611645565b5050565b6000808273ffffffffffffffffffffffffffffffffffffffff163b119050919050565b828054611b97906128bd565b90600052602060002090601f016020900481019282611bb95760008555611c00565b82601f10611bd257805160ff1916838001178555611c00565b82800160010185558215611c00579182015b82811115611bff578251825591602001919060010190611be4565b5b509050611c0d9190611c11565b5090565b5b80821115611c2a576000816000905550600101611c12565b5090565b6000611c41611c3c846126a7565b612682565b905082815260208101848484011115611c5957600080fd5b611c6484828561287b565b509392505050565b6000611c7f611c7a846126d8565b612682565b905082815260208101848484011115611c9757600080fd5b611ca284828561287b565b509392505050565b600081359050611cb981612f83565b92915050565b600081359050611cce81612f9a565b92915050565b600081359050611ce381612fb1565b92915050565b600081519050611cf881612fb1565b92915050565b600082601f830112611d0f57600080fd5b8135611d1f848260208601611c2e565b91505092915050565b600082601f830112611d3957600080fd5b8135611d49848260208601611c6c565b91505092915050565b600081359050611d6181612fc8565b92915050565b600060208284031215611d7957600080fd5b6000611d8784828501611caa565b91505092915050565b60008060408385031215611da357600080fd5b6000611db185828601611caa565b9250506020611dc285828601611caa565b9150509250929050565b600080600060608486031215611de157600080fd5b6000611def86828701611caa565b9350506020611e0086828701611caa565b9250506040611e1186828701611d52565b9150509250925092565b60008060008060808587031215611e3157600080fd5b6000611e3f87828801611caa565b9450506020611e5087828801611caa565b9350506040611e6187828801611d52565b925050606085013567ffffffffffffffff811115611e7e57600080fd5b611e8a87828801611cfe565b91505092959194509250565b60008060408385031215611ea957600080fd5b6000611eb785828601611caa565b9250506020611ec885828601611cbf565b9150509250929050565b60008060408385031215611ee557600080fd5b6000611ef385828601611caa565b9250506020611f0485828601611d52565b9150509250929050565b600060208284031215611f2057600080fd5b6000611f2e84828501611cd4565b91505092915050565b600060208284031215611f4957600080fd5b6000611f5784828501611ce9565b91505092915050565b60008060408385031215611f7357600080fd5b600083013567ffffffffffffffff811115611f8d57600080fd5b611f9985828601611d28565b9250506020611faa85828601611caa565b9150509250929050565b600060208284031215611fc657600080fd5b6000611fd484828501611d52565b91505092915050565b60008060408385031215611ff057600080fd5b6000611ffe85828601611d52565b925050602061200f85828601611caa565b9150509250929050565b61202281612807565b82525050565b61203181612819565b82525050565b600061204282612709565b61204c818561271f565b935061205c81856020860161288a565b61206581612a56565b840191505092915050565b600061207b82612714565b6120858185612730565b935061209581856020860161288a565b61209e81612a56565b840191505092915050565b60006120b482612714565b6120be8185612741565b93506120ce81856020860161288a565b80840191505092915050565b60006120e7603283612730565b91506120f282612a67565b604082019050919050565b600061210a602583612730565b915061211582612ab6565b604082019050919050565b600061212d601c83612730565b915061213882612b05565b602082019050919050565b6000612150602483612730565b915061215b82612b2e565b604082019050919050565b6000612173601983612730565b915061217e82612b7d565b602082019050919050565b6000612196602c83612730565b91506121a182612ba6565b604082019050919050565b60006121b9603883612730565b91506121c482612bf5565b604082019050919050565b60006121dc602a83612730565b91506121e782612c44565b604082019050919050565b60006121ff602983612730565b915061220a82612c93565b604082019050919050565b6000612222602e83612730565b915061222d82612ce2565b604082019050919050565b6000612245602083612730565b915061225082612d31565b602082019050919050565b6000612268603183612730565b915061227382612d5a565b604082019050919050565b600061228b602c83612730565b915061229682612da9565b604082019050919050565b60006122ae602383612730565b91506122b982612df8565b604082019050919050565b60006122d1602f83612730565b91506122dc82612e47565b604082019050919050565b60006122f4602183612730565b91506122ff82612e96565b604082019050919050565b6000612317602483612730565b915061232282612ee5565b604082019050919050565b600061233a603183612730565b915061234582612f34565b604082019050919050565b61235981612871565b82525050565b600061236b82856120a9565b915061237782846120a9565b91508190509392505050565b60006020820190506123986000830184612019565b92915050565b60006080820190506123b36000830187612019565b6123c06020830186612019565b6123cd6040830185612350565b81810360608301526123df8184612037565b905095945050505050565b60006020820190506123ff6000830184612028565b92915050565b6000602082019050818103600083015261241f8184612070565b905092915050565b60006020820190508181036000830152612440816120da565b9050919050565b60006020820190508181036000830152612460816120fd565b9050919050565b6000602082019050818103600083015261248081612120565b9050919050565b600060208201905081810360008301526124a081612143565b9050919050565b600060208201905081810360008301526124c081612166565b9050919050565b600060208201905081810360008301526124e081612189565b9050919050565b60006020820190508181036000830152612500816121ac565b9050919050565b60006020820190508181036000830152612520816121cf565b9050919050565b60006020820190508181036000830152612540816121f2565b9050919050565b6000602082019050818103600083015261256081612215565b9050919050565b6000602082019050818103600083015261258081612238565b9050919050565b600060208201905081810360008301526125a08161225b565b9050919050565b600060208201905081810360008301526125c08161227e565b9050919050565b600060208201905081810360008301526125e0816122a1565b9050919050565b60006020820190508181036000830152612600816122c4565b9050919050565b60006020820190508181036000830152612620816122e7565b9050919050565b600060208201905081810360008301526126408161230a565b9050919050565b600060208201905081810360008301526126608161232d565b9050919050565b600060208201905061267c6000830184612350565b92915050565b600061268c61269d565b905061269882826128ef565b919050565b6000604051905090565b600067ffffffffffffffff8211156126c2576126c1612a27565b5b6126cb82612a56565b9050602081019050919050565b600067ffffffffffffffff8211156126f3576126f2612a27565b5b6126fc82612a56565b9050602081019050919050565b600081519050919050565b600081519050919050565b600082825260208201905092915050565b600082825260208201905092915050565b600081905092915050565b600061275782612871565b915061276283612871565b9250827fffffffffffffffffffffffffffffffffffffffffffffffffffffffffffffffff038211156127975761279661299a565b5b828201905092915050565b60006127ad82612871565b91506127b883612871565b9250826127c8576127c76129c9565b5b828204905092915050565b60006127de82612871565b91506127e983612871565b9250828210156127fc576127fb61299a565b5b828203905092915050565b600061281282612851565b9050919050565b60008115159050919050565b60007fffffffff0000000000000000000000000000000000000000000000000000000082169050919050565b600073ffffffffffffffffffffffffffffffffffffffff82169050919050565b6000819050919050565b82818337600083830152505050565b60005b838110156128a857808201518184015260208101905061288d565b838111156128b7576000848401525b50505050565b600060028204905060018216806128d557607f821691505b602082108114156128e9576128e86129f8565b5b50919050565b6128f882612a56565b810181811067ffffffffffffffff8211171561291757612916612a27565b5b80604052505050565b600061292b82612871565b91507fffffffffffffffffffffffffffffffffffffffffffffffffffffffffffffffff82141561295e5761295d61299a565b5b600182019050919050565b600061297482612871565b915061297f83612871565b92508261298f5761298e6129c9565b5b828206905092915050565b7f4e487b7100000000000000000000000000000000000000000000000000000000600052601160045260246000fd5b7f4e487b7100000000000000000000000000000000000000000000000000000000600052601260045260246000fd5b7f4e487b7100000000000000000000000000000000000000000000000000000000600052602260045260246000fd5b7f4e487b7100000000000000000000000000000000000000000000000000000000600052604160045260246000fd5b6000601f19601f8301169050919050565b7f4552433732313a207472616e7366657220746f206e6f6e20455243373231526560008201527f63656976657220696d706c656d656e7465720000000000000000000000000000602082015250565b7f4552433732313a207472616e736665722066726f6d20696e636f72726563742060008201527f6f776e6572000000000000000000000000000000000000000000000000000000602082015250565b7f4552433732313a20746f6b656e20616c7265616479206d696e74656400000000600082015250565b7f4552433732313a207472616e7366657220746f20746865207a65726f2061646460008201527f7265737300000000000000000000000000000000000000000000000000000000602082015250565b7f4552433732313a20617070726f766520746f2063616c6c657200000000000000600082015250565b7f4552433732313a206f70657261746f7220717565727920666f72206e6f6e657860008201527f697374656e7420746f6b656e0000000000000000000000000000000000000000602082015250565b7f4552433732313a20617070726f76652063616c6c6572206973206e6f74206f7760008201527f6e6572206e6f7220617070726f76656420666f7220616c6c0000000000000000602082015250565b7f4552433732313a2062616c616e636520717565727920666f7220746865207a6560008201527f726f206164647265737300000000000000000000000000000000000000000000602082015250565b7f4552433732313a206f776e657220717565727920666f72206e6f6e657869737460008201527f656e7420746f6b656e0000000000000000000000000000000000000000000000602082015250565b7f45524337323155524953746f726167653a2055524920736574206f66206e6f6e60008201527f6578697374656e7420746f6b656e000000000000000000000000000000000000602082015250565b7f4552433732313a206d696e7420746f20746865207a65726f2061646472657373600082015250565b7f45524337323155524953746f726167653a2055524920717565727920666f722060008201527f6e6f6e6578697374656e7420746f6b656e000000000000000000000000000000602082015250565b7f4552433732313a20617070726f76656420717565727920666f72206e6f6e657860008201527f697374656e7420746f6b656e0000000000000000000000000000000000000000602082015250565b7f546f6b656e20616c726561647920686173206120726f79616c74696573206f7760008201527f6e65720000000000000000000000000000000000000000000000000000000000602082015250565b7f4552433732314d657461646174613a2055524920717565727920666f72206e6f60008201527f6e6578697374656e7420746f6b656e0000000000000000000000000000000000602082015250565b7f4552433732313a20617070726f76616c20746f2063757272656e74206f776e6560008201527f7200000000000000000000000000000000000000000000000000000000000000602082015250565b7f546f6b656e20616c726561647920686173206120636f6c6c656374696f6e206f60008201527f776e657200000000000000000000000000000000000000000000000000000000602082015250565b7f4552433732313a207472616e736665722063616c6c6572206973206e6f74206f60008201527f776e6572206e6f7220617070726f766564000000000000000000000000000000602082015250565b612f8c81612807565b8114612f9757600080fd5b50565b612fa381612819565b8114612fae57600080fd5b50565b612fba81612825565b8114612fc557600080fd5b50565b612fd181612871565b8114612fdc57600080fd5b5056fea26469706673582212200a485d2f7ea91a38e6cf0103a0b98885574f4a6be3049bf361b1c6a2fc7b468364736f6c63430008040033",
  "linkReferences": {},
  "deployedLinkReferences": {}
}