{
  "_format": "hh-sol-artifact-1",
  "contractName": "Marketplace",
  "sourceName": "src/solidity/contracts/Marketplace.sol",
  "abi": [
    {
      "inputs": [
        {
          "internalType": "uint256",
          "name": "_feeMarketplacePercent",
          "type": "uint256"
        },
        {
          "internalType": "uint256",
          "name": "_feeCollectionPercent",
          "type": "uint256"
        },
        {
          "internalType": "uint256",
          "name": "_feeRoyaltiesPercent",
          "type": "uint256"
        }
      ],
      "stateMutability": "nonpayable",
      "type": "constructor"
    },
    {
      "anonymous": false,
      "inputs": [
        {
          "indexed": true,
          "internalType": "uint256",
          "name": "tokenId",
          "type": "uint256"
        },
        {
          "indexed": false,
          "internalType": "address",
          "name": "nft",
          "type": "address"
        },
        {
          "indexed": false,
          "internalType": "uint256",
          "name": "price",
          "type": "uint256"
        },
        {
          "indexed": false,
          "internalType": "uint256",
          "name": "totalPrice",
          "type": "uint256"
        },
        {
          "indexed": true,
          "internalType": "address",
          "name": "seller",
          "type": "address"
        },
        {
          "indexed": true,
          "internalType": "address",
          "name": "buyer",
          "type": "address"
        }
      ],
      "name": "Bought",
      "type": "event"
    },
    {
      "anonymous": false,
      "inputs": [
        {
          "indexed": false,
          "internalType": "uint256",
          "name": "itemId",
          "type": "uint256"
        },
        {
          "indexed": false,
          "internalType": "uint256",
          "name": "tokenId",
          "type": "uint256"
        },
        {
          "indexed": false,
          "internalType": "uint256",
          "name": "price",
          "type": "uint256"
        },
        {
          "indexed": true,
          "internalType": "address",
          "name": "seller",
          "type": "address"
        }
      ],
      "name": "ItemOnSale",
      "type": "event"
    },
    {
      "anonymous": false,
      "inputs": [
        {
          "indexed": false,
          "internalType": "uint256",
          "name": "tokenId",
          "type": "uint256"
        },
        {
          "indexed": true,
          "internalType": "address",
          "name": "nft",
          "type": "address"
        },
        {
          "indexed": false,
          "internalType": "uint256",
          "name": "price",
          "type": "uint256"
        },
        {
          "indexed": true,
          "internalType": "address",
          "name": "seller",
          "type": "address"
        }
      ],
      "name": "Offered",
      "type": "event"
    },
    {
      "inputs": [
        {
          "internalType": "uint256",
          "name": "_feePercent",
          "type": "uint256"
        }
      ],
      "name": "changeFeePercent",
      "outputs": [],
      "stateMutability": "nonpayable",
      "type": "function"
    },
    {
      "inputs": [
        {
          "internalType": "uint256",
          "name": "_feeRoyaltiesPercent",
          "type": "uint256"
        }
      ],
      "name": "changeFeeRoyaltiesPercent",
      "outputs": [],
      "stateMutability": "nonpayable",
      "type": "function"
    },
    {
      "inputs": [],
      "name": "claimEarns",
      "outputs": [],
      "stateMutability": "nonpayable",
      "type": "function"
    },
    {
      "inputs": [],
      "name": "feeCollectionPercent",
      "outputs": [
        {
          "internalType": "uint256",
          "name": "",
          "type": "uint256"
        }
      ],
      "stateMutability": "view",
      "type": "function"
    },
    {
      "inputs": [],
      "name": "feeMarketplaceAccount",
      "outputs": [
        {
          "internalType": "address payable",
          "name": "",
          "type": "address"
        }
      ],
      "stateMutability": "view",
      "type": "function"
    },
    {
      "inputs": [],
      "name": "feeMarketplacePercent",
      "outputs": [
        {
          "internalType": "uint256",
          "name": "",
          "type": "uint256"
        }
      ],
      "stateMutability": "view",
      "type": "function"
    },
    {
      "inputs": [],
      "name": "feeRoyaltiesPercent",
      "outputs": [
        {
          "internalType": "uint256",
          "name": "",
          "type": "uint256"
        }
      ],
      "stateMutability": "view",
      "type": "function"
    },
    {
      "inputs": [
        {
          "internalType": "address",
          "name": "_address",
          "type": "address"
        }
      ],
      "name": "getAccountsBalance",
      "outputs": [
        {
          "internalType": "uint256",
          "name": "",
          "type": "uint256"
        }
      ],
      "stateMutability": "view",
      "type": "function"
    },
    {
      "inputs": [],
      "name": "getContractOwner",
      "outputs": [
        {
          "internalType": "address",
          "name": "",
          "type": "address"
        }
      ],
      "stateMutability": "view",
      "type": "function"
    },
    {
      "inputs": [
        {
          "internalType": "uint256",
          "name": "_tokenId",
          "type": "uint256"
        }
      ],
      "name": "getTotalFeeCollection",
      "outputs": [
        {
          "internalType": "uint256",
          "name": "",
          "type": "uint256"
        }
      ],
      "stateMutability": "view",
      "type": "function"
    },
    {
      "inputs": [
        {
          "internalType": "uint256",
          "name": "_tokenId",
          "type": "uint256"
        }
      ],
      "name": "getTotalFeeMarketplace",
      "outputs": [
        {
          "internalType": "uint256",
          "name": "",
          "type": "uint256"
        }
      ],
      "stateMutability": "view",
      "type": "function"
    },
    {
      "inputs": [
        {
          "internalType": "uint256",
          "name": "_tokenId",
          "type": "uint256"
        }
      ],
      "name": "getTotalFeeRoyalties",
      "outputs": [
        {
          "internalType": "uint256",
          "name": "",
          "type": "uint256"
        }
      ],
      "stateMutability": "view",
      "type": "function"
    },
    {
      "inputs": [
        {
          "internalType": "uint256",
          "name": "_tokenId",
          "type": "uint256"
        }
      ],
      "name": "getTotalPrice",
      "outputs": [
        {
          "internalType": "uint256",
          "name": "",
          "type": "uint256"
        }
      ],
      "stateMutability": "view",
      "type": "function"
    },
    {
      "inputs": [],
      "name": "itemCount",
      "outputs": [
        {
          "internalType": "uint256",
          "name": "",
          "type": "uint256"
        }
      ],
      "stateMutability": "view",
      "type": "function"
    },
    {
      "inputs": [
        {
          "internalType": "uint256",
          "name": "",
          "type": "uint256"
        }
      ],
      "name": "items",
      "outputs": [
        {
          "internalType": "uint256",
          "name": "tokenId",
          "type": "uint256"
        },
        {
          "internalType": "contract IERC721Extend",
          "name": "nft",
          "type": "address"
        },
        {
          "internalType": "uint256",
          "name": "price",
          "type": "uint256"
        },
        {
          "internalType": "uint256",
          "name": "latestPrice",
          "type": "uint256"
        },
        {
          "internalType": "address payable",
          "name": "seller",
          "type": "address"
        },
        {
          "internalType": "bool",
          "name": "onSale",
          "type": "bool"
        }
      ],
      "stateMutability": "view",
      "type": "function"
    },
    {
      "inputs": [
        {
          "internalType": "string[]",
          "name": "_tokenURIs",
          "type": "string[]"
        },
        {
          "internalType": "address payable",
          "name": "_collectionOwner",
          "type": "address"
        },
        {
          "internalType": "uint256",
          "name": "_percentageEarnCollection",
          "type": "uint256"
        },
        {
          "internalType": "contract INFT",
          "name": "_nft",
          "type": "address"
        },
        {
          "internalType": "contract IERC721Extend",
          "name": "_erc721",
          "type": "address"
        },
        {
          "internalType": "uint256[]",
          "name": "_prices",
          "type": "uint256[]"
        }
      ],
      "name": "mintCollection",
      "outputs": [],
      "stateMutability": "nonpayable",
      "type": "function"
    },
    {
      "inputs": [
        {
          "internalType": "uint256",
          "name": "_tokenId",
          "type": "uint256"
        }
      ],
      "name": "purchaseItem",
      "outputs": [],
      "stateMutability": "payable",
      "type": "function"
    },
    {
      "inputs": [
        {
          "internalType": "uint256",
          "name": "_tokenId",
          "type": "uint256"
        },
        {
          "internalType": "uint256",
          "name": "_price",
          "type": "uint256"
        }
      ],
      "name": "setItemOnSale",
      "outputs": [],
      "stateMutability": "nonpayable",
      "type": "function"
    }
  ],
  "bytecode": "0x60c06040523480156200001157600080fd5b5060405162003a1438038062003a148339818101604052810190620000379190620000ed565b600160008190555033600160006101000a81548173ffffffffffffffffffffffffffffffffffffffff021916908373ffffffffffffffffffffffffffffffffffffffff1602179055503373ffffffffffffffffffffffffffffffffffffffff1660808173ffffffffffffffffffffffffffffffffffffffff1660601b81525050826002819055508160a081815250508060038190555050505062000167565b600081519050620000e7816200014d565b92915050565b6000806000606084860312156200010357600080fd5b60006200011386828701620000d6565b93505060206200012686828701620000d6565b92505060406200013986828701620000d6565b9150509250925092565b6000819050919050565b620001588162000143565b81146200016457600080fd5b50565b60805160601c60a051613868620001ac60003960008181610741015281816109a701526114700152600081816118af015281816122a1015261254f01526138686000f3fe6080604052600436106101095760003560e01c80639906685a11610095578063d38ea5bf11610064578063d38ea5bf14610370578063e08ce3be1461038c578063e9342cd8146103c9578063edc5fec414610406578063f4039b721461042f57610109565b80639906685a1461029f578063bfb231d2146102c8578063c1b155ef1461030a578063ca7dd3751461033357610109565b806345c77844116100dc57806345c77844146101ca578063662fc088146102075780636bfb0d011461023257806389768e141461025d5780638a14d4e41461027457610109565b8063275425471461010e57806334eddf3e146101395780633540955014610162578063442890d51461019f575b600080fd5b34801561011a57600080fd5b5061012361045a565b6040516101309190612f35565b60405180910390f35b34801561014557600080fd5b50610160600480360381019061015b91906128bd565b610460565b005b34801561016e57600080fd5b50610189600480360381019061018491906128bd565b61053d565b6040516101969190612f35565b60405180910390f35b3480156101ab57600080fd5b506101b46107b0565b6040516101c19190612c0e565b60405180910390f35b3480156101d657600080fd5b506101f160048036038101906101ec91906127b2565b61083a565b6040516101fe9190612f35565b60405180910390f35b34801561021357600080fd5b5061021c610883565b6040516102299190612f35565b60405180910390f35b34801561023e57600080fd5b50610247610889565b6040516102549190612f35565b60405180910390f35b34801561026957600080fd5b5061027261088f565b005b34801561028057600080fd5b506102896109a5565b6040516102969190612f35565b60405180910390f35b3480156102ab57600080fd5b506102c660048036038101906102c19190612804565b6109c9565b005b3480156102d457600080fd5b506102ef60048036038101906102ea91906128bd565b6110a5565b60405161030196959493929190612f79565b60405180910390f35b34801561031657600080fd5b50610331600480360381019061032c91906128bd565b61112e565b005b34801561033f57600080fd5b5061035a600480360381019061035591906128bd565b61120b565b6040516103679190612f35565b60405180910390f35b61038a600480360381019061038591906128bd565b61163f565b005b34801561039857600080fd5b506103b360048036038101906103ae91906128bd565b61202b565b6040516103c09190612f35565b60405180910390f35b3480156103d557600080fd5b506103f060048036038101906103eb91906128bd565b612280565b6040516103fd9190612f35565b60405180910390f35b34801561041257600080fd5b5061042d6004803603810190610428919061290f565b612344565b005b34801561043b57600080fd5b5061044461254d565b6040516104519190612c29565b60405180910390f35b60035481565b600160009054906101000a900473ffffffffffffffffffffffffffffffffffffffff1673ffffffffffffffffffffffffffffffffffffffff163373ffffffffffffffffffffffffffffffffffffffff16146104f0576040517f08c379a00000000000000000000000000000000000000000000000000000000081526004016104e790612dd5565b60405180910390fd5b60008111610533576040517f08c379a000000000000000000000000000000000000000000000000000000000815260040161052a90612e15565b60405180910390fd5b8060028190555050565b600080600560008481526020019081526020016000206040518060c0016040529081600082015481526020016001820160009054906101000a900473ffffffffffffffffffffffffffffffffffffffff1673ffffffffffffffffffffffffffffffffffffffff1673ffffffffffffffffffffffffffffffffffffffff16815260200160028201548152602001600382015481526020016004820160009054906101000a900473ffffffffffffffffffffffffffffffffffffffff1673ffffffffffffffffffffffffffffffffffffffff1673ffffffffffffffffffffffffffffffffffffffff1681526020016004820160149054906101000a900460ff1615151515815250509050600060056000858152602001908152602001600020600001549050600080836020015173ffffffffffffffffffffffffffffffffffffffff1663394120c0846040518263ffffffff1660e01b81526004016106a09190612f35565b60206040518083038186803b1580156106b857600080fd5b505afa1580156106cc573d6000803e3d6000fd5b505050506040513d601f19601f820116820180604052508101906106f091906127db565b9050600073ffffffffffffffffffffffffffffffffffffffff168173ffffffffffffffffffffffffffffffffffffffff16146107a457600560008781526020019081526020016000206002015460647f0000000000000000000000000000000000000000000000000000000000000000606461076c9190613104565b600560008a81526020019081526020016000206002015461078d919061318b565b610797919061315a565b6107a191906131e5565b91505b81945050505050919050565b6000600160009054906101000a900473ffffffffffffffffffffffffffffffffffffffff1673ffffffffffffffffffffffffffffffffffffffff163373ffffffffffffffffffffffffffffffffffffffff16141561083257600160009054906101000a900473ffffffffffffffffffffffffffffffffffffffff169050610837565b600090505b90565b6000600660008373ffffffffffffffffffffffffffffffffffffffff1673ffffffffffffffffffffffffffffffffffffffff168152602001908152602001600020549050919050565b60025481565b60045481565b6000600660003373ffffffffffffffffffffffffffffffffffffffff1673ffffffffffffffffffffffffffffffffffffffff16815260200190815260200160002054905060008111610916576040517f08c379a000000000000000000000000000000000000000000000000000000000815260040161090d90612f15565b60405180910390fd5b6000600660003373ffffffffffffffffffffffffffffffffffffffff1673ffffffffffffffffffffffffffffffffffffffff168152602001908152602001600020819055503373ffffffffffffffffffffffffffffffffffffffff166108fc829081150290604051600060405180830381858888f193505050501580156109a1573d6000803e3d6000fd5b5050565b7f000000000000000000000000000000000000000000000000000000000000000081565b60026000541415610a0f576040517f08c379a0000000000000000000000000000000000000000000000000000000008152600401610a0690612eb5565b60405180910390fd5b6002600081905550600160009054906101000a900473ffffffffffffffffffffffffffffffffffffffff1673ffffffffffffffffffffffffffffffffffffffff163373ffffffffffffffffffffffffffffffffffffffff1614610aa7576040517f08c379a0000000000000000000000000000000000000000000000000000000008152600401610a9e90612dd5565b60405180910390fd5b6000815111610aeb576040517f08c379a0000000000000000000000000000000000000000000000000000000008152600401610ae290612e35565b60405180910390fd5b6000865111610b2f576040517f08c379a0000000000000000000000000000000000000000000000000000000008152600401610b2690612e95565b60405180910390fd5b8551815114610b73576040517f08c379a0000000000000000000000000000000000000000000000000000000008152600401610b6a90612db5565b60405180910390fd5b60008410158015610b85575060648411155b610bc4576040517f08c379a0000000000000000000000000000000000000000000000000000000008152600401610bbb90612ed5565b60405180910390fd5b6000805b8751811015611093576000838281518110610c0c577f4e487b7100000000000000000000000000000000000000000000000000000000600052603260045260246000fd5b602002602001015111610c54576040517f08c379a0000000000000000000000000000000000000000000000000000000008152600401610c4b90612ef5565b60405180910390fd5b6000888281518110610c8f577f4e487b7100000000000000000000000000000000000000000000000000000000600052603260045260246000fd5b60200260200101515111610cd8576040517f08c379a0000000000000000000000000000000000000000000000000000000008152600401610ccf90612df5565b60405180910390fd5b8473ffffffffffffffffffffffffffffffffffffffff16633a886180898381518110610d2d577f4e487b7100000000000000000000000000000000000000000000000000000000600052603260045260246000fd5b6020026020010151338a8a6040518563ffffffff1660e01b8152600401610d579493929190612ce9565b602060405180830381600087803b158015610d7157600080fd5b505af1158015610d85573d6000803e3d6000fd5b505050506040513d601f19601f82011682018060405250810190610da991906128e6565b915060046000815480929190610dbe90613364565b91905055508373ffffffffffffffffffffffffffffffffffffffff166323b872dd3330856040518463ffffffff1660e01b8152600401610e0093929190612c7b565b600060405180830381600087803b158015610e1a57600080fd5b505af1158015610e2e573d6000803e3d6000fd5b505050506040518060c0016040528060045481526020018573ffffffffffffffffffffffffffffffffffffffff168152602001848381518110610e9a577f4e487b7100000000000000000000000000000000000000000000000000000000600052603260045260246000fd5b60200260200101518152602001600081526020013073ffffffffffffffffffffffffffffffffffffffff168152602001600115158152506005600060045481526020019081526020016000206000820151816000015560208201518160010160006101000a81548173ffffffffffffffffffffffffffffffffffffffff021916908373ffffffffffffffffffffffffffffffffffffffff160217905550604082015181600201556060820151816003015560808201518160040160006101000a81548173ffffffffffffffffffffffffffffffffffffffff021916908373ffffffffffffffffffffffffffffffffffffffff16021790555060a08201518160040160146101000a81548160ff021916908315150217905550905050600160009054906101000a900473ffffffffffffffffffffffffffffffffffffffff1673ffffffffffffffffffffffffffffffffffffffff168573ffffffffffffffffffffffffffffffffffffffff167f10f1b72b2e817956e912bed19a620c275e526fc6088975d0c498d788277facef600454868581518110611062577f4e487b7100000000000000000000000000000000000000000000000000000000600052603260045260246000fd5b6020026020010151604051611078929190612fda565b60405180910390a3808061108b90613364565b915050610bc8565b50506001600081905550505050505050565b60056020528060005260406000206000915090508060000154908060010160009054906101000a900473ffffffffffffffffffffffffffffffffffffffff16908060020154908060030154908060040160009054906101000a900473ffffffffffffffffffffffffffffffffffffffff16908060040160149054906101000a900460ff16905086565b600160009054906101000a900473ffffffffffffffffffffffffffffffffffffffff1673ffffffffffffffffffffffffffffffffffffffff163373ffffffffffffffffffffffffffffffffffffffff16146111be576040517f08c379a00000000000000000000000000000000000000000000000000000000081526004016111b590612dd5565b60405180910390fd5b60008111611201576040517f08c379a00000000000000000000000000000000000000000000000000000000081526004016111f890612e75565b60405180910390fd5b8060038190555050565b600080600560008481526020019081526020016000206040518060c0016040529081600082015481526020016001820160009054906101000a900473ffffffffffffffffffffffffffffffffffffffff1673ffffffffffffffffffffffffffffffffffffffff1673ffffffffffffffffffffffffffffffffffffffff16815260200160028201548152602001600382015481526020016004820160009054906101000a900473ffffffffffffffffffffffffffffffffffffffff1673ffffffffffffffffffffffffffffffffffffffff1673ffffffffffffffffffffffffffffffffffffffff1681526020016004820160149054906101000a900460ff161515151581525050905060006005600085815260200190815260200160002060000154905060006005600086815260200190815260200160002060020154606460025460646113589190613104565b6005600089815260200190815260200160002060020154611379919061318b565b611383919061315a565b61138d91906131e5565b9050600080846020015173ffffffffffffffffffffffffffffffffffffffff1663394120c0856040518263ffffffff1660e01b81526004016113cf9190612f35565b60206040518083038186803b1580156113e757600080fd5b505afa1580156113fb573d6000803e3d6000fd5b505050506040513d601f19601f8201168201806040525081019061141f91906127db565b9050600073ffffffffffffffffffffffffffffffffffffffff168173ffffffffffffffffffffffffffffffffffffffff16146114d357600560008881526020019081526020016000206002015460647f0000000000000000000000000000000000000000000000000000000000000000606461149b9190613104565b600560008b8152602001908152602001600020600201546114bc919061318b565b6114c6919061315a565b6114d091906131e5565b91505b600080866020015173ffffffffffffffffffffffffffffffffffffffff16634567c4ff876040518263ffffffff1660e01b81526004016115139190612f35565b60206040518083038186803b15801561152b57600080fd5b505afa15801561153f573d6000803e3d6000fd5b505050506040513d601f19601f8201168201806040525081019061156391906127db565b9050600073ffffffffffffffffffffffffffffffffffffffff168173ffffffffffffffffffffffffffffffffffffffff16146115f957600560008a815260200190815260200160002060020154606460035460646115c19190613104565b600560008d8152602001908152602001600020600201546115e2919061318b565b6115ec919061315a565b6115f691906131e5565b91505b818486600560008d81526020019081526020016000206002015461161d9190613104565b6116279190613104565b6116319190613104565b975050505050505050919050565b60026000541415611685576040517f08c379a000000000000000000000000000000000000000000000000000000000815260040161167c90612eb5565b60405180910390fd5b600260008190555060008111801561169f57506004548111155b6116de576040517f08c379a00000000000000000000000000000000000000000000000000000000081526004016116d590612d75565b60405180910390fd5b6116e78161120b565b341015611729576040517f08c379a000000000000000000000000000000000000000000000000000000000815260040161172090612d55565b60405180910390fd5b6005600082815260200190815260200160002060040160149054906101000a900460ff1661178c576040517f08c379a000000000000000000000000000000000000000000000000000000000815260040161178390612e55565b60405180910390fd5b6000600560008381526020019081526020016000206040518060c0016040529081600082015481526020016001820160009054906101000a900473ffffffffffffffffffffffffffffffffffffffff1673ffffffffffffffffffffffffffffffffffffffff1673ffffffffffffffffffffffffffffffffffffffff16815260200160028201548152602001600382015481526020016004820160009054906101000a900473ffffffffffffffffffffffffffffffffffffffff1673ffffffffffffffffffffffffffffffffffffffff1673ffffffffffffffffffffffffffffffffffffffff1681526020016004820160149054906101000a900460ff1615151515815250509050600061189e8361120b565b90506118a983612280565b600660007f000000000000000000000000000000000000000000000000000000000000000073ffffffffffffffffffffffffffffffffffffffff1673ffffffffffffffffffffffffffffffffffffffff16815260200190815260200160002060008282546119179190613104565b925050819055506119278361120b565b6005600085815260200190815260200160002060030181905550600061194c8461053d565b905060006005600086815260200190815260200160002060010160009054906101000a900473ffffffffffffffffffffffffffffffffffffffff1673ffffffffffffffffffffffffffffffffffffffff1663394120c085600001516040518263ffffffff1660e01b81526004016119c39190612f35565b60206040518083038186803b1580156119db57600080fd5b505afa1580156119ef573d6000803e3d6000fd5b505050506040513d601f19601f82011682018060405250810190611a1391906127db565b9050600082118015611a525750600073ffffffffffffffffffffffffffffffffffffffff168173ffffffffffffffffffffffffffffffffffffffff1614155b15611ab657611a608561053d565b600660008373ffffffffffffffffffffffffffffffffffffffff1673ffffffffffffffffffffffffffffffffffffffff1681526020019081526020016000206000828254611aae9190613104565b925050819055505b6000846020015173ffffffffffffffffffffffffffffffffffffffff16634567c4ff86600001516040518263ffffffff1660e01b8152600401611af99190612f35565b60206040518083038186803b158015611b1157600080fd5b505afa158015611b25573d6000803e3d6000fd5b505050506040513d601f19601f82011682018060405250810190611b4991906127db565b90506000611b568761202b565b9050600073ffffffffffffffffffffffffffffffffffffffff168273ffffffffffffffffffffffffffffffffffffffff161415611c39576005600088815260200190815260200160002060010160009054906101000a900473ffffffffffffffffffffffffffffffffffffffff1673ffffffffffffffffffffffffffffffffffffffff1663b192a7968760000151336040518363ffffffff1660e01b8152600401611c02929190612f50565b600060405180830381600087803b158015611c1c57600080fd5b505af1158015611c30573d6000803e3d6000fd5b50505050611c9a565b6000811115611c995780600660008473ffffffffffffffffffffffffffffffffffffffff1673ffffffffffffffffffffffffffffffffffffffff1681526020019081526020016000206000828254611c919190613104565b925050819055505b5b336005600089815260200190815260200160002060040160006101000a81548173ffffffffffffffffffffffffffffffffffffffff021916908373ffffffffffffffffffffffffffffffffffffffff16021790555060006005600089815260200190815260200160002060040160146101000a81548160ff0219169083151502179055506000866040015190503073ffffffffffffffffffffffffffffffffffffffff16876080015173ffffffffffffffffffffffffffffffffffffffff161415611ece576000600560008a815260200190815260200160002060010160009054906101000a900473ffffffffffffffffffffffffffffffffffffffff1673ffffffffffffffffffffffffffffffffffffffff1663d35238f7866040518263ffffffff1660e01b8152600401611dd09190612c0e565b60206040518083038186803b158015611de857600080fd5b505afa158015611dfc573d6000803e3d6000fd5b505050506040513d601f19601f82011682018060405250810190611e2091906128e6565b90506000811115611ecc57600088604001516064836064611e419190613104565b8b60400151611e50919061318b565b611e5a919061315a565b611e6491906131e5565b905080600660008873ffffffffffffffffffffffffffffffffffffffff1673ffffffffffffffffffffffffffffffffffffffff1681526020019081526020016000206000828254611eb59190613104565b925050819055508083611ec891906131e5565b9250505b505b8060066000896080015173ffffffffffffffffffffffffffffffffffffffff1673ffffffffffffffffffffffffffffffffffffffff1681526020019081526020016000206000828254611f219190613104565b92505081905550866020015173ffffffffffffffffffffffffffffffffffffffff166323b872dd8860800151338a600001516040518463ffffffff1660e01b8152600401611f7193929190612c44565b600060405180830381600087803b158015611f8b57600080fd5b505af1158015611f9f573d6000803e3d6000fd5b505050503373ffffffffffffffffffffffffffffffffffffffff16876080015173ffffffffffffffffffffffffffffffffffffffff16897f8b4c9c8a607d67b321582dd8461041b1dc2ceeca70c8b7f37f8e02095cf2e76d8a602001518b604001518b60405161201193929190612cb2565b60405180910390a450505050505050600160008190555050565b600080600560008481526020019081526020016000206040518060c0016040529081600082015481526020016001820160009054906101000a900473ffffffffffffffffffffffffffffffffffffffff1673ffffffffffffffffffffffffffffffffffffffff1673ffffffffffffffffffffffffffffffffffffffff16815260200160028201548152602001600382015481526020016004820160009054906101000a900473ffffffffffffffffffffffffffffffffffffffff1673ffffffffffffffffffffffffffffffffffffffff1673ffffffffffffffffffffffffffffffffffffffff1681526020016004820160149054906101000a900460ff1615151515815250509050600060056000858152602001908152602001600020600001549050600080836020015173ffffffffffffffffffffffffffffffffffffffff16634567c4ff846040518263ffffffff1660e01b815260040161218e9190612f35565b60206040518083038186803b1580156121a657600080fd5b505afa1580156121ba573d6000803e3d6000fd5b505050506040513d601f19601f820116820180604052508101906121de91906127db565b9050600073ffffffffffffffffffffffffffffffffffffffff168173ffffffffffffffffffffffffffffffffffffffff16146122745760056000878152602001908152602001600020600201546064600354606461223c9190613104565b600560008a81526020019081526020016000206002015461225d919061318b565b612267919061315a565b61227191906131e5565b91505b81945050505050919050565b60008060009050600073ffffffffffffffffffffffffffffffffffffffff167f000000000000000000000000000000000000000000000000000000000000000073ffffffffffffffffffffffffffffffffffffffff161461233b576005600084815260200190815260200160002060020154606460025460646123039190613104565b6005600087815260200190815260200160002060020154612324919061318b565b61232e919061315a565b61233891906131e5565b90505b80915050919050565b6002600054141561238a576040517f08c379a000000000000000000000000000000000000000000000000000000000815260040161238190612eb5565b60405180910390fd5b60026000819055503373ffffffffffffffffffffffffffffffffffffffff166005600084815260200190815260200160002060040160009054906101000a900473ffffffffffffffffffffffffffffffffffffffff1673ffffffffffffffffffffffffffffffffffffffff1614612436576040517f08c379a000000000000000000000000000000000000000000000000000000000815260040161242d90612d35565b60405180910390fd5b60008111612479576040517f08c379a000000000000000000000000000000000000000000000000000000000815260040161247090612d95565b60405180910390fd5b80600560008481526020019081526020016000206002018190555060016005600084815260200190815260200160002060040160146101000a81548160ff0219169083151502179055503373ffffffffffffffffffffffffffffffffffffffff167ff26537a6e5a17eabfee9773407055c5ce0cd8b36ad2f658f5e819a1f556d5150836005600086815260200190815260200160002060000154600560008781526020019081526020016000206002015460405161253993929190613003565b60405180910390a260016000819055505050565b7f000000000000000000000000000000000000000000000000000000000000000081565b600061258461257f8461305f565b61303a565b905080838252602082019050828560208602820111156125a357600080fd5b60005b858110156125ed57813567ffffffffffffffff8111156125c557600080fd5b8086016125d2898261275e565b855260208501945060208401935050506001810190506125a6565b5050509392505050565b600061260a6126058461308b565b61303a565b9050808382526020820190508285602086028201111561262957600080fd5b60005b85811015612659578161263f8882612788565b84526020840193506020830192505060018101905061262c565b5050509392505050565b6000612676612671846130b7565b61303a565b90508281526020810184848401111561268e57600080fd5b6126998482856132f1565b509392505050565b6000813590506126b0816137bf565b92915050565b6000815190506126c5816137bf565b92915050565b6000813590506126da816137d6565b92915050565b600082601f8301126126f157600080fd5b8135612701848260208601612571565b91505092915050565b600082601f83011261271b57600080fd5b813561272b8482602086016125f7565b91505092915050565b600081359050612743816137ed565b92915050565b60008135905061275881613804565b92915050565b600082601f83011261276f57600080fd5b813561277f848260208601612663565b91505092915050565b6000813590506127978161381b565b92915050565b6000815190506127ac8161381b565b92915050565b6000602082840312156127c457600080fd5b60006127d2848285016126a1565b91505092915050565b6000602082840312156127ed57600080fd5b60006127fb848285016126b6565b91505092915050565b60008060008060008060c0878903121561281d57600080fd5b600087013567ffffffffffffffff81111561283757600080fd5b61284389828a016126e0565b965050602061285489828a016126cb565b955050604061286589828a01612788565b945050606061287689828a01612749565b935050608061288789828a01612734565b92505060a087013567ffffffffffffffff8111156128a457600080fd5b6128b089828a0161270a565b9150509295509295509295565b6000602082840312156128cf57600080fd5b60006128dd84828501612788565b91505092915050565b6000602082840312156128f857600080fd5b60006129068482850161279d565b91505092915050565b6000806040838503121561292257600080fd5b600061293085828601612788565b925050602061294185828601612788565b9150509250929050565b61295481613297565b82525050565b6129638161322b565b82525050565b61297281613219565b82525050565b6129818161323d565b82525050565b612990816132a9565b82525050565b60006129a1826130e8565b6129ab81856130f3565b93506129bb818560208601613300565b6129c48161343a565b840191505092915050565b60006129dc602d836130f3565b91506129e78261344b565b604082019050919050565b60006129ff6033836130f3565b9150612a0a8261349a565b604082019050919050565b6000612a226013836130f3565b9150612a2d826134e9565b602082019050919050565b6000612a45601f836130f3565b9150612a5082613512565b602082019050919050565b6000612a686023836130f3565b9150612a738261353b565b604082019050919050565b6000612a8b6015836130f3565b9150612a968261358a565b602082019050919050565b6000612aae601b836130f3565b9150612ab9826135b3565b602082019050919050565b6000612ad16022836130f3565b9150612adc826135dc565b604082019050919050565b6000612af4600d836130f3565b9150612aff8261362b565b602082019050919050565b6000612b176014836130f3565b9150612b2282613654565b602082019050919050565b6000612b3a602b836130f3565b9150612b458261367d565b604082019050919050565b6000612b5d6011836130f3565b9150612b68826136cc565b602082019050919050565b6000612b80601f836130f3565b9150612b8b826136f5565b602082019050919050565b6000612ba3602b836130f3565b9150612bae8261371e565b604082019050919050565b6000612bc66020836130f3565b9150612bd18261376d565b602082019050919050565b6000612be96016836130f3565b9150612bf482613796565b602082019050919050565b612c088161328d565b82525050565b6000602082019050612c236000830184612969565b92915050565b6000602082019050612c3e600083018461295a565b92915050565b6000606082019050612c59600083018661294b565b612c666020830185612969565b612c736040830184612bff565b949350505050565b6000606082019050612c906000830186612969565b612c9d6020830185612969565b612caa6040830184612bff565b949350505050565b6000606082019050612cc76000830186612969565b612cd46020830185612bff565b612ce16040830184612bff565b949350505050565b60006080820190508181036000830152612d038187612996565b9050612d126020830186612969565b612d1f604083018561294b565b612d2c6060830184612bff565b95945050505050565b60006020820190508181036000830152612d4e816129cf565b9050919050565b60006020820190508181036000830152612d6e816129f2565b9050919050565b60006020820190508181036000830152612d8e81612a15565b9050919050565b60006020820190508181036000830152612dae81612a38565b9050919050565b60006020820190508181036000830152612dce81612a5b565b9050919050565b60006020820190508181036000830152612dee81612a7e565b9050919050565b60006020820190508181036000830152612e0e81612aa1565b9050919050565b60006020820190508181036000830152612e2e81612ac4565b9050919050565b60006020820190508181036000830152612e4e81612ae7565b9050919050565b60006020820190508181036000830152612e6e81612b0a565b9050919050565b60006020820190508181036000830152612e8e81612b2d565b9050919050565b60006020820190508181036000830152612eae81612b50565b9050919050565b60006020820190508181036000830152612ece81612b73565b9050919050565b60006020820190508181036000830152612eee81612b96565b9050919050565b60006020820190508181036000830152612f0e81612bb9565b9050919050565b60006020820190508181036000830152612f2e81612bdc565b9050919050565b6000602082019050612f4a6000830184612bff565b92915050565b6000604082019050612f656000830185612bff565b612f726020830184612969565b9392505050565b600060c082019050612f8e6000830189612bff565b612f9b6020830188612987565b612fa86040830187612bff565b612fb56060830186612bff565b612fc2608083018561295a565b612fcf60a0830184612978565b979650505050505050565b6000604082019050612fef6000830185612bff565b612ffc6020830184612bff565b9392505050565b60006060820190506130186000830186612bff565b6130256020830185612bff565b6130326040830184612bff565b949350505050565b6000613044613055565b90506130508282613333565b919050565b6000604051905090565b600067ffffffffffffffff82111561307a5761307961340b565b5b602082029050602081019050919050565b600067ffffffffffffffff8211156130a6576130a561340b565b5b602082029050602081019050919050565b600067ffffffffffffffff8211156130d2576130d161340b565b5b6130db8261343a565b9050602081019050919050565b600081519050919050565b600082825260208201905092915050565b600061310f8261328d565b915061311a8361328d565b9250827fffffffffffffffffffffffffffffffffffffffffffffffffffffffffffffffff0382111561314f5761314e6133ad565b5b828201905092915050565b60006131658261328d565b91506131708361328d565b9250826131805761317f6133dc565b5b828204905092915050565b60006131968261328d565b91506131a18361328d565b9250817fffffffffffffffffffffffffffffffffffffffffffffffffffffffffffffffff04831182151516156131da576131d96133ad565b5b828202905092915050565b60006131f08261328d565b91506131fb8361328d565b92508282101561320e5761320d6133ad565b5b828203905092915050565b60006132248261326d565b9050919050565b60006132368261326d565b9050919050565b60008115159050919050565b600061325482613219565b9050919050565b600061326682613219565b9050919050565b600073ffffffffffffffffffffffffffffffffffffffff82169050919050565b6000819050919050565b60006132a2826132cd565b9050919050565b60006132b4826132bb565b9050919050565b60006132c68261326d565b9050919050565b60006132d8826132df565b9050919050565b60006132ea8261326d565b9050919050565b82818337600083830152505050565b60005b8381101561331e578082015181840152602081019050613303565b8381111561332d576000848401525b50505050565b61333c8261343a565b810181811067ffffffffffffffff8211171561335b5761335a61340b565b5b80604052505050565b600061336f8261328d565b91507fffffffffffffffffffffffffffffffffffffffffffffffffffffffffffffffff8214156133a2576133a16133ad565b5b600182019050919050565b7f4e487b7100000000000000000000000000000000000000000000000000000000600052601160045260246000fd5b7f4e487b7100000000000000000000000000000000000000000000000000000000600052601260045260246000fd5b7f4e487b7100000000000000000000000000000000000000000000000000000000600052604160045260246000fd5b6000601f19601f8301169050919050565b7f796f752063616e277420736574206f6e2073616c65206974656d73206f66206160008201527f6e6f74686572206f776e65727300000000000000000000000000000000000000602082015250565b7f6e6f7420656e6f676820657468657220746f20636f766572206974656d20707260008201527f69636520616e64206d61726b6574206665657300000000000000000000000000602082015250565b7f6974656d20646f65736e27742065786973747300000000000000000000000000600082015250565b7f5072696365206d7573742062652067726561746572207468616e207a65726f00600082015250565b7f70726963657320616e6420746f6b656e2055524973206d757374206265206d6160008201527f7463680000000000000000000000000000000000000000000000000000000000602082015250565b7f596f7520617265206e6f7420746865206f776e65720000000000000000000000600082015250565b7f546f6b656e20555249206d757374206e6f7420626520656d7074790000000000600082015250565b7f4665652070657263656e74206d7573742062652067726561746572207468616e60008201527f2030000000000000000000000000000000000000000000000000000000000000602082015250565b7f507269636573206e656564656400000000000000000000000000000000000000600082015250565b7f546f6b656e206973206e6f74206f6e2073616c65000000000000000000000000600082015250565b7f46656520526f79616c7469652070657263656e74206d7573742062652067726560008201527f61746572207468616e2030000000000000000000000000000000000000000000602082015250565b7f546f6b656e2055524973206e6565646564000000000000000000000000000000600082015250565b7f5265656e7472616e637947756172643a207265656e7472616e742063616c6c00600082015250565b7f50657263656e74616765204561726e20436f6c6c656374696f6e206d7573742060008201527f6265203020746f20313030000000000000000000000000000000000000000000602082015250565b7f507269636573206d7573742062652067726561746572207468616e207a65726f600082015250565b7f596f7520646f206e6f74206861766520666f756e647300000000000000000000600082015250565b6137c881613219565b81146137d357600080fd5b50565b6137df8161322b565b81146137ea57600080fd5b50565b6137f681613249565b811461380157600080fd5b50565b61380d8161325b565b811461381857600080fd5b50565b6138248161328d565b811461382f57600080fd5b5056fea26469706673582212202efdb81b37f124778b6008dd3f8da6f19fead61899651a7f92ddd6fc43599bc064736f6c63430008040033",
  "linkReferences": {},
  "deployedLinkReferences": {}
}