{
  "_format": "hh-sol-artifact-1",
  "contractName": "NFT",
  "sourceName": "src/solidity/contracts/NFT.sol",
  "abi": [
    {
      "inputs": [],
      "stateMutability": "nonpayable",
      "type": "constructor"
    },
    {
      "anonymous": false,
      "inputs": [
        {
          "indexed": true,
          "internalType": "address",
          "name": "owner",
          "type": "address"
        },
        {
          "indexed": true,
          "internalType": "address",
          "name": "approved",
          "type": "address"
        },
        {
          "indexed": true,
          "internalType": "uint256",
          "name": "tokenId",
          "type": "uint256"
        }
      ],
      "name": "Approval",
      "type": "event"
    },
    {
      "anonymous": false,
      "inputs": [
        {
          "indexed": true,
          "internalType": "address",
          "name": "owner",
          "type": "address"
        },
        {
          "indexed": true,
          "internalType": "address",
          "name": "operator",
          "type": "address"
        },
        {
          "indexed": false,
          "internalType": "bool",
          "name": "approved",
          "type": "bool"
        }
      ],
      "name": "ApprovalForAll",
      "type": "event"
    },
    {
      "anonymous": false,
      "inputs": [
        {
          "indexed": true,
          "internalType": "address",
          "name": "from",
          "type": "address"
        },
        {
          "indexed": true,
          "internalType": "address",
          "name": "to",
          "type": "address"
        },
        {
          "indexed": true,
          "internalType": "uint256",
          "name": "tokenId",
          "type": "uint256"
        }
      ],
      "name": "Transfer",
      "type": "event"
    },
    {
      "inputs": [
        {
          "internalType": "address",
          "name": "to",
          "type": "address"
        },
        {
          "internalType": "uint256",
          "name": "tokenId",
          "type": "uint256"
        }
      ],
      "name": "approve",
      "outputs": [],
      "stateMutability": "nonpayable",
      "type": "function"
    },
    {
      "inputs": [
        {
          "internalType": "address",
          "name": "owner",
          "type": "address"
        }
      ],
      "name": "balanceOf",
      "outputs": [
        {
          "internalType": "uint256",
          "name": "",
          "type": "uint256"
        }
      ],
      "stateMutability": "view",
      "type": "function"
    },
    {
      "inputs": [
        {
          "internalType": "uint256",
          "name": "tokenId",
          "type": "uint256"
        }
      ],
      "name": "getApproved",
      "outputs": [
        {
          "internalType": "address",
          "name": "",
          "type": "address"
        }
      ],
      "stateMutability": "view",
      "type": "function"
    },
    {
      "inputs": [
        {
          "internalType": "uint256",
          "name": "_tokenId",
          "type": "uint256"
        }
      ],
      "name": "getCollectionOwner",
      "outputs": [
        {
          "internalType": "address",
          "name": "",
          "type": "address"
        }
      ],
      "stateMutability": "view",
      "type": "function"
    },
    {
      "inputs": [
        {
          "internalType": "address",
          "name": "_owner",
          "type": "address"
        }
      ],
      "name": "getCollectionOwnersEarnPercentage",
      "outputs": [
        {
          "internalType": "uint256",
          "name": "",
          "type": "uint256"
        }
      ],
      "stateMutability": "view",
      "type": "function"
    },
    {
      "inputs": [
        {
          "internalType": "uint256",
          "name": "_tokenId",
          "type": "uint256"
        }
      ],
      "name": "getRoyaltiesBeneficiary",
      "outputs": [
        {
          "internalType": "address",
          "name": "",
          "type": "address"
        }
      ],
      "stateMutability": "view",
      "type": "function"
    },
    {
      "inputs": [
        {
          "internalType": "address",
          "name": "owner",
          "type": "address"
        },
        {
          "internalType": "address",
          "name": "operator",
          "type": "address"
        }
      ],
      "name": "isApprovedForAll",
      "outputs": [
        {
          "internalType": "bool",
          "name": "",
          "type": "bool"
        }
      ],
      "stateMutability": "view",
      "type": "function"
    },
    {
      "inputs": [
        {
          "internalType": "string",
          "name": "_tokenURI",
          "type": "string"
        },
        {
          "internalType": "address",
          "name": "_from",
          "type": "address"
        },
        {
          "internalType": "address",
          "name": "_collectionOwner",
          "type": "address"
        },
        {
          "internalType": "uint256",
          "name": "_percentageEarnCollection",
          "type": "uint256"
        }
      ],
      "name": "mint",
      "outputs": [
        {
          "internalType": "uint256",
          "name": "",
          "type": "uint256"
        }
      ],
      "stateMutability": "nonpayable",
      "type": "function"
    },
    {
      "inputs": [],
      "name": "name",
      "outputs": [
        {
          "internalType": "string",
          "name": "",
          "type": "string"
        }
      ],
      "stateMutability": "view",
      "type": "function"
    },
    {
      "inputs": [
        {
          "internalType": "uint256",
          "name": "tokenId",
          "type": "uint256"
        }
      ],
      "name": "ownerOf",
      "outputs": [
        {
          "internalType": "address",
          "name": "",
          "type": "address"
        }
      ],
      "stateMutability": "view",
      "type": "function"
    },
    {
      "inputs": [
        {
          "internalType": "address",
          "name": "from",
          "type": "address"
        },
        {
          "internalType": "address",
          "name": "to",
          "type": "address"
        },
        {
          "internalType": "uint256",
          "name": "tokenId",
          "type": "uint256"
        }
      ],
      "name": "safeTransferFrom",
      "outputs": [],
      "stateMutability": "nonpayable",
      "type": "function"
    },
    {
      "inputs": [
        {
          "internalType": "address",
          "name": "from",
          "type": "address"
        },
        {
          "internalType": "address",
          "name": "to",
          "type": "address"
        },
        {
          "internalType": "uint256",
          "name": "tokenId",
          "type": "uint256"
        },
        {
          "internalType": "bytes",
          "name": "_data",
          "type": "bytes"
        }
      ],
      "name": "safeTransferFrom",
      "outputs": [],
      "stateMutability": "nonpayable",
      "type": "function"
    },
    {
      "inputs": [
        {
          "internalType": "address",
          "name": "operator",
          "type": "address"
        },
        {
          "internalType": "bool",
          "name": "approved",
          "type": "bool"
        }
      ],
      "name": "setApprovalForAll",
      "outputs": [],
      "stateMutability": "nonpayable",
      "type": "function"
    },
    {
      "inputs": [
        {
          "internalType": "uint256",
          "name": "_tokenId",
          "type": "uint256"
        },
        {
          "internalType": "address",
          "name": "to",
          "type": "address"
        }
      ],
      "name": "setRoyaltiesBeneficiary",
      "outputs": [],
      "stateMutability": "nonpayable",
      "type": "function"
    },
    {
      "inputs": [
        {
          "internalType": "bytes4",
          "name": "interfaceId",
          "type": "bytes4"
        }
      ],
      "name": "supportsInterface",
      "outputs": [
        {
          "internalType": "bool",
          "name": "",
          "type": "bool"
        }
      ],
      "stateMutability": "view",
      "type": "function"
    },
    {
      "inputs": [],
      "name": "symbol",
      "outputs": [
        {
          "internalType": "string",
          "name": "",
          "type": "string"
        }
      ],
      "stateMutability": "view",
      "type": "function"
    },
    {
      "inputs": [],
      "name": "tokenCount",
      "outputs": [
        {
          "internalType": "uint256",
          "name": "",
          "type": "uint256"
        }
      ],
      "stateMutability": "view",
      "type": "function"
    },
    {
      "inputs": [
        {
          "internalType": "uint256",
          "name": "tokenId",
          "type": "uint256"
        }
      ],
      "name": "tokenURI",
      "outputs": [
        {
          "internalType": "string",
          "name": "",
          "type": "string"
        }
      ],
      "stateMutability": "view",
      "type": "function"
    },
    {
      "inputs": [
        {
          "internalType": "address",
          "name": "from",
          "type": "address"
        },
        {
          "internalType": "address",
          "name": "to",
          "type": "address"
        },
        {
          "internalType": "uint256",
          "name": "tokenId",
          "type": "uint256"
        }
      ],
      "name": "transferFrom",
      "outputs": [],
      "stateMutability": "nonpayable",
      "type": "function"
    }
  ],
  "bytecode": "0x60806040523480156200001157600080fd5b506040518060400160405280601081526020017f47616d696e67204b6172647a204e4654000000000000000000000000000000008152506040518060400160405280600581526020017f474b52445a000000000000000000000000000000000000000000000000000000815250816000908051906020019062000096929190620000f9565b508060019080519060200190620000af929190620000f9565b50505033600860006101000a81548173ffffffffffffffffffffffffffffffffffffffff021916908373ffffffffffffffffffffffffffffffffffffffff1602179055506200020e565b8280546200010790620001a9565b90600052602060002090601f0160209004810192826200012b576000855562000177565b82601f106200014657805160ff191683800117855562000177565b8280016001018555821562000177579182015b828111156200017657825182559160200191906001019062000159565b5b5090506200018691906200018a565b5090565b5b80821115620001a55760008160009055506001016200018b565b5090565b60006002820490506001821680620001c257607f821691505b60208210811415620001d957620001d8620001df565b5b50919050565b7f4e487b7100000000000000000000000000000000000000000000000000000000600052602260045260246000fd5b6132c2806200021e6000396000f3fe608060405234801561001057600080fd5b50600436106101215760003560e01c80636352211e116100ad578063b192a79611610071578063b192a79614610340578063b88d4fde1461035c578063c87b56dd14610378578063d35238f7146103a8578063e985e9c5146103d857610121565b80636352211e1461028857806370a08231146102b857806395d89b41146102e85780639f181b5e14610306578063a22cb4651461032457610121565b806323b872dd116100f457806323b872dd146101c0578063394120c0146101dc5780633a8861801461020c57806342842e0e1461023c5780634567c4ff1461025857610121565b806301ffc9a71461012657806306fdde0314610156578063081812fc14610174578063095ea7b3146101a4575b600080fd5b610140600480360381019061013b9190612128565b610408565b60405161014d919061264e565b60405180910390f35b61015e6104ea565b60405161016b9190612669565b60405180910390f35b61018e600480360381019061018991906121f5565b61057c565b60405161019b91906125e7565b60405180910390f35b6101be60048036038101906101b991906120ec565b610601565b005b6101da60048036038101906101d59190611fe6565b610719565b005b6101f660048036038101906101f191906121f5565b610779565b60405161020391906125e7565b60405180910390f35b6102266004803603810190610221919061217a565b6107b6565b60405161023391906128eb565b60405180910390f35b61025660048036038101906102519190611fe6565b610914565b005b610272600480360381019061026d91906121f5565b610934565b60405161027f91906125e7565b60405180910390f35b6102a2600480360381019061029d91906121f5565b610971565b6040516102af91906125e7565b60405180910390f35b6102d260048036038101906102cd9190611f81565b610a23565b6040516102df91906128eb565b60405180910390f35b6102f0610adb565b6040516102fd9190612669565b60405180910390f35b61030e610b6d565b60405161031b91906128eb565b60405180910390f35b61033e600480360381019061033991906120b0565b610b73565b005b61035a6004803603810190610355919061221e565b610b89565b005b61037660048036038101906103719190612035565b610c81565b005b610392600480360381019061038d91906121f5565b610ce3565b60405161039f9190612669565b60405180910390f35b6103c260048036038101906103bd9190611f81565b610e35565b6040516103cf91906128eb565b60405180910390f35b6103f260048036038101906103ed9190611faa565b610e7e565b6040516103ff919061264e565b60405180910390f35b60007f80ac58cd000000000000000000000000000000000000000000000000000000007bffffffffffffffffffffffffffffffffffffffffffffffffffffffff1916827bffffffffffffffffffffffffffffffffffffffffffffffffffffffff191614806104d357507f5b5e139f000000000000000000000000000000000000000000000000000000007bffffffffffffffffffffffffffffffffffffffffffffffffffffffff1916827bffffffffffffffffffffffffffffffffffffffffffffffffffffffff1916145b806104e357506104e282610f12565b5b9050919050565b6060600080546104f990612b41565b80601f016020809104026020016040519081016040528092919081815260200182805461052590612b41565b80156105725780601f1061054757610100808354040283529160200191610572565b820191906000526020600020905b81548152906001019060200180831161055557829003601f168201915b5050505050905090565b600061058782610f7c565b6105c6576040517f08c379a00000000000000000000000000000000000000000000000000000000081526004016105bd9061280b565b60405180910390fd5b6004600083815260200190815260200160002060009054906101000a900473ffffffffffffffffffffffffffffffffffffffff169050919050565b600061060c82610971565b90508073ffffffffffffffffffffffffffffffffffffffff168373ffffffffffffffffffffffffffffffffffffffff16141561067d576040517f08c379a00000000000000000000000000000000000000000000000000000000081526004016106749061286b565b60405180910390fd5b8073ffffffffffffffffffffffffffffffffffffffff1661069c610fe8565b73ffffffffffffffffffffffffffffffffffffffff1614806106cb57506106ca816106c5610fe8565b610e7e565b5b61070a576040517f08c379a00000000000000000000000000000000000000000000000000000000081526004016107019061274b565b60405180910390fd5b6107148383610ff0565b505050565b61072a610724610fe8565b826110a9565b610769576040517f08c379a0000000000000000000000000000000000000000000000000000000008152600401610760906128ab565b60405180910390fd5b610774838383611187565b505050565b60006009600083815260200190815260200160002060009054906101000a900473ffffffffffffffffffffffffffffffffffffffff169050919050565b6000600860009054906101000a900473ffffffffffffffffffffffffffffffffffffffff1673ffffffffffffffffffffffffffffffffffffffff168473ffffffffffffffffffffffffffffffffffffffff1614610848576040517f08c379a000000000000000000000000000000000000000000000000000000000815260040161083f906128cb565b60405180910390fd5b6007600081548092919061085b90612ba4565b919050555061086c846007546113ee565b6108786007548661140c565b600073ffffffffffffffffffffffffffffffffffffffff168373ffffffffffffffffffffffffffffffffffffffff1614610907576108b860075484611480565b60008211156109065781600a60008573ffffffffffffffffffffffffffffffffffffffff1673ffffffffffffffffffffffffffffffffffffffff168152602001908152602001600020819055505b5b6007549050949350505050565b61092f83838360405180602001604052806000815250610c81565b505050565b6000600b600083815260200190815260200160002060009054906101000a900473ffffffffffffffffffffffffffffffffffffffff169050919050565b6000806002600084815260200190815260200160002060009054906101000a900473ffffffffffffffffffffffffffffffffffffffff169050600073ffffffffffffffffffffffffffffffffffffffff168173ffffffffffffffffffffffffffffffffffffffff161415610a1a576040517f08c379a0000000000000000000000000000000000000000000000000000000008152600401610a119061278b565b60405180910390fd5b80915050919050565b60008073ffffffffffffffffffffffffffffffffffffffff168273ffffffffffffffffffffffffffffffffffffffff161415610a94576040517f08c379a0000000000000000000000000000000000000000000000000000000008152600401610a8b9061276b565b60405180910390fd5b600360008373ffffffffffffffffffffffffffffffffffffffff1673ffffffffffffffffffffffffffffffffffffffff168152602001908152602001600020549050919050565b606060018054610aea90612b41565b80601f0160208091040260200160405190810160405280929190818152602001828054610b1690612b41565b8015610b635780601f10610b3857610100808354040283529160200191610b63565b820191906000526020600020905b815481529060010190602001808311610b4657829003601f168201915b5050505050905090565b60075481565b610b85610b7e610fe8565b8383611578565b5050565b600073ffffffffffffffffffffffffffffffffffffffff16600b600084815260200190815260200160002060009054906101000a900473ffffffffffffffffffffffffffffffffffffffff1673ffffffffffffffffffffffffffffffffffffffff1614610c2b576040517f08c379a0000000000000000000000000000000000000000000000000000000008152600401610c229061282b565b60405180910390fd5b80600b600084815260200190815260200160002060006101000a81548173ffffffffffffffffffffffffffffffffffffffff021916908373ffffffffffffffffffffffffffffffffffffffff1602179055505050565b610c92610c8c610fe8565b836110a9565b610cd1576040517f08c379a0000000000000000000000000000000000000000000000000000000008152600401610cc8906128ab565b60405180910390fd5b610cdd848484846116e5565b50505050565b6060610cee82610f7c565b610d2d576040517f08c379a0000000000000000000000000000000000000000000000000000000008152600401610d24906127eb565b60405180910390fd5b6000600660008481526020019081526020016000208054610d4d90612b41565b80601f0160208091040260200160405190810160405280929190818152602001828054610d7990612b41565b8015610dc65780601f10610d9b57610100808354040283529160200191610dc6565b820191906000526020600020905b815481529060010190602001808311610da957829003601f168201915b505050505090506000610dd7611741565b9050600081511415610ded578192505050610e30565b600082511115610e22578082604051602001610e0a9291906125c3565b60405160208183030381529060405292505050610e30565b610e2b84611758565b925050505b919050565b6000600a60008373ffffffffffffffffffffffffffffffffffffffff1673ffffffffffffffffffffffffffffffffffffffff168152602001908152602001600020549050919050565b6000600560008473ffffffffffffffffffffffffffffffffffffffff1673ffffffffffffffffffffffffffffffffffffffff16815260200190815260200160002060008373ffffffffffffffffffffffffffffffffffffffff1673ffffffffffffffffffffffffffffffffffffffff16815260200190815260200160002060009054906101000a900460ff16905092915050565b60007f01ffc9a7000000000000000000000000000000000000000000000000000000007bffffffffffffffffffffffffffffffffffffffffffffffffffffffff1916827bffffffffffffffffffffffffffffffffffffffffffffffffffffffff1916149050919050565b60008073ffffffffffffffffffffffffffffffffffffffff166002600084815260200190815260200160002060009054906101000a900473ffffffffffffffffffffffffffffffffffffffff1673ffffffffffffffffffffffffffffffffffffffff1614159050919050565b600033905090565b816004600083815260200190815260200160002060006101000a81548173ffffffffffffffffffffffffffffffffffffffff021916908373ffffffffffffffffffffffffffffffffffffffff160217905550808273ffffffffffffffffffffffffffffffffffffffff1661106383610971565b73ffffffffffffffffffffffffffffffffffffffff167f8c5be1e5ebec7d5bd14f71427d1e84f3dd0314c0f7b2291e5b200ac8c7c3b92560405160405180910390a45050565b60006110b482610f7c565b6110f3576040517f08c379a00000000000000000000000000000000000000000000000000000000081526004016110ea9061272b565b60405180910390fd5b60006110fe83610971565b90508073ffffffffffffffffffffffffffffffffffffffff168473ffffffffffffffffffffffffffffffffffffffff161480611140575061113f8185610e7e565b5b8061117e57508373ffffffffffffffffffffffffffffffffffffffff166111668461057c565b73ffffffffffffffffffffffffffffffffffffffff16145b91505092915050565b8273ffffffffffffffffffffffffffffffffffffffff166111a782610971565b73ffffffffffffffffffffffffffffffffffffffff16146111fd576040517f08c379a00000000000000000000000000000000000000000000000000000000081526004016111f4906126ab565b60405180910390fd5b600073ffffffffffffffffffffffffffffffffffffffff168273ffffffffffffffffffffffffffffffffffffffff16141561126d576040517f08c379a0000000000000000000000000000000000000000000000000000000008152600401611264906126eb565b60405180910390fd5b6112788383836117ff565b611283600082610ff0565b6001600360008573ffffffffffffffffffffffffffffffffffffffff1673ffffffffffffffffffffffffffffffffffffffff16815260200190815260200160002060008282546112d39190612a57565b925050819055506001600360008473ffffffffffffffffffffffffffffffffffffffff1673ffffffffffffffffffffffffffffffffffffffff168152602001908152602001600020600082825461132a91906129d0565b92505081905550816002600083815260200190815260200160002060006101000a81548173ffffffffffffffffffffffffffffffffffffffff021916908373ffffffffffffffffffffffffffffffffffffffff160217905550808273ffffffffffffffffffffffffffffffffffffffff168473ffffffffffffffffffffffffffffffffffffffff167fddf252ad1be2c89b69c2b068fc378daa952ba7f163c4a11628f55a4df523b3ef60405160405180910390a46113e9838383611804565b505050565b611408828260405180602001604052806000815250611809565b5050565b61141582610f7c565b611454576040517f08c379a000000000000000000000000000000000000000000000000000000000815260040161144b906127ab565b60405180910390fd5b8060066000848152602001908152602001600020908051906020019061147b929190611da5565b505050565b600073ffffffffffffffffffffffffffffffffffffffff16600b600084815260200190815260200160002060009054906101000a900473ffffffffffffffffffffffffffffffffffffffff1673ffffffffffffffffffffffffffffffffffffffff1614611522576040517f08c379a00000000000000000000000000000000000000000000000000000000081526004016115199061288b565b60405180910390fd5b806009600084815260200190815260200160002060006101000a81548173ffffffffffffffffffffffffffffffffffffffff021916908373ffffffffffffffffffffffffffffffffffffffff1602179055505050565b8173ffffffffffffffffffffffffffffffffffffffff168373ffffffffffffffffffffffffffffffffffffffff1614156115e7576040517f08c379a00000000000000000000000000000000000000000000000000000000081526004016115de9061270b565b60405180910390fd5b80600560008573ffffffffffffffffffffffffffffffffffffffff1673ffffffffffffffffffffffffffffffffffffffff16815260200190815260200160002060008473ffffffffffffffffffffffffffffffffffffffff1673ffffffffffffffffffffffffffffffffffffffff16815260200190815260200160002060006101000a81548160ff0219169083151502179055508173ffffffffffffffffffffffffffffffffffffffff168373ffffffffffffffffffffffffffffffffffffffff167f17307eab39ab6107e8899845ad3d59bd9653f200f220920489ca2b5937696c31836040516116d8919061264e565b60405180910390a3505050565b6116f0848484611187565b6116fc84848484611864565b61173b576040517f08c379a00000000000000000000000000000000000000000000000000000000081526004016117329061268b565b60405180910390fd5b50505050565b606060405180602001604052806000815250905090565b606061176382610f7c565b6117a2576040517f08c379a00000000000000000000000000000000000000000000000000000000081526004016117999061284b565b60405180910390fd5b60006117ac611741565b905060008151116117cc57604051806020016040528060008152506117f7565b806117d6846119fb565b6040516020016117e79291906125c3565b6040516020818303038152906040525b915050919050565b505050565b505050565b6118138383611ba8565b6118206000848484611864565b61185f576040517f08c379a00000000000000000000000000000000000000000000000000000000081526004016118569061268b565b60405180910390fd5b505050565b60006118858473ffffffffffffffffffffffffffffffffffffffff16611d82565b156119ee578373ffffffffffffffffffffffffffffffffffffffff1663150b7a026118ae610fe8565b8786866040518563ffffffff1660e01b81526004016118d09493929190612602565b602060405180830381600087803b1580156118ea57600080fd5b505af192505050801561191b57506040513d601f19601f820116820180604052508101906119189190612151565b60015b61199e573d806000811461194b576040519150601f19603f3d011682016040523d82523d6000602084013e611950565b606091505b50600081511415611996576040517f08c379a000000000000000000000000000000000000000000000000000000000815260040161198d9061268b565b60405180910390fd5b805181602001fd5b63150b7a0260e01b7bffffffffffffffffffffffffffffffffffffffffffffffffffffffff1916817bffffffffffffffffffffffffffffffffffffffffffffffffffffffff1916149150506119f3565b600190505b949350505050565b60606000821415611a43576040518060400160405280600181526020017f30000000000000000000000000000000000000000000000000000000000000008152509050611ba3565b600082905060005b60008214611a75578080611a5e90612ba4565b915050600a82611a6e9190612a26565b9150611a4b565b60008167ffffffffffffffff811115611ab7577f4e487b7100000000000000000000000000000000000000000000000000000000600052604160045260246000fd5b6040519080825280601f01601f191660200182016040528015611ae95781602001600182028036833780820191505090505b5090505b60008514611b9c57600182611b029190612a57565b9150600a85611b119190612bed565b6030611b1d91906129d0565b60f81b818381518110611b59577f4e487b7100000000000000000000000000000000000000000000000000000000600052603260045260246000fd5b60200101907effffffffffffffffffffffffffffffffffffffffffffffffffffffffffffff1916908160001a905350600a85611b959190612a26565b9450611aed565b8093505050505b919050565b600073ffffffffffffffffffffffffffffffffffffffff168273ffffffffffffffffffffffffffffffffffffffff161415611c18576040517f08c379a0000000000000000000000000000000000000000000000000000000008152600401611c0f906127cb565b60405180910390fd5b611c2181610f7c565b15611c61576040517f08c379a0000000000000000000000000000000000000000000000000000000008152600401611c58906126cb565b60405180910390fd5b611c6d600083836117ff565b6001600360008473ffffffffffffffffffffffffffffffffffffffff1673ffffffffffffffffffffffffffffffffffffffff1681526020019081526020016000206000828254611cbd91906129d0565b92505081905550816002600083815260200190815260200160002060006101000a81548173ffffffffffffffffffffffffffffffffffffffff021916908373ffffffffffffffffffffffffffffffffffffffff160217905550808273ffffffffffffffffffffffffffffffffffffffff16600073ffffffffffffffffffffffffffffffffffffffff167fddf252ad1be2c89b69c2b068fc378daa952ba7f163c4a11628f55a4df523b3ef60405160405180910390a4611d7e60008383611804565b5050565b6000808273ffffffffffffffffffffffffffffffffffffffff163b119050919050565b828054611db190612b41565b90600052602060002090601f016020900481019282611dd35760008555611e1a565b82601f10611dec57805160ff1916838001178555611e1a565b82800160010185558215611e1a579182015b82811115611e19578251825591602001919060010190611dfe565b5b509050611e279190611e2b565b5090565b5b80821115611e44576000816000905550600101611e2c565b5090565b6000611e5b611e568461292b565b612906565b905082815260208101848484011115611e7357600080fd5b611e7e848285612aff565b509392505050565b6000611e99611e948461295c565b612906565b905082815260208101848484011115611eb157600080fd5b611ebc848285612aff565b509392505050565b600081359050611ed381613230565b92915050565b600081359050611ee881613247565b92915050565b600081359050611efd8161325e565b92915050565b600081519050611f128161325e565b92915050565b600082601f830112611f2957600080fd5b8135611f39848260208601611e48565b91505092915050565b600082601f830112611f5357600080fd5b8135611f63848260208601611e86565b91505092915050565b600081359050611f7b81613275565b92915050565b600060208284031215611f9357600080fd5b6000611fa184828501611ec4565b91505092915050565b60008060408385031215611fbd57600080fd5b6000611fcb85828601611ec4565b9250506020611fdc85828601611ec4565b9150509250929050565b600080600060608486031215611ffb57600080fd5b600061200986828701611ec4565b935050602061201a86828701611ec4565b925050604061202b86828701611f6c565b9150509250925092565b6000806000806080858703121561204b57600080fd5b600061205987828801611ec4565b945050602061206a87828801611ec4565b935050604061207b87828801611f6c565b925050606085013567ffffffffffffffff81111561209857600080fd5b6120a487828801611f18565b91505092959194509250565b600080604083850312156120c357600080fd5b60006120d185828601611ec4565b92505060206120e285828601611ed9565b9150509250929050565b600080604083850312156120ff57600080fd5b600061210d85828601611ec4565b925050602061211e85828601611f6c565b9150509250929050565b60006020828403121561213a57600080fd5b600061214884828501611eee565b91505092915050565b60006020828403121561216357600080fd5b600061217184828501611f03565b91505092915050565b6000806000806080858703121561219057600080fd5b600085013567ffffffffffffffff8111156121aa57600080fd5b6121b687828801611f42565b94505060206121c787828801611ec4565b93505060406121d887828801611ec4565b92505060606121e987828801611f6c565b91505092959194509250565b60006020828403121561220757600080fd5b600061221584828501611f6c565b91505092915050565b6000806040838503121561223157600080fd5b600061223f85828601611f6c565b925050602061225085828601611ec4565b9150509250929050565b61226381612a8b565b82525050565b61227281612a9d565b82525050565b60006122838261298d565b61228d81856129a3565b935061229d818560208601612b0e565b6122a681612cda565b840191505092915050565b60006122bc82612998565b6122c681856129b4565b93506122d6818560208601612b0e565b6122df81612cda565b840191505092915050565b60006122f582612998565b6122ff81856129c5565b935061230f818560208601612b0e565b80840191505092915050565b60006123286032836129b4565b915061233382612ceb565b604082019050919050565b600061234b6025836129b4565b915061235682612d3a565b604082019050919050565b600061236e601c836129b4565b915061237982612d89565b602082019050919050565b60006123916024836129b4565b915061239c82612db2565b604082019050919050565b60006123b46019836129b4565b91506123bf82612e01565b602082019050919050565b60006123d7602c836129b4565b91506123e282612e2a565b604082019050919050565b60006123fa6038836129b4565b915061240582612e79565b604082019050919050565b600061241d602a836129b4565b915061242882612ec8565b604082019050919050565b60006124406029836129b4565b915061244b82612f17565b604082019050919050565b6000612463602e836129b4565b915061246e82612f66565b604082019050919050565b60006124866020836129b4565b915061249182612fb5565b602082019050919050565b60006124a96031836129b4565b91506124b482612fde565b604082019050919050565b60006124cc602c836129b4565b91506124d78261302d565b604082019050919050565b60006124ef6023836129b4565b91506124fa8261307c565b604082019050919050565b6000612512602f836129b4565b915061251d826130cb565b604082019050919050565b60006125356021836129b4565b91506125408261311a565b604082019050919050565b60006125586024836129b4565b915061256382613169565b604082019050919050565b600061257b6031836129b4565b9150612586826131b8565b604082019050919050565b600061259e6016836129b4565b91506125a982613207565b602082019050919050565b6125bd81612af5565b82525050565b60006125cf82856122ea565b91506125db82846122ea565b91508190509392505050565b60006020820190506125fc600083018461225a565b92915050565b6000608082019050612617600083018761225a565b612624602083018661225a565b61263160408301856125b4565b81810360608301526126438184612278565b905095945050505050565b60006020820190506126636000830184612269565b92915050565b6000602082019050818103600083015261268381846122b1565b905092915050565b600060208201905081810360008301526126a48161231b565b9050919050565b600060208201905081810360008301526126c48161233e565b9050919050565b600060208201905081810360008301526126e481612361565b9050919050565b6000602082019050818103600083015261270481612384565b9050919050565b60006020820190508181036000830152612724816123a7565b9050919050565b60006020820190508181036000830152612744816123ca565b9050919050565b60006020820190508181036000830152612764816123ed565b9050919050565b6000602082019050818103600083015261278481612410565b9050919050565b600060208201905081810360008301526127a481612433565b9050919050565b600060208201905081810360008301526127c481612456565b9050919050565b600060208201905081810360008301526127e481612479565b9050919050565b600060208201905081810360008301526128048161249c565b9050919050565b60006020820190508181036000830152612824816124bf565b9050919050565b60006020820190508181036000830152612844816124e2565b9050919050565b6000602082019050818103600083015261286481612505565b9050919050565b6000602082019050818103600083015261288481612528565b9050919050565b600060208201905081810360008301526128a48161254b565b9050919050565b600060208201905081810360008301526128c48161256e565b9050919050565b600060208201905081810360008301526128e481612591565b9050919050565b600060208201905061290060008301846125b4565b92915050565b6000612910612921565b905061291c8282612b73565b919050565b6000604051905090565b600067ffffffffffffffff82111561294657612945612cab565b5b61294f82612cda565b9050602081019050919050565b600067ffffffffffffffff82111561297757612976612cab565b5b61298082612cda565b9050602081019050919050565b600081519050919050565b600081519050919050565b600082825260208201905092915050565b600082825260208201905092915050565b600081905092915050565b60006129db82612af5565b91506129e683612af5565b9250827fffffffffffffffffffffffffffffffffffffffffffffffffffffffffffffffff03821115612a1b57612a1a612c1e565b5b828201905092915050565b6000612a3182612af5565b9150612a3c83612af5565b925082612a4c57612a4b612c4d565b5b828204905092915050565b6000612a6282612af5565b9150612a6d83612af5565b925082821015612a8057612a7f612c1e565b5b828203905092915050565b6000612a9682612ad5565b9050919050565b60008115159050919050565b60007fffffffff0000000000000000000000000000000000000000000000000000000082169050919050565b600073ffffffffffffffffffffffffffffffffffffffff82169050919050565b6000819050919050565b82818337600083830152505050565b60005b83811015612b2c578082015181840152602081019050612b11565b83811115612b3b576000848401525b50505050565b60006002820490506001821680612b5957607f821691505b60208210811415612b6d57612b6c612c7c565b5b50919050565b612b7c82612cda565b810181811067ffffffffffffffff82111715612b9b57612b9a612cab565b5b80604052505050565b6000612baf82612af5565b91507fffffffffffffffffffffffffffffffffffffffffffffffffffffffffffffffff821415612be257612be1612c1e565b5b600182019050919050565b6000612bf882612af5565b9150612c0383612af5565b925082612c1357612c12612c4d565b5b828206905092915050565b7f4e487b7100000000000000000000000000000000000000000000000000000000600052601160045260246000fd5b7f4e487b7100000000000000000000000000000000000000000000000000000000600052601260045260246000fd5b7f4e487b7100000000000000000000000000000000000000000000000000000000600052602260045260246000fd5b7f4e487b7100000000000000000000000000000000000000000000000000000000600052604160045260246000fd5b6000601f19601f8301169050919050565b7f4552433732313a207472616e7366657220746f206e6f6e20455243373231526560008201527f63656976657220696d706c656d656e7465720000000000000000000000000000602082015250565b7f4552433732313a207472616e736665722066726f6d20696e636f72726563742060008201527f6f776e6572000000000000000000000000000000000000000000000000000000602082015250565b7f4552433732313a20746f6b656e20616c7265616479206d696e74656400000000600082015250565b7f4552433732313a207472616e7366657220746f20746865207a65726f2061646460008201527f7265737300000000000000000000000000000000000000000000000000000000602082015250565b7f4552433732313a20617070726f766520746f2063616c6c657200000000000000600082015250565b7f4552433732313a206f70657261746f7220717565727920666f72206e6f6e657860008201527f697374656e7420746f6b656e0000000000000000000000000000000000000000602082015250565b7f4552433732313a20617070726f76652063616c6c6572206973206e6f74206f7760008201527f6e6572206e6f7220617070726f76656420666f7220616c6c0000000000000000602082015250565b7f4552433732313a2062616c616e636520717565727920666f7220746865207a6560008201527f726f206164647265737300000000000000000000000000000000000000000000602082015250565b7f4552433732313a206f776e657220717565727920666f72206e6f6e657869737460008201527f656e7420746f6b656e0000000000000000000000000000000000000000000000602082015250565b7f45524337323155524953746f726167653a2055524920736574206f66206e6f6e60008201527f6578697374656e7420746f6b656e000000000000000000000000000000000000602082015250565b7f4552433732313a206d696e7420746f20746865207a65726f2061646472657373600082015250565b7f45524337323155524953746f726167653a2055524920717565727920666f722060008201527f6e6f6e6578697374656e7420746f6b656e000000000000000000000000000000602082015250565b7f4552433732313a20617070726f76656420717565727920666f72206e6f6e657860008201527f697374656e7420746f6b656e0000000000000000000000000000000000000000602082015250565b7f546f6b656e20616c726561647920686173206120726f79616c74696573206f7760008201527f6e65720000000000000000000000000000000000000000000000000000000000602082015250565b7f4552433732314d657461646174613a2055524920717565727920666f72206e6f60008201527f6e6578697374656e7420746f6b656e0000000000000000000000000000000000602082015250565b7f4552433732313a20617070726f76616c20746f2063757272656e74206f776e6560008201527f7200000000000000000000000000000000000000000000000000000000000000602082015250565b7f546f6b656e20616c726561647920686173206120636f6c6c656374696f6e206f60008201527f776e657200000000000000000000000000000000000000000000000000000000602082015250565b7f4552433732313a207472616e736665722063616c6c6572206973206e6f74206f60008201527f776e6572206e6f7220617070726f766564000000000000000000000000000000602082015250565b7f596f7520617265206e6f7420746865206f776e65722e00000000000000000000600082015250565b61323981612a8b565b811461324457600080fd5b50565b61325081612a9d565b811461325b57600080fd5b50565b61326781612aa9565b811461327257600080fd5b50565b61327e81612af5565b811461328957600080fd5b5056fea2646970667358221220e690611b46232c755fb5d2c972cda153b9e0227e5701471e8d4d9318d002068f64736f6c63430008040033",
  "linkReferences": {},
  "deployedLinkReferences": {}
}